;S65v58
;Вертикальные антена и батарейка
;Vertical net indicator and battery
;(c) isb
;Version: 
;PatchID: 2296
;Details: https://patches.kibab.com/patches/details.php5?id=2296
/*

*/
; #######################################################################
; ### This file is made by ©SiemensPictureChange 3.0 - Public Beta    ###
; ### programmed ©2004 by ACiD[mrp], b@iLLi.                          ###
; ### Additional programming by Cluni.                                ###
; ###                                                                 ###
; ### GSM Development Crew - www.gsm-dev.com                          ###
; ### GSM Multifund, Handyhacking - http://www.gsm-multifund.de/board ###
; ###                                                                 ###
; ### Date: 11.10.2005  -  Time: 20:10:30                             ###
; ### Patch for: SIEMENS S65 v58                                      ###
; #######################################################################


; ##### Picture 521 #####
00DA106C: 1F0E88009488E3A0 1F8E8800F8EE9DA0

009DEEF8: 40AB2860998D002904D0998D0122D203 7F00E07F00E07F00E07F00E06300E0FD
009DEF08: 914201D3002812D10022094900920323 084200E041081C00E0FD0C63D39CCF7B
009DEF18: 48313A20164A5EF05FFF40AB9A8D41A1 1D00E0FA0C6379CE3CE79294494A8631
009DEF28: 009100230192032211494EA0BEE1AFE0 1900E0F84108C73979CEBEF7FFFFB6B5
009DEF38: 410600004D6D45645F4F62735F446572 10848A521800E0F84108C31875ADBEF7
009DEF48: 697665506172616D7346726F6D4C6179 FFFFBEF779CE8E731700E0F84108C318
009DEF58: 6F75746572206661696C65643A204348 518C7DEFFFFFBAD6CF7B45291800E0FA
009DEF68: 496E666F20696E76616C696400000000 518C7DEFBEF7FFFFBAD6CB5A1A00E0F9
009DEF78: 02200000696D706C656D656E74617469 4D6BB6B5BAD67DEF18C64D6B41081800
009DEF88: 6F6E2F6D6D737569766B2F6D6D65646C E0F7410800E08A52518CB6B5BAD69294
009DEF98: 6962632E632831363031293A20000000 00E041081A00E0FBC739CB5AD39CF7BD
009DEFA8: 4348496E666F20696E76616C69640000 04211E00E0FF0C637F00E07F00E07F00
009DEFB8: 1C33A3A0696D706C656D656E74617469 E03000E00300001B00E0FB00008E73CB
009DEFC8: 6F6E2F6D6D737569766B2F6D6D65646C 5A494A00001900E0F9000010848E73CB
009DEFD8: 6962632E632831363133293A20000000 5A494A863100001800E0F9000010848E
009DEFE8: 4D6D4C6F4765744C61796F7574000000 73CB5A494A863100001800E0F9000010
009DEFF8: 696D706C656D656E746174696F6E2F6D 848E73CB5A494A863100001800E0F900
009DF008: 6D737569766B2F6D6D65646C6962632E 0010848E73CB5A494A863100001800E0
009DF018: 632831363338293A200000000CD19DA0 F9000010848E73CB5A494A8631000018
009DF028: D427A3A04D6D45645F53657475704F62 00E0F9000010844D6BCB5A494A863100
009DF038: 735769746846696C656E616D653A204F 001800E0F9000010848E73CB5A494A86
009DF048: 62735F4372656174654F626A65637420 3100001800E0F9000010848E73CB5A49
009DF058: 6661696C65642C206572726F723D2564 4A863100001800E0F9000010848E73CB
009DF068: 00000000696D706C656D656E74617469 5A494A863100001800E0F9000010848E
009DF078: 6F6E2F6D6D737569766B2F6D6D65646C 73CB5A494A863100001800E00700007F
009DF088: 6962632E632831363733293A20000000 00E07F00E07F00E07F00E07F00E06C00
009DF098: 0022254E0092321C03233A2023495EF0 E0FF41101E00E0FF41201D00E0024110
009DF0A8: 9BFE2A6822490192032200230091311C 1D00E0FE001841101C00E0FD41100150
009DF0B8: 20A05EF019FE012038712868211C95F7 42101C00E0FD4120005041081C00E002
009DF0C8: 94EC40AB9885988D002814D0988D0122 0038FF81101B00E0FD4110006000381C
009DF0D8: D20390420FD2002200921449321C0931 00E0FD0030018800301B00E0FC411000
009DF0E8: 03233A205EF078FE1DA2009203220023 68008800281B00E0FC00280180008800
009DF0F8: 311C28A0DAE080222BA94D98C6F6FEEC 281B00E0FC00480190008800181300E0
009DF108: 00280FD1002200920849321C10310323 FF81180600E0FB401000884198007041
009DF118: 3A205EF061FE2AA20092002303220249 201200E0FD4120006040200500E0FB01
009DF128: 37A0C3E082E00000022000008E060000 48019800A0006841101200E0FC011840
009DF138: B033A3A0696D706C656D656E74617469 A0009041200300E0FA4118006041A040
009DF148: 6F6E2F6D6D737569766B2F6D6D65646C A0006041101200E0F3413001A041C000
009DF158: 6962632E632831363738293A20000000 880048411800E04020418840A041A000
009DF168: 4D6D45645F53657475704F6273576974 5041101200E0FB002840C041C040C041
009DF178: 6846696C656E616D653A204F62735F53 A8020060FA009000A041A800A0005881
009DF188: 6574436C69656E744461746120666169 101200E0FE004840C00341C00200B0FB
009DF198: 6C656400696D706C656D656E74617469 40A841B041A840A000401300E0FA0050
009DF1A8: 6F6E2F6D6D737569766B2F6D6D65646C 41C041C840C041C041B80341B0FD40A8
009DF1B8: 6962632E632831363837293A20000000 019800401300E0FD016800C841C80341
009DF1C8: 4D6D45645F53657475704F6273576974 C0FE41B801B80241B0FE009800281200
009DF1D8: 6846696C656E616D653A207563733270 E0FB4110008001C841C840C80241C0FE
009DF1E8: 6174685F746F5F736474663870617468 40B841B80240B0FE009000281200E0FB
009DF1F8: 206661696C65642C2061626F72740000 4120008841D040C841C80241C00241B8
009DF208: 696D706C656D656E746174696F6E2F6D FC40B041B0019041201200E0F3411801
009DF218: 6D737569766B2F6D6D65646C6962632E B000D041D040C00188008041B000B801
009DF228: 632831363934293A2000000015218901 B841B0009001101200E0FB413040B041
009DF238: 0020B86061188863C863286800212BAA D840C00088024138FE006841A80240B0
009DF248: 99F742E940AB9885988D002804D0988D FE007041181200E0F3003041D841D040
009DF258: 0122D203904216D300220092321C0323 B001388220C3284220005041A800B000
009DF268: 3A2027495EF0B8FD2BAA0BA925A00090 7041101200E0FB014841D000D8008841
009DF278: 01910292002303222E492FA05EF034FD 180400E0FC00500190005841181200E0
009DF288: 01204FB0F0BD00220092321C6B210901 FC006000D041C800580500E0FD811001
009DF298: 03233A205EF0A0FD0BA901912BAA31A0 4000581300E0FC006840D801A0402007
009DF2A8: 009002922349002303223AA05EF01CFD 00E0FF41301200E0FB4110018841D000
009DF2B8: 0020E6E7F7B58AB0051C00200990281C 6081101A00E0FC4120409000B840281B
009DF2C8: 09A995F79EEB032700240028194E03D0 00E0FC002041C0008041181B00E0FD41
009DF2D8: 0121C903884202D3099800280FD10022 3041B000481C00E0FD003801A041081C
009DF2E8: 00920749321C3B1C17313A205EF074FD 00E0FE004000581D00E0FE006040301D
009DF2F8: 33A20092231C03220E4941A070E195E0 00E0FE006881101C00E0FE411041381D
009DF308: AB0600004D6D45645F53657475704F62 00E0FE422041081D00E0FF40201E00E0
009DF318: 735769746846696C656E616D65207375 FF82307F00E07F00E05300E002000003
009DF328: 6363656564656420666F722025732028 41081A00E0F6000041E000B800A00080
009DF338: 2573290002200000696D706C656D656E 00680048003000200008020000024108
009DF348: 746174696F6E2F6D6D737569766B2F6D FF41101000E0EC000041F841F041E840
009DF358: 6D65646C6962632E632831373037293A E041D841D041C841C041B801A8019000
009DF368: 200000004D6D45645F53657475704F62 7800600048003800280018000800000B
009DF378: 735769746846696C656E616D65206661 00E0F200000018003000480060007000
009DF388: 696C656420666F722025732028257329 80009040A000B041B040A840A0419802
009DF398: 00000000696D706C656D656E74617469 4090024180FE417800001000E0FF4110
009DF3A8: 6F6E2F6D6D737569766B2F6D6D65646C 024108020000F6000800180028003800
009DF3B8: 6962632E632831373132293A20000000 48005001580060406800001A00E00341
009DF3C8: 4D6D45645F4F62735F53657450617261 08FE010000002900E0FD000001000000
009DF3D8: 6D73416E645374617274436F6E766572 024108FF81081900E0F6000001800068
009DF3E8: 73696F6E3A204F62735F476574436C69 01600048003800300020001000080200
009DF3F8: 656E7444617461206661696C65640000 000341081000E0FB0000018840800080
009DF408: 696D706C656D656E746174696F6E2F6D 0178020070FF0068020060FA00580048
009DF418: 6D737569766B2F6D6D65646C6962632E 0040003000280020020010FF00080200
009DF428: 632831373330293A2000000000ABDA8D 000A00E0F80000000800100020002800
009DF438: 998D281C92F72AEE002812D00121C903 3800400048020050FF0058020050FF01
009DF448: 88420ED2002200923B1C321C3A206749 48020040020038FD0030002800001000
009DF458: 5EF0C2FC664A231C00920322654966A0 E0024108FF4000020000FD0008001000
009DF468: BEE0302100AB595E281C92F76CEF0028 18030020030028FF00001900E0FC8110
009DF478: 14D00121C903884210 410840084108030000


; ##### Picture 522 #####
00DA1074: 1F0E88005089E3A0 1F8E880081F49DA0

009DF481: D2002200923B1C321C6D2109013A205E 7F00E07F00E07F00E07F00E06300E0FD
009DF491: F0A6FC584A59494C320092231C032262 084200E041081C00E0FD0C63D39CCF7B
009DF4A1: A0A1E00B220998D20180180023436100 1D00E0FA0C6379CE3CE79294494A8631
009DF4B1: 21281CB8F774EA6749041C884227D100 1900E0F84108C73979CEBEF7FFFFB6B5
009DF4C1: 2200924B49321C3B1C0F313A205EF087 10848A521800E0F84108C31875ADBEF7
009DF4D1: FC494A002390320092032247495FA05E FFFFBEF779CE8E731700E0F84108C318
009DF4E1: F006FC231C0922674902A8CAF604E802 518C7DEFFFFFBAD6CF7B45291800E0FA
009DF4F1: A842F09CED03DF00220920634947F748 518C7DEFBEF7FFFFBAD6CB5A1A00E0F9
009DF501: ED0B220998D20100238018036048E00E 4D6BB6B5BAD67DEF18C64D6B41081800
009DF511: 2C18D1002200923649321C3B1C18313A E0F7410800E08A52518CB6B5BAD69294
009DF521: 205EF05DFC344A0024E0320092231C03 00E041081A00E0FBC739CB5AD39CF7BD
009DF531: 22324956A05EF0DBFB0B220998D20180 04211E00E0FF0C637F00E07F00E07F00
009DF541: 1804602DE00B220998D2018018012141 E03000E00300001B00E0FB00008E73CB
009DF551: 610160002C12D0C80384420FD2002200 5A494A00001900E0F9000010848E73CB
009DF561: 922449321C3B1C24313A205EF038FC52 5A494A863100001800E0F9000010848E
009DF571: 4A002300920322204951A00FE0002200 73CB5A494A863100001800E0F9000010
009DF581: 921C49321C3B1C28313A205EF028FC4A 848E73CB5A494A863100001800E0F900
009DF591: 4A0023443200921849032253A05EF0A7 0010848E73CB5A494A863100001800E0
009DF5A1: FB281C97F712EE1521099A890151180B F9000010848E73CB5A494A8631000018
009DF5B1: 25ED01002452198C6314614C63002817 00E0F9000010844D6BCB5A494A863100
009DF5C1: D00121C903884213D200220092094932 001800E0F9000010848E73CB5A494A86
009DF5D1: 1C3B1C34313A205EF002FC4EA2009223 3100001800E0F9000010848E73CB5A49
009DF5E1: 1C064903225AA05EF082FB00200DB0F0 4A863100001800E0F9000010848E73CB
009DF5F1: BDC3E0CA060000F433A3A00220000069 5A494A863100001800E0F9000010848E
009DF601: 6D706C656D656E746174696F6E2F6D6D 73CB5A494A863100001800E00700007F
009DF611: 737569766B2F6D6D65646C6962632E63 00E07F00E07F00E07F00E07F00E07F00
009DF621: 2831373338293A20000000696D706C65 E00C00E0FF41101E00E0FF40201E00E0
009DF631: 6D656E746174696F6E2F6D6D73756976 FF00401D00E0FE411800401D00E0FE00
009DF641: 6B2F6D6D65646C6962632E6328313734 3800301C00E0FD4110016800281C00E0
009DF651: 34293A2000000006800000696D706C65 FD0030017801281B00E0FC4118005041
009DF661: 6D656E746174696F6E2F6D6D73756976 7800181B00E0FC00180188006841181A
009DF671: 6B2F6D6D65646C6962632E6328313735 00E0FC41180150009000601B00E0FC01
009DF681: 33293A2000000028CA9DA0D427A3A069 200078019801601300E0FF42200700E0
009DF691: 6D706C656D656E746174696F6E2F6D6D FC00384190019800481300E0FD004000
009DF6A1: 737569766B2F6D6D65646C6962632E63 5081180400E0FB4118006801A0009800
009DF6B1: 2831373632293A200000002C35A3A069 481200E0FB4110007000B80060412003
009DF6C1: 6D706C656D656E746174696F6E2F6D6D 00E0FB0030019841A0409800381100E0
009DF6D1: 737569766B2F6D6D65646C6962632E63 F641084010407041C041B00078003842
009DF6E1: 2831373734293A20000000696D706C65 40413800680200A0FE009001301100E0
009DF6F1: 6D656E746174696F6E2F6D6D73756976 FD0000C03001980241C0FE41B840A802
009DF701: 6B2F6D6D65646C6962632E6328313737 0070FB00A001A800A8018800201100E0
009DF711: 38293A200000004D6D45645F4F62735F FC00008051009841C80241C0F741B800
009DF721: 536574506172616D73416E6453746172 A840A800B041A800A840884020000010
009DF731: 74436F6E76657273696F6E3A206F6273 00E0F10000403841B041C801C041C041
009DF741: 5F7374617274206661696C6564000069 B840B801B800B041A801A80180C03000
009DF751: 6D706C656D656E746174696F6E2F6D6D 001100E0FE003040C00241C80241C0FE
009DF761: 737569766B2F6D6D65646C6962632E63 41B841B00240B0FC01A8008040180000
009DF771: 2831373930293A20000000002200923B 1100E0FE005840C00241C8FE41C040C0
009DF781: 1C321C3A2059495EF02AFB58A2009223 0241B8FA40B000B041B0006000104108
009DF791: 1C0322654966A05EF0AAFA0999022049 1100E0FA005841D041C840C840C041C0
009DF7A1: 190871012022E708B5011C684648F6D4 0241B8FB41B000B040A8016041101000
009DF7B1: E86A4968469AF71CE8684642F694EB08 E0FD4108000800880241D0F601C841B0
009DF7C1: BDF0B587B0041C00200490201C04A995 4098009801B840B800B041B001488210
009DF7D1: F71AE9002803D00121C903884272D304 1000E0F900004049008841D841D041B8
009DF7E1: 9800286FD005A9201C95F764E8061C20 0058020038FA007841B000B000A00040
009DF7F1: 1C06A995F76CE8051C0323002E4B4F03 41081000E0F00000004101B040D801C8
009DF801: D00120C00386426CD3002D03D00120C0 0060406A01B4C07A0041407841A800A0
009DF811: 03854266D30022009234493A1CAE3103 0030801800000F00E0F00000403000B0
009DF821: 233A205EF0DCFA00AB1A7E0295002503 41D801B08048C18200B401B440930049
009DF831: 924BA200922B1C032201963B494EA05E 006800A04030005A00000F00E0FA8208
009DF841: F056FA0022294900920323AF313A2036 004040C041D800880008020000F84008
009DF851: 4A5EF0C5FA00AB1A7D52A100912B1C01 8018C020802840504030804100001000
009DF861: 920322314952A05EF042FA00AB187E03 E0FC004041D800D000480700E0FC4110
009DF871: 2838D1187D012835D015260499B60189 0010410800081000E0FC006841D00090
009DF881: 190120C863201C97F798EF002803D001 41201900E0FA00000008007001C80040
009DF891: 21C903884227D30B210498C901411804 41081900E0F80000004100A041A08030
009DF8A1: 220A71821995630968002904D0052212 0039C0284010020000FF410002410812
009DF8B1: 0201218018C162002200923A1C03231F 00E0EF0000405900A04168407A01D401
009DF8C1: 21890100E00EE13A205EF089FA43A200 CCC1C3C0BB419BC082406AC051804100
009DF8D1: 922B1C032215494FA05EF009FA012007 31C02000000E00E0EF0000403040C040
009DF8E1: B0F0BD01E1C1E0ACE00000030700004D 20407AC09241A381ABC1BB80B381AB40
009DF8F1: 6D45645F4F62735F536574506172616D 9B0093018BC07AC17A00000F00E0FD00
009DF901: 73416E645374617274436F6E76657273 3000704008034108020000F84010C020
009DF911: 696F6E3A206F62735F73746172745F72 003140398049C051005A00000F00E0FE
009DF921: 65717565737465640000000220000069 005000400A00E0FF8210024108FF4000
009DF931: 6D706C656D656E746174696F6E2F6D6D 0F00E0FE005841181B00E0FB00000008
009DF941: 737569766B2F6D6D65646C6962632E63 0048410882101A00E0F500004069C038
009DF951: 2831373935293A20000000E027A3A04F 008281694051C0388018000800000008
009DF961: 62734572726F72733A204C6976656D6F 024108FF82081100E0FD000040694092
009DF971: 64653A20256900696D706C656D656E74 0281E3F341DB41D301CB01BB81AA4092
009DF981: 6174696F6E2F6D6D737569766B2F6D6D C17980614049C1388028801800000D00
009DF991: 65646C6962632E632831393639293A20 E0EE0000803800418061C071008A419A
009DF9A1: 0000005374617475733A202569000069 81AAC0B2C1B281AA81A2419A4192008A
009DF9B1: 6D706C656D656E746174696F6E2F6D6D 0182C17900001100E0FF4210024108F5
009DF9C1: 737569766B2F6D6D65646C6962632E63 00080000000880188028003100414051
009DF9D1: 2831393730293A200000004D6D45645F 4059805900001B00E0FC420841084008
009DF9E1: 4F62735F53746172744F626A6563744C 00002B00E0FE000000080241081B00E0
009DF9F1: 69666574696D653A2073756365656465 F4000001C380A2018280694051C03880
009DFA01: 642C20726573756D655F726571756573 2840100000010041000241081100E0FC
009DFA11: 74656400000000696D706C656D656E74 000081E340DB41D30201CBF3C1C2C1BA
009DFA21: 6174696F6E2F6D6D737569766B2F6D6D 80B241AA0192807940690051C0408030
009DFA31: 65646C6962632E632831393834293A20 8020401000000C00E0F700008020C038
009DFA41: 000000002200923A1C03233A203A495E 40518061C071C0810192409A0241AAFB
009DFA51: F0C6F900AB1A7D197E38482B1C029200 01A2009AC19180898181024179FF0000
009DFA61: 900191364937A003224DE00022009203 1100E0FD420841084008020000F74010
009DFA71: 243149231C3A1C06313A205EF0B0F900 80208030C038C0480051005901610000
009DFA81: AB1A7D197E3AA000902B1C029201912B 1B00E0024108FE400000002A00E00200
009DFA91: 49032244A05EF02BF900AB187D012810 000341081A00E0F6000041E000B800A0
009DFAA1: D10022009224493A1C231C09313A205E 00800068004800300020000802000002
009DFAB1: F096F9214A2249483200922B1C032244 4108FF41101000E0EC000041F841F041
009DFAC1: A021E0002200921B493A1C231C0D313A E840E041D841D041C841C041B801A801
009DFAD1: 205EF085F9194A1949A03200922B1C03 90007800600048003800280018000800
009DFAE1: 2247A010E00020FAE60022009212493A 000B00E0F20000001800300048006000
009DFAF1: 1C14313A205EF073F9104A0023F83200 700080009040A000B041B040A840A041
009DFB01: 920F49032249A05EF0F2F8EBE7FEB505 98024090FC01884180417800001000E0
009DFB11: 1C00200290281C02A994F776EF002803 FF4110024108020000F6000800180028
009DFB21: D00121C903884202D30298002801D100 00380048005001580060416800001A00
009DFB31: 20FEBD90E00000C9070000C035A3A002 E0FF42080241080200002900E0FD0000
009DFB41: 200000696D706C656D656E746174696F 01000000024108FF81081900E0F60000
009DFB51: 6E2F6D6D737569766B2F6D6D65646C69 01800068016000480038002800200010
009DFB61: 62632E632831393933293A200000004D 00080200000341081000E0FB00000188
009DFB71: 6D45645F4F62735F53746172744F626A 408000800178020070FF0068020060FA
009DFB81: 6563744C69666574696D653A206C6976 005800480038003000280020020010FF
009DFB91: 656D6F64653D25642C20737461747573 00080200000A00E0F700000008001000
009DFBA1: 3D256400000000696D706C656D656E74 20002800380040004800500200580200
009DFBB1: 6174696F6E2F6D6D737569766B2F6D6D 50FF0148020040020038FD0030002800
009DFBC1: 65646C6962632E632831393939293A20 001000E0024108FF0100020000FD0008
009DFBD1: 000000696D706C656D656E746174696F 00100018030020030028FF00001900E0
009DFBE1: 6E2F6D6D737569766B2F6D6D FC8110410840084108030000


; ##### Picture 523 #####
00DA107C: 1F0E8800148AE3A0 1F8E8800EDFB9DA0

009DFBED: 65646C6962632E632832303032293A20 7F00E07F00E07F00E07F00E06300E0FD
009DFBFD: 000000696D706C656D656E746174696F 084200E041081C00E0FD0C63D39CCF7B
009DFC0D: 6E2F6D6D737569766B2F6D6D65646C69 1D00E0FA0C6379CE3CE79294494A8631
009DFC1D: 62632E632832303036293A2000000069 1900E0F84108C73979CEBEF7FFFFB6B5
009DFC2D: 6D706C656D656E746174696F6E2F6D6D 10848A521800E0F84108C31875ADBEF7
009DFC3D: 737569766B2F6D6D65646C6962632E63 FFFFBEF779CE8E731700E0F84108C318
009DFC4D: 2832303133293A200000001522920182 518C7DEFFFFFBAD6CF7B45291800E0FA
009DFC5D: 18012191630B22D20181180B68002400 518C7DEFBEF7FFFFBAD6CB5A1A00E0F9
009DFC6D: 2B03D005231B02C318DC620969032600 4D6BB6B5BAD67DEF18C64D6B41081800
009DFC7D: 29444F2FD1281C97F7D8EC002812D001 E0F7410800E08A52518CB6B5BAD69294
009DFC8D: 21C90388420ED200220092331C3A1C3A 00E041081A00E0FBC739CB5AD39CF7BD
009DFC9D: 203D495EF09EF83CA200920322231C39 04211E00E0FF0C637F00E07F00E07F00
009DFCAD: 1C46A045E00B220299D20189180A2008 E03000E00300001B00E0FB00008E73CB
009DFCBD: 710022009234493A1C331C06313A205E 5A494A00001900E0F9000010848E73CB
009DFCCD: F088F848A20092231C03222D4954A05E 5A494A863100001800E0F9000010848E
009DFCDD: F008F81BE06F21890140180079002817 73CB5A494A863100001800E0F9000010
009DFCED: D00022009228493A1C331C13313A205E 848E73CB5A494A863100001800E0F900
009DFCFD: F070F8554A231C00920322214954A05D 0010848E73CB5A494A863100001800E0
009DFD0D: F0F0FF0B200299C20189180871012009 F9000010848E73CB5A494A8631000018
009DFD1D: E7002200921C493A1C331C19313A205E 00E0F9000010844D6BCB5A494A863100
009DFD2D: F058F8494A174950320092231C032252 001800E0F9000010848E73CB5A494A86
009DFD3D: A05DF0D7FFF5E6F0B589B0051C00200C 3100001800E0F9000010848E73CB5A49
009DFD4D: 1C0890281C08A994F758EE0326002700 4A863100001800E0F9000010848E73CB
009DFD5D: 2803D00121C903884202D3089800280F 5A494A863100001800E0F9000010848E
009DFD6D: D100220849331C39310092054A3A205E 73CB5A494A863100001800E00700007F
009DFD7D: F030F84CA200923B1C0322014956A019 00E01200E0F90000C002C00100014000
009DFD8D: E1BFE002200000040800004D6D45645F 00000008024108FF42101500E0F60000
009DFD9D: 4F62735F53746F704F626A6563744C69 E10F6107A1060106210D000400034002
009DFDAD: 666574696D653A204F62735F73746F70 00001500E0F600002005600DA10DE10D
009DFDBD: 206661696C656400000000696D706C65 A00DC004410CC10300001500E0FD4210
009DFDCD: 6D656E746174696F6E2F6D6D73756976 41104108020000FB4000C00000014101
009DFDDD: 6B2F6D6D65646C6962632E6328323035 00001E00E0FF81105200E0FB0000400B
009DFDED: 32293A200000004D6D45645F4F62735F 40024001C000030000FE410842101500
009DFDFD: 53746F704F626A6563744C6966657469 E0F50000E10F610FE00E610EE115800C
009DFE0D: 6D653A2073756365656465642C207374 C00BC00A010A00001400E0F50000800C
009DFE1D: 6F705F72657175657374656400000069 200D610DA10DE115610D81144114C00B
009DFE2D: 6D706C656D656E746174696F6E2F6D6D 00001500E0FE42084108030000FB8000
009DFE3D: 737569766B2F6D6D65646C6962632E63 00014001800900001E00E0FF82083200
009DFE4D: 2832303538293A200000000037A3A069 E0FF41081E00E0F601008053C03AC029
009DFE5D: 6D706C656D656E746174696F6E2F6D6D 0019400000000008400841081500E0F4
009DFE6D: 737569766B2F6D6D65646C6962632E63 0000E1AF61A7E19E6196018E617D4164
009DFE7D: 2832303731293A20000000696D706C65 4053803A003200001300E0F40000005C
009DFE8D: 6D656E746174696F6E2F6D6D73756976 816C2175A17DA185A07D2075816C0064
009DFE9D: 6B2F6D6D65646C6962632E6328323037 C05B00001400E0FF4210024108F80100
009DFEAD: 37293A200000004D6D45645F4F62735F 00004008C01040198021C02900001D00
009DFEBD: 4368616E6765566F6C756D653A204F62 E0FE411000101E00E0FF41201200E0FE
009DFECD: 735F476574436C69656E744461746120 410882080900E00241101200E0FA0000
009DFEDD: 6661696C656400696D706C656D656E74 005C004B403240218010020000034108
009DFEED: 6174696F6E2F6D6D737569766B2F6D6D FE001800101200E0F30000E1AF60A721
009DFEFD: 65646C6962632E632832313039293A20 A7A19E0096E18DC07CC0630153002100
009DFF0D: 000000201C7EF72EE90106090E281CB7 4800081200E0F30000C0534064C16C20
009DFF1D: F740ED3049884215D105210898090240 7DA185E18D6185C0848163C028005800
009DFF2D: 18446300220092331C3A202B4A2C495D 001400E0034108020000FD80080019C0
009DFF3D: F050FF2BA200923B1C0322274937A05D 18020038FF00081B00E0FC4108006000
009DFF4D: F0D0FE21E0002822D100222449331C06 3841081B00E0FD0030008801281200E0
009DFF5D: 310092214A3A205DF03CFF3AA200923B FE410842080700E0FC41100068008800
009DFF6D: 1C03221D4947A05DF0BCFE3B1C0A224F 281200E0F30000808C806B8052C03900
009DFF7D: 4901A8C9F6BAEA01A842F052E803DF00 21400800000100002840800188012812
009DFF8D: 220A204B4946F7FEEF012009B0F0BD01 00E0F2000061E761EF20DFA1D661CEE1
009DFF9D: 21C903884210D200221149331C113100 BD20A5404A4048419000880018000011
009DFFAD: 920E4A3A205DF015FF43A200923B1C0A 00E0F200088039406B808CC09C61ADA1
009DFFBD: 4903224DA05DF095FE0020E6E710B504 B521A5C028008001A00070C030000011
009DFFCD: 1C012202210020F5F664EAA04201D202 00E0FD411801600020024108F7400800
009DFFDD: 2010BDA0E00000068000000220000046 00400000484098009800688020000011
009DFFED: 0800004D6D45645F4F62735F4368616E 00E0FC001041A0009041200300E0F941
009DFFFD: 6765566F6C756D653A204F62735F536F 18006040A041A00160001041081100E0
009E000D: 756E645F536574566F6C756D65207265 F3013000A000C040880148421800E000
009E001D: 7175657374656400000000696D706C65 28418800A800A0005841101100E0FA41
009E002D: 6D656E746174696F6E2F6D6D73756976 08002800C041C001B840A8020060FA41
009E003D: 6B2F6D6D65646C6962632E6328323131 9000A040A801A0005841101100E0FA00
009E004D: 38293A200000004D6D45645F4F62735F 00405000C041C841C040C00241B0FE00
009E005D: 4368616E6765566F6C756D653A207379 A841B00240A8FE003841101100E0FC00
009E006D: 6E6368726F6E6F75732066696E697368 00405000C041C80241C00241B8F901B0
009E007D: 656420696E73746561642070656E6469 41B000A840980040C01800001000E0FC
009E008D: 6E6700696D706C656D656E746174696F 0000006840C041C80341C0FF41B80240
009E009D: 6E2F6D6D737569766B2F6D6D65646C69 B0FB41B000984028806200001000E0F1
009E00AD: 62632E632832313234293A2000000028 4108008041C801C841C841C040C041B8
009E00BD: CA9DA0D427A3A04D6D45645F4F62735F 40B001B000B001904028803900001000
009E00CD: 4368616E6765566F6C756D653A204F62 E0FE412000880241D0F741C801C840C0
009E00DD: 735F536F756E645F536574566F6C756D 41B840B801B040B04090002002410810
009E00ED: 65206661696C6564000000696D706C65 00E0F3411800B041D040C840C0018801
009E00FD: 6D656E746174696F6E2F6D6D73756976 8041B040B841B801B0419000181100E0
009E010D: 6B2F6D6D65646C6962632E6328323133 FA4108002841B041D041C04088024138
009E011D: 35293A20000000012204210020F5F6BA FA006841A801B841B0007041181100E0
009E012D: E9042010BDF0B5FFB09AB00E1C4CA981 F20000003000D841D841B04038802800
009E013D: 2247A850F265FB041C01A8812206A950 180010004841A001B0017040101100E0
009E014D: F25FFB051C321C011C201C77F7C0E98D FE000080580240D0F40088805901BC41
009E015D: AAFF235B330092211C281C464A81F7CA BC4093C0594050409000588020C02000
009E016D: EA7FB01AB0F0BDF0B50D22D201841888 000F00E0F90000405800D041C8405000
009E017D: 88002703260728256885B071D014DC04 5AC0AB0201B4F9C1A3C0598148005881
009E018D: 2824D005286DD006286CD10022009233 41807200000F00E0FA4110006841D800
009E019D: 1C3A20394A3A495DF01CFE39A200923B A000204108020000FE4008801802C020
009E01AD: 1C0322354944A07AE111285BD1002233 FC4038C028C05100000F00E0FC411000
009E01BD: 49331C04310092304A3A205DF00AFE48 8840D001600800E00441080F00E0FC41
009E01CD: A200923B1C03222C4950A068E103A904 20008800B841281A00E0FB0000001840
009E01DD: A849F612ED03980022411BE060216027 C0008041181A00E0F80000C05000B040
009E01ED: 49331C0B390092244A3A205DF0F2FD51 500041404100294010020000FC410842
009E01FD: A200923B1C0322204958A05DF072FD00 08410882081100E0FC0000404040A040
009E020D: 221F49331C0A3900921C4A3A205DF0E1 490241DCF501CCC1C3C1BB419BC08240
009E021D: FD039A5CA000903B1C0292032262A001 6AC05940410031C02000000E00E0EF00
009E022D: 9516495DF05EFD00221549331C093900 000048405840418082C09240A381ABC1
009E023D: 92124A3A205DF0CDFD226865A100913B BB80B381AB419B0193018BC082C17200
009E024D: 1C019203220D4966A05DF04BFD00220B 000F00E0FC0060002841084208024108
009E025D: 49331C07390092084A3A205DF0BAFD02 F6010000004010C020003140398049C0
009E026D: E0FFE00DE11DE169A200923B1C032202 51005A00000F00E0FE006881100A00E0
009E027D: 4971A014E100000942000002200000EF FF8210024108FF00000E00E0FE411041
009E028D: 0800004D6D45645F536F756E6441455F 381C00E0FC00000020000041081B00E0
009E029D: 48616E646C654576656E743A204D5F53 F70000C048C071008A81694051C03880
009E02AD: 41455F504C41594241434B5F4E455854 204008020000024108FF82081100E0EE
009E02BD: 4359434C450000696D706C656D656E74 0000009A41D381EB80E340D341D301C3
009E02CD: 6174696F6E2F6D6D737569766B2F6D6D 01BB80AA4192C17980614049C1388020
009E02DD: 65646C6962632E632832323837293A20 801800000D00E0EE0000802800498061
009E02ED: 0000004D6D45645F536F756E6441455F C179008A409A81AAC0B2C1B281AA81A2
009E02FD: 48616E646C654576656E743A20536F75 419A4192008A0182C17900001100E0FF
009E030D: 6E642073746F7070656400696D706C65 4208024108F540000000000840188028
009E031D: 6D656E746174696F6E2F6D6D73756976 0031004140514059805900001B00E0FC
009E032D: 6B2F6D6D65646C6962632E6328323239 42084108000800002B00E0FE00000008
009E033D: 31293A200000004D5F5341455F504C41 0241081B00E0F4000000C380A2008280
009E034D: 594241434B5F53544152544544207265 694051C0388028401000000100410002
009E035D: 6365697665642E00000000696D706C65 41081100E0FC000081E340DB41D30201
009E036D: 6D656E746174696F6E2F6D6D73756976 CBF3C1C2C1BA80B241AA019280794061
009E037D: 6B2F6D6D65646C6962632E6328323237 0051C04080304020401001000C00E0F7
009E038D: 36293A2000000053746172742D546963 00008020C03840518061C071C0810192
009E039D: 6B733A2025642C20456E642D5469636B 409A0241AAF801A2009AC19180898181
009E03AD: 73202564000000696D706C656D656E74 4179417100001100E0FD420841084008
009E03BD: 6174696F6E2F6D6D737569766B2F6D6D 020000F7401080208030C038C0480051
009E03CD: 65646C6962632E632832323737293A20 0059006100001B00E0024108FE410000
009E03DD: 00000044656C61792D5469636B733A20 002A00E00200000341081A00E0F60000
009E03ED: 256400696D706C656D656E746174696F 41E000C000A001800068004800300020
009E03FD: 6E2F6D6D737569766B2F6D6D65646C69 0008020000FD4108420841081000E0EC
009E040D: 62632E632832323738293A200000004D 000041F841F041E840E041D841D041C8
009E041D: 6D45645F536F756E6441455F48616E64 41C041B801A801900078006000500038
009E042D: 6C654576656E743A20536F756E642073 00280018000800000B00E0F200000018
009E043D: 74617274656400696D706C656D656E74 00300048006000700080009040A000B0
009E044D: 6174696F6E2F6D6D737569766B2F6D6D 41B040A840A04198024090FC00804180
009E045D: 65646C6962632E632832323830293A20 417800001000E0FF4110024108020000
009E046D: 00000000220092331C3A20374A38495D F6000800180028003800480050015800
009E047D: F0B0FC37A200923B1C032233493FA00E 60016800001A00E0FD42084108410002
009E048D: E000223249331C043100922F4A3A205D 00002900E0FD000001000000024108FF
009E049D: F0A0FC44A200923B1C2C4903224DA05D 81081900E0F600000180006801600048
009E04AD: F020FC05B0F0BDF0B5061CFFB096B00F 00380028002000100008020000034108
009E04BD: 1C4EA9812249A850F2A3F9041C03A881 1000E0FB000001884080008001780200
009E04CD: 2208A950F29DF9051C321C011C201C76 70FF0068020060FA0058004800380030
009E04DD: F7FEEF052212020020012193919490BA 00280020020010FF00080200000A00E0
009E04ED: 18126B9190929280AB9987FF218FAA01 F7000000080010002000280038004000
009E04FD: 925B3190900091221C291C0C20404B80 480050020058020050FF014802004002
009E050D: F76CEC7FB016B0F0BD80B580F766EF80 0038FD0030002800001000E0024108FF
009E051D: BDFEB50C1C0121029105210902451829 0100020000FD00080010001803002003
009E052D: 6B00270326A1420FD100220849331C50 0028FF00001900E0FC81104108400841
009E053D: 31009205 08030000


; ##### Picture 524 #####
00DA1084: 1F0E8800B48AE3A0 1F8E880041059EA0

009E0541: 4A3A205DF04CFC31A200923B1C032201 7F00E07F00E07F00E07F00E07F00E023
009E0551: 493EA084E18FE002200000F70800004D 00E00300001B00E0F900008A523CE7CF
009E0561: 6D45645F536F756E6441455F48616E64 7B00E0000041081800E0FF000002FFFF
009E0571: 6C654576656E743A20536F756E642064 FC10847DEF34A500001800E0FF000002
009E0581: 6F6E6500000000696D706C656D656E74 FFFF020000FCFFFF86310000CB5A0200
009E0591: 6174696F6E2F6D6D737569766B2F6D6D 001400E0FD000034A5FFFF02000002FF
009E05A1: 65646C6962632E632832323935293A20 FFFC0000FFFF7DEF00000241081200E0
009E05B1: 0000004D6D45645F536F756E6441455F FB41080000FFFFCF7B821002FFFFFA00
009E05C1: 48616E646C654576656E743A20504C41 0034A5FFFF0000C31875AD1300E0FA00
009E05D1: 594241434B204552524F522021000069 0000E010847DEFFFFF18C6020000FC82
009E05E1: 6D706C656D656E746174696F6E2F6D6D 1010843CE78A521500E0020000F8CB5A
009E05F1: 737569766B2F6D6D65646C6962632E63 00004108CB5A7DEFCF7BC31800001900
009E0601: 2832323939293A20000000094200004D E0FA410834A582100000FFFF34A51900
009E0611: 6D45645F536574536F756E64566F6C75 E0034108FD00003CE7FFFF1C00E00200
009E0621: 6D653A2073616D6520766F6C756D6520 00FF8A527F00E07F00E07100E0030000
009E0631: 726571756573746564206C696B652061 1B00E0FB00008E73CB5A494A00001900
009E0641: 6C72656164792073657400696D706C65 E0F9000010848E73CB5A494A86310000
009E0651: 6D656E746174696F6E2F6D6D73756976 1800E0F9000010848E73CB5A494A8631
009E0661: 6B2F6D6D65646C6962632E6328323337 00001800E0F9000010848E73CB5A494A
009E0671: 35293A20000000E96A002941D00B21C9 863100001800E0F9000010848E73CB5A
009E0681: 014118096800293CD1232149014018C0 494A863100001800E0F9000010848E73
009E0691: 8B002825D0211C80F7BAEC002810D000 CB5A494A863100001800E0F900001084
009E06A1: 222C630092331C3A20174A17495DF097 4D6BCB5A494A863100001800E0F90000
009E06B1: FB17A100913B1C03221349019422A0CE 10848E73CB5A494A863100001800E0F9
009E06C1: E000221149331C053100920E4A3A205D 000010848E73CB5A494A863100001800
009E06D1: F086FB27A200923B1C03220A4931A0D1 E0F9000010848E73CB5A494A86310000
009E06E1: E000220949331C0B310092064A3A205D 1800E0F9000010848E73CB5A494A8631
009E06F1: F076FB36A200923B1C0322024941A0C1 00001800E00700007F00E07F00E07F00
009E0701: E0C4E094E0000002200000580900004D E07F00E07F00E07F00E07F00E07F00E0
009E0711: 6D45645F536574536F756E64566F6C75 7F00E07F00E07F00E07F00E07F00E07F
009E0721: 6D653A20536F756E6441455F53657456 00E07F00E07F00E07F00E07F00E07F00
009E0731: 6F6C756D6520746F2025642073756365 E04D00E0FD000001000000024108FF81
009E0741: 65646564000000696D706C656D656E74 081900E0F60000018000680160004800
009E0751: 6174696F6E2F6D6D737569766B2F6D6D 38003000200010000802000003410810
009E0761: 65646C6962632E632832333932293A20 00E0FB00000188408000800178020070
009E0771: 0000004D6D45645F536574536F756E64 FF0068020060FA005800480040003000
009E0781: 566F6C756D653A20536F756E6441455F 280020020010FF00080200000A00E0F8
009E0791: 536574566F6C756D65206661696C6564 00000008001000200028003800400048
009E07A1: 000000696D706C656D656E746174696F 020050FF0058020050FF014802004002
009E07B1: 6E2F6D6D737569766B2F6D6D65646C69 0038FD0030002800001000E0024108FF
009E07C1: 62632E632832333937293A200000004D 4000020000FD00080010001803002003
009E07D1: 6D45645F536574536F756E64566F6C75 0028FF00001900E0FC81104108400841
009E07E1: 6D653A20 08030000


; ##### Picture 525 #####
00DA108C: 1F0E8800288BE3A0 1F8E8800E5079EA0

009E07E5: 6661696C65642064756520746F205341 7F00E07F00E07F00E07F00E07F00E022
009E07F5: 455F48646C203D204E554C4C00000069 00E0FE00008A520200001B00E0F90000
009E0805: 6D706C656D656E746174696F6E2F6D6D FFFF3CE7CF7B00E0000041081800E0FF
009E0815: 737569766B2F6D6D65646C6962632E63 000002FFFFFB10847DEF34A5C7394108
009E0825: 2832343033293A200000001521890140 1700E0F7000034A5FFFFCF7B8210CB5A
009E0835: 18006A211CFFF783FA002812D000222C 18C60000CB5A0200001400E0F541088A
009E0845: 630092331C3A202D4A2E495DF0C6FA2D 52C31810847DEF34A586310000FFFF7D
009E0855: A200923B1C2A49032239A05DF046FA01 EF00000241081200E0FB410875AD3CE7
009E0865: 20FEBD00222749331C05310092244A3A CF7B821002FFFFFA000034A5FFFF0000
009E0875: 205DF0B3FA3DA200923B1C2049032247 C31875AD1200E0FB4108000000E01084
009E0885: A05DF033FA0020EBE700221D492C6333 7DEF02FFFF020000FC821010843CE78A
009E0895: 1C0D3100921A4A3A205DF09FFA4BA200 521500E0020000F8CB5A18C60000CB5A
009E08A5: 923B1C0322164952A05DF01FFA0298D7 7DEFCF7BC31800001700E0034108FB34
009E08B5: E7FEB5141C052212028018026B002601 A582100000FFFF34A51900E0034108FD
009E08C5: 25032300290E48226016D0042A15DA01 00003CE7FFFF1C00E0020000FF8A527F
009E08D5: 322260002200920A49021C2A313A205D 00E07F00E07100E00300001B00E0FB00
009E08E5: F07CFA22684EA0511E0191331C009002 008E73CB5A494A00001900E0F9000010
009E08F5: 92032258A00249E8E0D1E0C2E0000002 848E73CB5A494A863100001800E0F900
009E0905: 2000006E0900004D6D45645F53657453 0010848E73CB5A494A863100001800E0
009E0915: 6F756E64566F6C756D653A204D6D4564 F9000010848E73CB5A494A8631000018
009E0925: 5F4F62735F4368616E6765566F6C756D 00E0F9000010848E73CB5A494A863100
009E0935: 65207265717565737465640000000069 001800E0F9000010848E73CB5A494A86
009E0945: 6D706C656D656E746174696F6E2F6D6D 3100001800E0F9000010844D6BCB5A49
009E0955: 737569766B2F6D6D65646C6962632E63 4A863100001800E0F9000010848E73CB
009E0965: 2832343134293A200000004D6D45645F 5A494A863100001800E0F9000010848E
009E0975: 536574536F756E64566F6C756D653A20 73CB5A494A863100001800E0F9000010
009E0985: 4D6D45645F4F62735F4368616E676556 848E73CB5A494A863100001800E0F900
009E0995: 6F6C756D65206661696C656400000069 0010848E73CB5A494A863100001800E0
009E09A5: 6D706C656D656E746174696F6E2F6D6D 0700007F00E07F00E07F00E07F00E07F
009E09B5: 737569766B2F6D6D65646C6962632E63 00E07F00E07F00E07F00E07F00E07F00
009E09C5: 2832343139293A200000004D6D45645F E07F00E07F00E07F00E07F00E07F00E0
009E09D5: 536574536F756E64566F6C756D653A20 7F00E07F00E07300E00200000341081A
009E09E5: 536F756E64206E6F742072756E6E696E 00E0F6000041E000B800A00080006800
009E09F5: 670000696D706C656D656E746174696F 48003000200008020000024108FF4110
009E0A05: 6E2F6D6D737569766B2F6D6D65646C69 1000E0EC000041F841F041E840E041D8
009E0A15: 62632E632832343237293A200000004D 41D041C841C041B801A8019000780060
009E0A25: 6D45645F4576616C75617465536F756E 0048003800280018000800000B00E0F2
009E0A35: 64566F6C756D653A20696E6372656173 00000018003000480060007000800090
009E0A45: 6520766F6C756D652066726F6D202564 40A000B041B040A840A04198024090FC
009E0A55: 20746F20256400696D706C656D656E74 01884180417800001000E0FF41100241
009E0A65: 6174696F6E2F6D6D737569766B2F6D6D 08020000F60008001800280038004800
009E0A75: 65646C6962632E632832343536293A20 5001580060416800001A00E0FF420802
009E0A85: 00000000220092021C3A2029495DF0A5 41080200002900E0FD00000100000002
009E0A95: F9294A331C00920322284928A027E000 4108FF81081900E0F600000180006801
009E0AA5: 2A16DD013A2260002200922149021C0A 60004800380030002000100008020000
009E0AB5: 313A205DF092F922682CA0511C01911E 0341081000E0FB000001884080008001
009E0AC5: 49331C00900292032236A05DF00EF911 78020070FF0068020060FA0058004800
009E0AD5: E0002200921749021C0E313A205DF07D 40003000280020020010FF0008020000
009E0AE5: F9154A15494C320092331C032238A05D 0A00E0F8000000080010002000280038
009E0AF5: F0FCF80025281CFEBD98B5011C002403 00400048020050FF0058020050FF0148
009E0B05: 2300290D4813D1002200920949021C22 020040020038FD0030002800001000E0
009E0B15: 313A205DF062F938A20092231C032206 024108FF4000020000FD000800100018
009E0B25: 4944A05DF0E2F80C207DF764EC98BD96 030020030028FF00001900E0FC811041
009E0B35: E000009C09000094 0840084108030000


; ##### Picture 526 #####
00DA1094: 1F0E8800B88BE3A0 1F8E88003D0B9EA0

009E0B3D: 37A3A002200000696D706C656D656E74 7F00E07F00E07F00E07F00E07F00E003
009E0B4D: 6174696F6E2F6D6D737569766B2F6D6D 41081B00E0FB41088631F7BD8A520000
009E0B5D: 65646C6962632E632832343630293A20 1A00E0FE410879CE02FFFF020000FD00
009E0B6D: 0000004D6D45645F4576616C75617465 E0000041081600E0FE4108000002FFFF
009E0B7D: 536F756E64566F6C756D653A20646563 FB0000CF7BFFFF34A5C7390241081500
009E0B8D: 726561736520766F6C756D652066726F E0FF000002FFFFFF000002FFFFFFCB5A
009E0B9D: 6D20256420746F20256400696D706C65 0218C6FF00001500E0FF000002FFFFFF
009E0BAD: 6D656E746174696F6E2F6D6D73756976 000002FFFF020000FAFFFFCB5A000010
009E0BBD: 6B2F6D6D65646C6962632E6328323437 8400E000001100E0FA0000C73975AD00
009E0BCD: 30293A20000000696D706C656D656E74 001084FFFF02000002FFFFFF000002FF
009E0BDD: 6174696F6E2F6D6D737569766B2F6D6D FF020000FF41081000E0034108FC0000
009E0BED: 65646C6962632E632832343734293A20 7DEF34A5863102FFFFFA0000CF7B3CE7
009E0BFD: 0000004D6D45645F4576616C75617465 0000084279CE1300E0020000FCCB5A18
009E0C0D: 566F6C756D65546F67676C696E673A20 C6FFFF34A5020000FCC31875AD18C686
009E0C1D: 6576616C75617465642023756E6D7574 311500E0F64108000086310000410810
009E0C2D: 6523206361736500000000696D706C65 843CE78A52C73900001A00E0FFCF7B02
009E0C3D: 6D656E746174696F6E2F6D6D73756976 0000FEFFFF79CE1C00E0FD0000F7BDFF
009E0C4D: 6B2F6D6D65646C6962632E6328323439 FF1C00E0FF41080200007F00E07F00E0
009E0C5D: 34293A2000000000220092021C3A205C 5200E00300001B00E0FB00008E73CB5A
009E0C6D: 495DF0B7F85CA20092231C0322674967 494A00001900E0F9000010848E73CB5A
009E0C7D: A05DF037F8002055E7F0B5FFB0FFB0B1 494A863100001800E0F9000010848E73
009E0C8D: B0041CFFAB84330020D862E5A88122EA CB5A494A863100001800E0F900001084
009E0C9D: A94FF2B6FDE4909EA88122A3A94FF2B0 8E73CB5A494A863100001800E0F90000
009E0CAD: FD061C58A881225DA94FF2AAFD579011 10848E73CB5A494A863100001800E0F9
009E0CBD: A8812216A94FF2A4FD071C201CF6F711 000010848E73CB5A494A863100001800
009E0CCD: FF051C09A877F772EB012008AB1877E4 E0F9000010844D6BCB5A494A86310000
009E0CDD: 98FFAB0990012010900D208001201884 1800E0F9000010848E73CB5A494A8631
009E0CED: 330B979863806812F1DBFB45210901FF 00001800E0F9000010848E73CB5A494A
009E0CFD: AB84336118596323214901611819636D 863100001800E0F9000010848E73CB5A
009E0D0D: 211922920189016118A71801280FD002 494A863100001800E0F9000010848E73
009E0D1D: 285BD003285AD10723EA56342338695A CB5A494A863100001800E00700007F00
009E0D2D: 438018007AA8721A2851D00020D4E013 E07F00E07F00E07F00E07F00E07F00E0
009E0D3D: 20A87205200870287A6872A88C5AF77C 7F00E07F00E07F00E07F00E07F00E07F
009E0D4D: ED0D900823E9563423386959434018C1 00E07F00E07F00E07F00E07F00E01A00
009E0D5D: 6AA06A331C0069579A02F0D0FD002824 E0FE00000008024108FF41101A00E0F5
009E0D6D: D00A9609980B99579A76F7B2EB00280C 000000C380A200828069405100398028
009E0D7D: D0FFAB84330120D862196B887B042827 4010000001000341081100E0FC000081
009E0D8D: D1596B08233869C956D0E00022114900 E340DB41D30201CBF3C1C2C1BA80B241
009E0D9D: 92032355313A201C4A5DF01BF827A200 AA0192807940690051C0408030802040
009E0DAD: 9200230322194934A028E10022512149 1000000C00E0F000008020C038405180
009E0DBD: 01009203233A20144A5DF00BF83A4A00 61C071C0810192409A41AA40AA01A200
009E0DCD: 2300920322114938A018E1DCE007E182 9AC19181898181024179FF00001100E0
009E0DDD: E0B6E0C40900004D6D45645F4576616C FD420841080008020000F74010402080
009E0DED: 75617465566F6C756D65546F67676C69 30C140C04800510059016100001B00E0
009E0DFD: 6E673A206576616C756174656420236D 024108FE400000002A00E00200000341
009E0E0D: 75746523206361736500000220000069 081A00E0F6000041E000B800A0008000
009E0E1D: 6D706C656D656E746174696F6E2F6D6D 680048003000200008020000024108FF
009E0E2D: 737569766B2F6D6D65646C6962632E63 41101000E0EC000041F841F041E840E0
009E0E3D: 2832353030293A200000004D6D45645F 41D841D041C841C041B801A801900078
009E0E4D: 4F70656E436F6E74656E74496E417070 00600048003800280018000800000B00
009E0E5D: 6C69633A204572726F722066726F6D20 E0F20000001800300048006000700080
009E0E6D: 57537472696E67536166655F53706C69 009040A000B041B040A840A041980240
009E0E7D: 7450617468202100000000696D706C65 90FC01884180417800001000E0FF4110
009E0E8D: 6D656E746174696F6E2F6D6D73756976 024108020000F6000800180028003800
009E0E9D: 6B2F6D6D65646C6962632E6328323538 48005001580060416800001A00E0FF42
009E0EAD: 35293A200000002838A3A0696D706C65 080241080200002900E0FD0000010000
009E0EBD: 6D656E746174696F6E2F6D6D73756976 00024108FF81081900E0F60000018000
009E0ECD: 6B2F6D6D65646C6962632E6328323539 68016000480038002800200010000802
009E0EDD: 32293A2000000001200870E879687228 00000341081000E0FB00000188408000
009E0EED: 8D5AF7AAEC0D900723E9563423386959 800178020070FF0068020060FA005800
009E0EFD: 434018C16AA06A331C0069579A02F0FE 480038003000280020020010FF000802
009E0F0D: FC002830D00A9609980B99579A76F7E0 00000A00E0F700000008001000200028
009E0F1D: EA002819D0FFAB84330120D862196B48 0038004000480050020058020050FF01
009E0F2D: 7B04280DD1596B07233869C956342359 48020040020038FD0030002800001000
009E0F3D: 4301224018C16AA06A12070069DDF0CB E0024108FF0100020000FD0008001000
009E0F4D: FB09A877F7FCE95BE00022009203233A 18030020030028FF00001900E0FC8110
009E0F5D: 20E24AE2495CF03DFF 410840084108030000


; ##### Picture 527 #####
00DA109C: 1F0E8800548CE3A0 1F8E8800660F9EA0

009E0F66: E24A002300920322DE49E0A04AE00022 7F00E07F00E07F00E07F00E01E00E003
009E0F76: DD490092032307313A20D94A5CF02DFF 41081C00E0FD410879CE0C630200001A
009E0F86: E64A002300920322D649E4A03AE00522 00E0F800008631D39CBEF7518C00E000
009E0F96: 06A901A84FF238FC051C00214FF262FE 0041081700E0F8000079CE0C6341088E
009E0FA6: A06A818D281C4FF246FDE74AE8A1301C 73FFFFB6B500001700E0FF000002FFFF
009E0FB6: 4FF262F80122291C301CB9F248FC97F0 FEBEF7518C02FFFF020000FF4D6B0200
009E0FC6: E2F9051CFFAB8433986B806812F1DEFE 00FF41081200E0FF000002FFFFFA4108
009E0FD6: A8606E60A06A291C21F0E8FA01218902 8E73FBDEFFFF0000BAD602FFFFFD9294
009E0FE6: 6118C86010E00022BF49009203233131 042100001100E0F800004529D39CBEF7
009E0FF6: 3A20BB4A5CF0F1FED6A200920023B849 518C0421494A000002FFFFF900004D6B
009E1006: 0322DFA05CF071FEFFAB8433D86A7FB0 FFFF00004108000041080F00E0F94108
009E1016: 7FB031B0F0BDF0B5FFB0B4B0061CF6F7 000041088E73FBDEB6B5000002FFFF02
009E1026: 64FD051C68A881226DA94FF2EDFB6790 0000FAFFFFB6B50000FBDE8E73000011
009E1036: 21A8812226A94FF2E7FB041C19A80622 00E0020000FC494A00000421FFFF0200
009E1046: 1EA94FF2E1FB071C6846A1F738EC0520 0002FFFFFF000002FFFF020000FF8631
009E1056: 00AB18700D2080013018B290806812F1 1300E0FC00009294FFFF929402FFFFFA
009E1066: 23FA012189027118B1916D2292011921 0000C318518C4108D39CBAD61400E002
009E1076: 8901B21871180128B0920FD0022871D0 0000FD4D6BBAD60842020000FC8E73BE
009E1086: 032870D10723EA56342308695A438018 F70C6300001600E0034108FA0000FBDE
009E1096: 007AA8721A2839D0002038E01320A872 518C0000D39C45291900E0FE000000E0
009E10A6: B09A022010700823E856342368720969 02000002FFFF1C00E0FD00000C6379CE
009E10B6: 58430818C16AB06A231C0069679A02F0 1D00E00200007F00E07F00E07100E003
009E10C6: 21FC00284FD0A88CAEA95AF7EAE90028 00001B00E0FB00008E73CB5A494A0000
009E10D6: 12D0AEA9381C4EF2CFFF201C4FF2FAF8 1900E0F9000010848E73CB5A494A8631
009E10E6: 011C2E22201C4FF24BFAB049884207D0 00001800E0F9000010848E73CB5A494A
009E10F6: 01380140201C01E00021381C4FF2B2FD 863100001800E0F9000010848E73CB5A
009E1106: 179467981897169001203DE00120B09A 494A863100001800E0F9000010848E73
009E1116: 07231070E85634236872096958430818 CB5A494A863100001800E0F900001084
009E1126: C16AB06A231C0069679A02F0EBFB0028 8E73CB5A494A863100001800E0F90000
009E1136: 19D0288DAEA95AF7B4E9002815D0AEA9 10844D6BCB5A494A863100001800E0F9
009E1146: 381C4EF299FF201C4FF2C4F8011C2E22 000010848E73CB5A494A863100001800
009E1156: 201C4FF215FA954988420AD001380140 E0F9000010848E73CB5A494A86310000
009E1166: 201C01E016E01FE001E00021381C4FF2 1800E0F9000010848E73CB5A494A8631
009E1176: 79FD179467981897B09A169010780128 00001800E0F9000010848E73CB5A494A
009E1186: 01D0082000E00F2000AB18716846A1F7 863100001800E00700007F00E07F00E0
009E1196: 94EE07E0B298806812F1F8FD002803D0 7F00E07F00E07F00E07F00E07F00E07F
009E11A6: 66F089FBB19988617FB034B0F0BDF0B5 00E07F00E07F00E07F00E07F00E07F00
009E11B6: FFB092B0041CF6F798FC051C47A88122 E07F00E04000E0FE000000080241081B
009E11C6: 4CA94FF221FB071C01A8812206A94FF2 00E0F5000001C381A2008A80694049C0
009E11D6: 1BFB061C0D2080012018806812F164F9 388020000800000100024108FF811011
009E11E6: 012806D0022807D0032817D10723E856 00E0EE0000C1FBC1F381EB81E341DB40
009E11F6: 04E00823E85601E00623E856431C0DD0 D301CB01BB81AA4092C0798061005100
009E1206: 192189013423611809695843331C0818 39C028401800000D00E0F80000C03000
009E1216: C16AA06A3A1C006902F074FB002088AB 518061C071008A419A80AA02C1B2F8C1
009E1226: 18750320587590988E978F960090A06A AA81A2419A4192018A0182C079000012
009E1236: 331C00698D993A1CF2F7CFFE01218902 00E0024108020000F700084018C028C0
009E1246: 611888607FB012B0F0BD00B5FFB000AB 38004140514059805900001B00E0FC42
009E1256: 012018709BF0DEFF011C01A89CF069F8 084108400800002B00E0FE0000000802
009E1266: 002803D001A968469CF038FB00AB1878 41081B00E0F4000000C380A200828069
009E1276: 7FB000BD80B500F039F9002801D10120 4051C038802840100000010041000241
009E1286: 80BD002080BDB0B5051CA0F718EB041C 081100E0FC000081E340DB41D30201CB
009E1296: 0ED0FFF7DAFF01280AD168685AF7B6EC F3C1C2C1BA80B241AA01928079406900
009E12A6: 2968FFF7E7FF002801D1012400E00024 51C04080308020401000000C00E0F700
009E12B6: 201CB0BDB0B5051C77F7F2EB041C0DD0 008020C03840518061C071C081019240
009E12C6: FFF7C3FF012809D168685AF79EEC2968 9A0241AAFB01A2009AC1918089818102
009E12D6: FFF7D0FF002802D10124FFE76AE068E0 4179FF00001100E0FD42084108400802
009E12E6: 000002200000520A0000480E9EA0696D 0000F7401080208030C038C048005100
009E12F6: 706C656D656E746174696F6E2F6D6D73 59016100001B00E0024108FE40000000
009E1306: 7569766B2F6D6D65646C6962632E6328 2A00E00200000341081A00E0F6000041
009E1316: 32363432293A200000002838A3A0696D E000B800A00080006800480030002000
009E1326: 706C656D656E746174696F6E2F6D6D73 08020000024108FF41101000E0EC0000
009E1336: 7569766B2F6D6D65646C6962632E6328 41F841F041E840E041D841D041C841C0
009E1346: 32363439293A20000000950E00002574 41B801A8019000780060004800380028
009E1356: 00004D6D45645F4F70656E436F6E7465 0018000800000B00E0F2000000180030
009E1366: 6E74496E4170706C69633A20556E6B6E 0048006000700080009040A000B041B0
009E1376: 6F776E20436F6E74656E747479706520 40A840A04198024090FC018841804178
009E1386: 2100696D706C656D656E746174696F6E 00001000E0FF4110024108020000F600
009E1396: 2F6D6D737569766B2F6D6D65646C6962 08001800280038004800500158006041
009E13A6: 632E632832363931293A20000000FFFF 6800001A00E0FF420802410802000029
009E13B6: 00000024201CB0BD70B5051C77F758EB 00E0FD000001000000024108FF810819
009E13C6: 041C68685AF722EC061C002C0CD0FFF7 00E0F600000180006801600048003800
009E13D6: 3CFF012808D1301C2968FFF74BFF0028 280020001000080200000341081000E0
009E13E6: 01D1012400E000241F2E00D10024201C FB00000188408000800178020070FF00
009E13F6: 70BD70B5051C77F782EB041C68685AF7 68020060FA0058004800380030002800
009E1406: 04EC061C002C0FD0FFF71FFF012808D1 20020010FF00080200000A00E0F70000
009E1416: 301C2968FFF72EFF002801D1012400E0 00080010002000280038004000480050
009E1426: 00241B2E00D10024201C70BDFFB5D1B0 020058020050FF0148020040020038FD
009E1436: 0D1C161C812206A901A85A9F4FF2E4F9 0030002800001000E0024108FF010002
009E1446: 041C00214FF20EFC47A877F792EB5498 0000FD000800100018030020030028FF
009E1456: 49974790286840AB4B90434800271887 00001900E0FC81104108400841080300
009E1466: FF 00


; ##### Picture 528 #####
00DA10A4: 1F0E8800F08CE3A0 1F8E880067149EA0

009E1467: 2049305887012050902F604C95301C4E 7F00E07F00E07F00E07F00E03D00E003
009E1477: F230FF002801D0489600E04897519813 41081C00E0FD410879CE0C630200001A
009E1487: 280AD03A4D14280ED01A2821D1211C0F 00E0F841088631D39CBEF7518C00E000
009E1497: 205AF710EA364804E0211C01205AF70A 0041081700E0F8410879CE0C6341088E
009E14A7: EA34484D9004E0211C08205AF704EA4D 73FFFFB6B500001700E0FB41088631D3
009E14B7: 9547984EF20EFF002811D149984EF209 9CBEF7518C02FFFF020000FF4D6B0200
009E14C7: FF00280CD1211C49984FF261FA4A9707 00FF41081200E0FB410879CE0C634108
009E14D7: E003DF00220020284945F756EDE3E74A 8E7302FFFFFE0000BAD602FFFFFD9294
009E14E7: 9447A877F76AEB55B0F0BD7FB5002600 042100001100E0FB41088631D39CBEF7
009E14F7: AB9E810D1C002418281E8131D008DC11 518C02FFFFFF000002FFFFFD00004D6B
009E1507: 282ED014282CD015282AD0172829D127 FFFF0400000F00E0F94108000041088E
009E1517: E0202805D0222803D0242801D02D2820 73FBDEFFFF000002FFFF020000FAFFFF
009E1527: D1002D1DD05AF7D4E80022D143000400 B6B50000FBDE8E7300001100E0020000
009E1537: 0C0091011C019203AA281C02ABFCF768 FC494A00000421FFFF02000002FFFFFF
009E1547: FF002802D100AB9E811E8100AB988905 000002FFFFFD0000410886311300E0FC
009E1557: 21C901884205D81889FF21E131884200 00009294FFFF929402FFFFFA0000C318
009E1567: D80124201C04B070BD09420000BF139E 518C4108D39C79CE1300E0FF41080200
009E1577: A0BB129EA0F9139EA0D427A3A008B510 00FD4D6BBAD60842020000FC8E73BEF7
009E1587: 1C0B1CFF2100907B224831E84846F6B6 0C6341081600E0034108FA0000FBDE51
009E1597: EA08BD08B5101C0B1CFF210090812248 8C0000D39C45291900E0FE410800E002
009E15A7: 31E24846F6ACEA08BD08B50020131C8A 000002FFFF1C00E0FD00000C6379CE1D
009E15B7: 220090FF214831DD4846F6A0EA08BD08 00E0FE000041087F00E07F00E05200E0
009E15C7: B50020131C8E220090FF214831D74846 0300001B00E0FB00008E73CB5A494A00
009E15D7: F696EA08BDF8B5041C00780F1C002500 001900E0F9000010848E73CB5A494A86
009E15E7: 280BD0A02657F6BAEAFF220168013220 3100001800E0F9000010848E73CB5A49
009E15F7: 780B5C334001D0954201D30020F8BD2B 4A863100001800E0F9000010848E73CB
009E1607: 051B0C392803D80134C018303808E061 5A494A863100001800E0F9000010848E
009E1617: 2803D30134C018573802E00134C01837 73CB5A494A863100001800E0F9000010
009E1627: 38050420782D0C0028E1D13D700120E5 848E73CB5A494A863100001800E0F900
009E1637: E7F0B58DB0061C0D1C68460822801807 0010844D6BCB5A494A863100001800E0
009E1647: A94FF2E1F8041C022001900223022231 F9000010848E73CB5A494A8631000018
009E1657: 1C201C4FF21DFA04276A46D2193B1C20 00E0F9000010848E73CB5A494A863100
009E1667: 1C0BA946F7DAEB291C0BA8FFF7B3FF02 001800E0F9000010848E73CB5A494A86
009E1677: 230422311C201C4FF20BFA3B1C201C01 3100001800E0F9000010848E73CB5A49
009E1687: AA0BA946F7CAEB0B98691C00900BA8FF 4A863100001800E00700007F00E07F00
009E1697: F7A1FF02230622311C201C4FF2F9F93B E07F00E07F00E07F00E07F00E07F00E0
009E16A7: 1C201C01AA0BA946F7B8EBA91C0BA8FF 7F00E07F00E07F00E07F00E07F00E066
009E16B7: F791FF0DB0F0BDF0B58DB0061C0D1C68 00E0FF4000024108FF81081B00E0F800
009E16C7: 460822801807A94FF29EF8041C022001 0080B3C19A407AC1594041C028401802
009E16D7: 9002230222311C201C4FF2DAF904276A 0000034108FF82081100E0EF0000C1FC
009E16E7: 46D2193B1C201C0BA946F796EB291C0B 81F481EC40E441DC01CCC1C3C1B340A3
009E16F7: A8FFF770FF02230422311C201C4FF2C8 C182406AC05140410031C02000000E00
009E1707: F93B1C201C01AA0BA946F786EBA91C0B E0EF00004041C059406A8082C19241A3
009E1717: A8FFF760FF02230622311C201C4FF2B8 80B3C1BB80B380A3419B0193008BC182
009E1727: F93B1C201C01AA0BA946F776EB291D0B C07200001100E0FF8110034108020000
009E1737: A8FFF750FF0120A8600DB0F0BDF7B5F2 F84010C020003140398049C051005A00
009E1747: B00C1C0027002565223FA93AA84FF25B 001C00E0024108FF40002C00E0FE0000
009E1757: F8399001A8652206A94FF255F8009074 0008024108FF81101A00E0F7000001C3
009E1767: 9800214FF27EFA7298002828D0729822 80A2018A81694051C038801840080200
009E1777: 1C066839986EA14EF27EFC1AE0346860 00024108FF82081100E0EE0000C1FBC1
009E1787: 6801F077FD021C6068009901F07DFD39 F381EB81E341DB41D301CB01BB80AA40
009E1797: 9800994EF2B4FD002809D10127A06801 92C17980614049C1388028801800000D
009E17A7: F068FD021CA068749901F06EFD00E004 00E0EE0000C03000518061C071008A40
009E17B7: 36013572984068A84201D9002FDED038 9280AAC0B2C1B281B281A2419A419200
009E17C7: 1C75B0F0BDF1B5F0B00025002465223D 8A0182C17900001100E0FF8110024108
009E17D7: A938A84FF218F8071C6846652205A94F F5000800004008801880280031004140
009E17E7: F212F8061C7098406801F043FD021C70 514059805900001B00E0FC4208410840
009E17F7: 98391C406801F048FD4E49A0000A584C 0800002B00E0FE000000080241081B00
009E1807: A1301C4EF238FC391C301C4EF278FD00 E0F4000000C380A2008280694051C038
009E1817: 2800D1012501342406240E052C01D200 802840100000010041000241081100E0
009E1827: 2DEAD0281C71B0F0BD00207047F7B506 FC000081E340DB41D30201CBF3C1C2C1
009E1837: 1CD4B0151C81220FA90AA84EF2E4FF09 BA80B241AA0192807940690051C04080
009E1847: 90301CF6F751F9071C0024002D6DD155 308020401000000C00E0F700008020C0
009E1857: 981921890180687518A8600120386130 3840518061C071C0810192409A0241AA
009E1867: 1CF6F748FD032000023018C06B002802 FB01A2009AC19180898181024179FF00
009E1877: D0301C07F18EFE2869A968A42255F690 001100E0FD420841084008020000F740
009E1887: EB2D483118381C743052904520000130 1080208030C038C04800510059016100
009E1897: 1851905391A000192189018019411850 001B00E0024108FE400000002A00E002
009E18A7: 91486900214FF2DDF934276743A868C0 00000341081A00E0F6000041E000B800
009E18B7: 19006900280DD001F0DCFC021CA868C0 A0008000680048003000200008020000
009E18C7: 1900695099496901F0DFFC29690020C9 024108FF41101000E0EC000041F841F0
009E18D7: 19086151980623C056A0421FD1A86815 41E840E041D841D041C841C041B801A8
009E18E7: 49C019806B4968099AFFF728FF09984E 01900078006000480038002800180008
009E18F7: F2F0FC002804D009985399FFF7DCFE0D 00000B00E0F200000018003000480060
009E1907: E00120C4F658EB011C68460422801857 00700080009040A000B041B040A840A0
009E1917: F6E8E8002252980199CDF7FBFF013424 4198024090FC01884180417800001000
009E1927: 062416032CB6DB57B0F0BD07E0094200 E0FF4110024108020000F60008001800
009E1937: 00257300008838A3A0C40400002A1CF7 2800380048005001580060416800001A
009E1947: A102A8C7F6D6ED02A840F06CEB03DF08 00E0FF42080241080200002900E0FD00
009E1957: 20F649F54A45F718EBE5E730B5051C00 0001000000024108FF81081900E0F600
009E1967: 24FFB09BF056FC011C01A89BF0E1FC00 00018000680160004800380028002000
009E1977: 2804D001A968469BF0C2FE02E0FF20F5 1000080200000341081000E0FB000001
009E1987: 300090A421281C55F6DEEA0121009800 88408000800178020070FF0068020060
009E1997: 223423634301345B1919761A72240624 FA005800480038003000280020020010
009E19A7: 0ED8611862032CF3D368607FB030BDF0 FF00080200000A00E0F7000000080010
009E19B7: B587B0041CF6F798F800211927BF0101 00200028003800400048005002005802
009E19C7: 610123C360E619B160C1718371022101 0050FF0148020040020038FD00300028
009E19D7: 72A06A4421095C0122002903D06F2189 00001000E0024108FF0100020000FD00
009E19E7: 0161180B60818D002900D10022D04820 0800100018030020030028FF00001900
009E19F7: 1806F057FA00280CD1CEA16846 E0FC8110410840084108030000


; ##### Picture 529 #####
00DA10AC: 1F0E88008C8DE3A0 1F8E8800041A9EA0

009E1A04: C7F678ED684640F010EB03DF0F20C849 7F00E07F00E07F00E07F00E05F00E003
009E1A14: C64A45F7BCEAA06A0025443001780131 41081A00E0FB410800008631F7BD8A52
009E1A24: 0170A06A2C300188013101803069A421 0200001800E0FE0000D39C03FFFFFE3C
009E1A34: 55F68AEAA8000019C019406900214FF2 E700000341081500E0FF000002FFFFFF
009E1A44: 12F901352D062D0E032DF3D33069FFF7 C73902FFFFFC00008210D39CC7390241
009E1A54: 86FF07B0F0BD10B50B69948DBB49002B 081300E0FC00000C6379CEF7BD02FFFF
009E1A64: 02D1012C09D003E040321279944204D1 FF000002FFFF0218C6FECB5A00001300
009E1A74: 0A1C0321DFF039FF10BD0A1C0321DFF0 E0024108FFC73902FFFFFF000002FFFF
009E1A84: 22FF10BD38B5041CC8680206120E201C FD00008631FFFF020000FD00E0000041
009E1A94: FFF7CEFE0720800220180268FF214831 081100E0FA000034A5FFFF00007DEFFF
009E1AA4: 0023002AAA4805D0E222009346F628E8 FF020000FAFFFF7DEF0000FFFF34A500
009E1AB4: 032038BD1125AD016419012262620093 001100E0FD4108000000E0020000FDFF
009E1AC4: 182246F61EE81820F3E7F8B545210901 FF8631000002FFFFFA00003CE7FFFF00
009E1AD4: 41184B7A8F79192533225201AD014519 0041080C631300E0FE0000CB5A0218C6
009E1AE4: 821804260024BB4222D113790220012B 02FFFF020000FC8A52C73979CED39C14
009E1AF4: 0ED0022B0ED0042B3BD0052B3AD10723 00E0024108F7863134A582100000C318
009E1B04: 2E69CD5634236B43F3181B7A8B724D72 75AD18C6863141081600E0034108FA00
009E1B14: 10712EE00923C9563423286959434018 003CE78A52000079CE0C631900E00400
009E1B24: 816B002924D0EC62806B006828631FE0 0002FFFF1C00E0FD00008631D39C1D00
009E1B34: CF79BB4225D11079022810D0042818D0 E00241087F00E07F00E05200E0030000
009E1B44: 052817D1132088720823C85634234872 1B00E0FB00008E73CB5A494A00001900
009E1B54: 296958430818816B0029E4D108E00923 E0F9000010848E73CB5A494A86310000
009E1B64: C9563423286959434018816B0029DAD1 1800E0F9000010848E73CB5A494A8631
009E1B74: 16711AE003DF00206D496C4A45F706EA 00001800E0F9000010848E73CB5A494A
009E1B84: 13E00A7A934210D1112292018218126A 863100001800E0F9000010848E73CB5A
009E1B94: 002A05D06F4A03212868DFF0B8FEF8BD 494A863100001800E0F9000010848E73
009E1BA4: 826A2868FFF757FFF9E7231C9C22FF21 CB5A494A863100001800E0F900001084
009E1BB4: 48310094664845F6A4EFF0E7F8B5846A 4D6BCB5A494A863100001800E0F90000
009E1BC4: 112292018218A18D128A0026914208D1 10848E73CB5A494A863100001800E0F9
009E1BD4: 331C9022FF21483100965D4845F690EF 000010848E73CB5A494A863100001800
009E1BE4: F8BD1925AD014019002A5B4B01D1A685 E0F9000010848E73CB5A494A86310000
009E1BF4: 01E0002905D11A1C00210068DFF0B2FD 1800E0F9000010848E73CB5A494A8631
009E1C04: EEE78A42006804D91A1C0021DFF0CEFD 00001800E00700007F00E07F00E07F00
009E1C14: E6E71A1C0021DFF0DBFDE1E7FFB5FFB0 E07F00E07F00E07F00E07F00E07F00E0
009E1C24: FFB085B000200027F1900026141C101C 7F00E07F00E07F00E00D00E00341081C
009E1C34: F297F5F75BFFF0900120999053A88122 00E0F60000C1AB008B806AC0514039C0
009E1C44: 58A94EF2E2FD52901AA865221FA94EF2 20000800000008024108FF41101200E0
009E1C54: DCFD1990FFAB59691A69201CF6F749FA F00000A1FDA0F561E521DDC1D481CC41
009E1C64: 6D218901FFAB18696118D96003210902 BCC0AB4093C072005A80494031002100
009E1C74: 6118996007218902611859600721C901 000F00E0F90000C049406AC07A408B80
009E1C84: 6118FF916F2189016118FE910D218901 9BC1AB0200B4F9C1AB809B419B018B01
009E1C94: 6118FD910D21C9016118FC9145210901 83817200001200E0FF8110024108F601
009E1CA4: 6118FB9119218901651844286CD06CDC 00000040088018002940318041C049C0
009E1CB4: 112189016118FA913E2867D067DC3B28 5100001C00E00341082D00E0FF400003
009E1CC4: 03D126482218F992EDE14CDC002867D0 41081B00E0F8000081BBC09A417AC059
009E1CD4: 392871D03A2863D1201CF3F7A7F9FA99 4041C0288010020000FF0108024108FF
009E1CE4: FFAB88609968C86B002805D1201C28F0 82081100E0EF0000C1FC81F481EC80DC
009E1CF4: D5FDFFAB9968C863FF994868002802D0 41D401CCC1C3C1BB40A3C182406AC051
009E1D04: 0121F5F75AFFFFAB58680068002871D0 80410031C02000000E00E0EF00004041
009E1D14: 0025FF214831E2222B1C00950C481FE0 C159406A8082C09241A381B3C1BB80B3
009E1D24: 53583032202C453A25690000C07D0000 80A3419B4093008BC182C17A00001100
009E1D34: 7C38A3A0AC0500004C4F333A20437265 E0FF8110034108020000F84010C02000
009E1D44: 617465536C6964650000000085159EA0 3140398049C051005A00001C00E00241
009E1D54: 09420000B1159EA0C7159EA0881B0000 08FF00002C00E0FE00000008024108FF
009E1D64: 45F6CEEE46E03C286FD03D2818D1FF99 81101A00E0F7000001C380A2018A8169
009E1D74: 4868002802D00121F5F71FFFFFABD969 4051C03880184008020000024108FF82
009E1D84: 201CFFF77FFE68E35AE310E062E2FFE7 081100E0EE0000C1FBC1F381EB81E341
009E1D94: 3F38052804D203A31B181B5A5B009F44 DB41D301CB01BB80AA4092C179806140
009E1DA4: 9AE00000A102AF020D03300341033321 49C1388020801800000D00E0EE0000C0
009E1DB4: 49016118F89100E006E14A2872D012DC 3000518061C071008A409280AAC0B2C1
009E1DC4: 13218901611845380528F79104D203A3 B281B281A2419A4192008A0182C17900
009E1DD4: 1B181B5A5B009F447EE000009F03D403 001100E0FF8110024108F50008000040
009E1DE4: 740479043900C92863D006DC4B2872D0 08801880280031004140514059805900
009E1DF4: 4C2800E0DCE26FD1DFE0CA286DD0CB28 001B00E0FC42084108400800002B00E0
009E1E04: 6AD12868E0F00EFA051CE9480022011C FE000000080241081B00E0F4000000C3
009E1E14: FF39C23900920323EF903A20E54A5BF0 80A2008280694051C038802840100000
009E1E24: DDFFA06A0023828DE3A0009002920322 010041000241081100E0FC000081E340
009E1E34: E7A00195DF495BF059FF9AA8FFF78FFD DB41D30201CBF3C1C2C1BA80B241AA01
009E1E44: 7021C3A855F680E809E396E1F098C068 92807940610151C04080304020401000
009E1E54: 00282BD0B8001921890100194018F690 000C00E0F700008020C03840518061C0
009E1E64: 40694EF238FA00280CD0F69840694EF2 71C0810192409A0241AAF801A2009AC1
009E1E74: 32FA400002300004000C0C217943DFAA 91808981814179417100001100E0FD42
009E1E84: 505004E000210C207843DFAA11500C20 0841084008020000F7401080208030C0
009E1E94: 7843DFAA8018002101373F0441608160 38C048C0500059006100001B00E00241
009E1EA4: 3F0C00E006E0032FD4D363E300258922 08FE410000002A00E00200000341081A
009E1EB4: 25E26AE2FFABD869C0680206120E4ED1 00E0F6000041E000B800A00080006800
009E1EC4: D869192180688901A860192292013421 48003000200008020000024108FF4110
009E1ED4: 7943A86802E04EE069E16AE2F5918C46 1000E0EC000041F841F041E840E041D8
009E1EE4: 40182969006961440861A86860440069 41D041C841C041B801A8019000780060
009E1EF4: 00280FD0B80000198018F49040694EF2 0048003800280018000800000B00E0F2
009E1F04: EAF9021CA868F59940180069F4994969 00000018003000480060007000800090
009E1F14: 01F0DBF901373F043F0C032FD5D3A868 40A000B041B040A840A04198024090FC
009E1F24: 2969A42255F63EE80020002734214143 01884180417800001000E0FF41100241
009E1F34: AA68013052185763AA6800045118000C 08020000F60008001800280038004800
009E1F44: 03288F63F2D3F09918208872F0988079 5001580060416800001A00E0FF420802
009E1F54: F0994872F899012008719C22BCE1A7A1 41080200002900E0FD00000100000002
009E1F64: E8A8C7F6C8EAE8A840F05EE803DF0820 4108FF81081900E0F600000180006801
009E1F74: A649A54A18E1FFABD869C0680206120E 60004800380028002000100008020000
009E1F84: 12D0A3A1E8A8C7F6B6EAE8A840F04CE8 0341081000E0FB000001884080008001
009E1F94: 03DF08209D499C4A44F7F8EF2868DFF0 78020070FF0068020060FA0058004800
009E1FA4: B0F8A16A40310871FFABD96800274F70 38003000280020020010FF0008020000
009E1FB4: A06A00693FF0C0EF8DE1201C28F06EFC 0A00E0F7000000080010002000280038
009E1FC4: FFAB9968C863F3E1201CF3F72FF8FA99 004000480050020058020050FF014802
009E1FD4: 00278860F098FFABC760586800680028 0040020038FD0030002800001000E002
009E1FE4: 21D1A06A4421095C828D914205D00129 4108FF0100020000FD00080010001803
009E1FF4: 07D9F0990969002903D12C3001880139 0020030028FF00001900E0FC81104108
009E2004: 0180A06A443001 40084108030000


; ##### Picture 530 #####
00DA10B4: 1F0E8800288EE3A0 1F8E88000B209EA0

009E200B: 78FF310170A06A40300079002869D1FD 7F00E07F00E07F00E07F00E03D00E003
009E201B: 9948680121F5F7CDFDA06A8785C3E0FF 41081C00E0FD000079CE0C630200001A
009E202B: 21483127223B1C00977A48A6E1342358 00E0FF000002FFFFFBBEF7518C00E000
009E203B: 4329690818C06A189000282CD0A06AF2 0041081700E0FF000002FFFFFB41088E
009E204B: AB0069189900223FF092EF022823D1F2 73FBDEB6B541081700E0F600008631D3
009E205B: 980104090E01290FD8F99AFC990092A0 9CBEF7518C0421494A410800004D6B02
009E206B: 6A4F6A0169FFAB58683B1C8068189AF3 0000FF41081200E0F7410879CE0C6341
009E207B: F733FC0120F1900EE0FF221202904301 088E73FFFFB6B50000BAD602FFFFFD92
009E208B: 31090201430F1CF297A06A0022006918 94042100001100E0FB41088631D39CBE
009E209B: 993B1C40F05EE8FB99487A01304872FB F7518C02FFFFFF000002FFFFFD00004D
009E20AB: 990923C856032802DAF1990029BED0FF 6BFFFF0400000F00E0F9410800004108
009E20BB: AB5869DA282ED1F99A5279022A12D00F 8E73FBDEFFFF000002FFFF020000FAFF
009E20CB: 2A17D1596801200860FE990F200872FF FFB6B50000FBDE8E7300001100E00200
009E20DB: 2100274831E2223B1C00974E4845F60C 00FC494A00000421FFFF02000002FFFF
009E20EB: ED18E000E1FC99486A4B496118DCF0FB FF000002FFFFFD0000410886311300E0
009E20FB: F910E0FE99087A0F280CD048A1E8A8C7 FC00009294FFFF929402FFFFFA0000C3
009E210B: F6F6E9E8A83FF08CEF03DF03203D493C 18518C4108D39C79CE1300E0FF410802
009E211B: 4A44F738EFFB99487A032844D1F19800 0000FD4D6BBAD60842020000FC8E73BE
009E212B: 2841D1A06A818D4048201805F05BFF00 F70C6341081600E0034108FA0000FBDE
009E213B: 280CD13EA1E8A8C7F6DAE9E8A83FF070 518C0000D39C45291900E0FE410800E0
009E214B: EF03DF0F202F492E4A44F71CEFF09800 02000002FFFF1C00E0FD00000C6379CE
009E215B: 69002805D0394A03212868DFF0D4FB22 1D00E0FE000041087F00E07F00E05200
009E216B: E0FFABD96800274F70A06A00693FF0E0 E00300001B00E0FB00008E73CB5A494A
009E217B: EEADE0FFABD86980680206120E05D1A2 00001900E0F9000010848E73CB5A494A
009E218B: 6A2868F099FFF763FC0DE02DA1E8A8C7 863100001800E0F9000010848E73CB5A
009E219B: F6AEE9E8A83FF044EF03DF0420194918 494A863100001800E0F9000010848E73
009E21AB: 4A44F7F0EE7EE6E7E1CC060000022000 CB5A494A863100001800E0F900001084
009E21BB: 00467265653A2025642043757272536C 8E73CB5A494A863100001800E0F90000
009E21CB: 6964653A2025640000696D706C656D65 10848E73CB5A494A863100001800E0F9
009E21DB: 6E746174696F6E2F6D6D737569766B2F 000010844D6BCB5A494A863100001800
009E21EB: 6D6D6564706873632E63283132393129 E0F9000010848E73CB5A494A86310000
009E21FB: 3A200000005358313720453A25690000 1800E0F9000010848E73CB5A494A8631
009E220B: 00C07D00007C38A3A053583138202C45 00001800E0F9000010848E73CB5A494A
009E221B: 3A256900000942000095040000535832 863100001800E0F9000010848E73CB5A
009E222B: 30202C453A25690000AC0500004C4F32 494A863100001800E00700007F00E07F
009E223B: 3A2044656C536C696465000000B1159E 00E07F00E07F00E07F00E07F00E07F00
009E224B: A0535832312C453A2569000000FFABD8 E07F00E07F00E03300E0024108FF8208
009E225B: 6980680206120E15D0EBA1E8A8C7F646 1C00E0F9000080A4807BC062C0494029
009E226B: E9E8A83FF0DEEE03DF0420EB49E94A44 80100200000341081300E0F1000021FF
009E227B: F78AEE0027FF21483189223B1C0097E7 E1F660E601DEE1CD61C521BD409C4183
009E228B: 4845F63AECFFABD96800274F70F09901 C16A40528039002900001000E0F10000
009E229B: 200861FD998868002801D010F148FBA0 80624073C183009480A4C1AC21BDC1AC
009E22AB: 6A00693FF046EE002811D0FFAB586800 41A40094C18B4183417300001300E0FD
009E22BB: 6800280CD10094A06A2A680069D84B00 420841080108020000F9801000214031
009E22CB: 21DCF07CFD012189026118486054E177 8039C041004A00001C00E0FF81080241
009E22DB: 22FF2148313B1C0097D0485EE0A06A40 082E00E0024108FF42081C00E0F60000
009E22EB: 300079002805D0CF4ACF492868DFF07E C0AB008B806AC0514039C02040080000
009E22FB: FA42E1002591224BE0FFAB5868006800 0100024108FF81101200E0F00000A1FD
009E230B: 2834D1201CFFF751FB0027AF60FFAB99 A1F560E521DDC1D481CC41BCC0AB408B
009E231B: 68C86B002802D0201C07F139F9FA9901 807A015A80494039C02000000F00E0F9
009E232B: 204862FE990879002809D1FF21483118 0000C049406AC07A408B809BC1AB0200
009E233B: 223B1C0097B94845F6E0EB18261CE1FC B4F9C1AB809B419B018B018381720000
009E234B: 99BA4A086ABAA14DF294FEFC99086AF5 1200E0FF8110024108F6010000004008
009E235B: F7B7FBFF994863201CF3F77BF8FE990C 8018002940318041C049C05100001C00
009E236B: 260F71A06A808DFA99488205E10025FF E00341082D00E0FF40000341081B00E0
009E237B: 2148312722A9482B1C009545F6BEEB14 F8000081BBC09A417AC0594041C02880
009E238B: 26FAE0FFABD869C068012809D1002545 10020000FF0108024108FF82081100E0
009E239B: 22FF214831A1482B1C009545F6AEEBEB EF0000C1FC81F481EC80DC41D401CCC1
009E23AB: E0A06A808D002871D1AEE0A06A808D00 C3C1BB40A3C182406AC05180410031C0
009E23BB: 286CD1A9E0FFABD869C0680206120E0C 2000000E00E0EF00004041C159406A80
009E23CB: D09CA1E8A8C7F692E8E8A83FF02AEE03 82C09241A381B3C1BB80B380A3419B40
009E23DB: DF082091498F4A44F7D6ED0025F098FF 93008BC182C17A00001100E0FF811003
009E23EB: 21C560483184222B1C00958C4845F684 4108020000F84010C020003140398049
009E23FB: EBFFAB58680C23C65EBEE0FFAB586800 C051005A00001C00E0024108FF00002C
009E240B: 680028B3D1F0980025C560FD99486800 00E0FE00000008024108FF81101A00E0
009E241B: 2800D1CEE50121F5F7CCFBADE0F09800 F7000001C380A2018A81694051C03880
009E242B: 27C760FFAB58680068002800D0F7E520 184008020000024108FF82081100E0EE
009E243B: 1CFFF7C0FB07269FE0A06A808D002805 0000C1FBC1F381EB81E341DB41D301CB
009E244B: D0FE990979022901D0F0994880201CF6 01BB80AA4092C17980614049C1388020
009E245B: F72DF8061C90E0342078439AA9411878 801800000D00E0EE0000C03000518061
009E246B: 010A7AC3ABC018027401373F04C9693F C071008A409280AAC0B2C1B281B281A2
009E247B: 0C032F4161EFD39B98C390EF98854233 419A4192008A0182C17900001100E0FF
009E248B: DDA06A4030017928292ED200E03EE0FF 8110024108F500080000400880188028
009E249B: ABDA6802211170007900280ED06022C7 0031004140514059805900001B00E0FC
009E24AB: A9684654F67CEDC3AB0FCBDFF01DFF01 42084108400800002B00E0FE00000008
009E24BB: 1C0022201CF2F7A6FF9990999800285B 0241081B00E0F4000000C380A2008280
009E24CB: D0FE990879002803D1FD9988680FF19B 694051C0388028401000000100410002
009E24DB: FB152080012018006A002800D156E745 41081100E0FC000081E340DB41D30201
009E24EB: 21201CF7F74FF847E0FC99554A086A50 CBF3C1C2C1BA80B241AA019280794061
009E24FB: A14DF2BFFDFC99086AF5F7E2FAFF9948 0151C04080304020401000000C00E0F7
009E250B: 63A06A808D002801D1022635E0032633 00008020C03840518061C071C0810192
009E251B: E0F098C068002800D1C4E4B800192189 409A0241AAF801A2009AC19180898181
009E252B: 0100194018F39040694DF2D1FE00280C 4179417100001100E0FD420841084008
009E253B: D0F39840694DF2CBFE40000230000400 020000F7401080208030C038C048C050
009E254B: 0C0C217943DFAA505004E000210C2078 0059006100001B00E0024108FE410000
009E255B: 43DFAA11500C207843DFAA8018013700 002A00E00200000341081A00E0F60000
009E256B: 213F043F0C41608160032FD6D3354BDF 41E000B800A000800068004800300020
009E257B: AA00212868DFF07DF9E2E0FFABD869C0 0008020000024108FF41101000E0EC00
009E258B: 68F899070608793F0E01281ED0022828 0041F841F041E840E041D841D041C841
009E259B: D0042864D1A86A406800F069FE021CA8 C041B801A80190007800600048003800
009E25AB: 6A4068199900F06EFEA86A806800F05F 280018000800000B00E0F20000001800
009E25BB: FE021CA86A8068529900F064FE286B04 300048006000700080009040A000B041
009E25CB: 302863E86A0130E86250E013480C3041 B040A840A04198024090FC0188418041
009E25DB: 6819984DF24EFDF7990A890092CD888A 7800001000E0FF4110024108020000F6
009E25EB: 8837E00D480C30816819984DF242FDFB 00080018002800380048005001580060
009E25FB: 99487A8979884227D125204001201882 416800001A00E0FF4208024108020000
009E260B: 8B0092458B028B24E053583232202C45 2900E0FD000001000000024108FF8108
009E261B: 3A25690000C07D00007C38A3A0094200 1900E0F6000001800068016000480038
009E262B: 00CDE69AA057E69AA035E69AA0980900 00280020001000080200000341081000
009E263B: 002574000053583233202C453A256900 E0FB00000188408000800178020070FF
009E264B: 00A71800009B159EA0F7998A8A00924D 0068020060FA00580048003800300028
009E265B: 8A0A8AF7A12B1C52984DF20BFD06E0FF 0020020010FF00080200000A00E0F700
009E266B: E703DF0820F749F64A44F78CEC002F15 00000800100020002800380040004800
009E267B: D1FFABD8698568002D5FD019984DF227 50020058020050FF0148020040020038
009E268B: FE021C6868199900F01CFE52984DF21F FD0030002800001000E0024108FF0100
009E269B: FE021CA868529900F014FE4EE03A1CEA 020000FD000800100018030020030028
009E26AB: A1E8A8C6F624EFE8A83FF0BAEC03DF08 FF00001900E0FC811041084008410803
009E26BB: 20E4 0000


; ##### Picture 531 #####
00DA10BC: 1F0E8800C48EE3A0 1F8E8800BD269EA0

009E26BD: 49E34A44F766EC3FE0FFAB5968012008 7F00E07F00E07F00E07F00E03D00E0FF
009E26CD: 603DE0F8990879012807D0022834D004 00000241081C00E0FD000079CE0C6302
009E26DD: 281AD1F899052008712EE00623FB9920 00001A00E0FF000002FFFFFBBEF7518C
009E26ED: 1CC956F2F767FB002826D0F799C86800 00E0000041081700E0FF000002FFFFFB
009E26FD: 2822D0D3480C304068C3F632E9400002 41088E73FBDEB6B541081700E0FF0000
009E270D: 3068631020A86305E003DF0020CD49CB 02FFFFF9BEF7518C0421494A41080000
009E271D: 4A44F738ECCF4A002100910192A868F0 4D6B020000FF41081200E0FF000002FF
009E272D: 990923C95634236A6B594341182868AB FFFA41088E73FFFFB6B50000BAD602FF
009E273D: 6B0831DFF0F9F802E0201CFFF7C1F931 FFFD9294042100001100E0FB00004529
009E274D: 1C201CF5F7C6FCFFAB18695969F5F7A0 D39CBEF7518C02FFFFFF000002FFFFFD
009E275D: FE7FB07FB009B0F0BD10B50B1C111C04 00004D6BFFFF0400000F00E0F9410800
009E276D: 1C8A2A30D012DC7B292FD007DC452924 0041088E73FBDEFFFF000002FFFF0200
009E277D: D0772901D078292ED140202DE081291E 00FAFFFFB6B50000FBDE8E7300001100
009E278D: D0882916D0892926D13E2025E0A92920 E0FA41080000494A00000421FFFF0200
009E279D: D007DC9A290FD09B2913D09C291BD148 0002FFFFFF000002FFFFFD0000410886
009E27AD: 201AE0B22913D0B32911D0E22913D147 311300E0FC00009294FFFF929402FFFF
009E27BD: 2012E0442010E0CB200EE045200CE04A FA0000C318518C4108D39C79CE1300E0
009E27CD: 200AE0462008E03C2006E04B2004E0CA FF4108020000FD4D6BBAD60842020000
009E27DD: 2002E0C92000E00020221CFFF71AFA10 FC8E73BEF70C6341081600E0034108FA
009E27ED: BD10B50B1C111C041C892A26D00EDC7B 0000FBDE518C0000D39C45291900E0FE
009E27FD: 2923D005DC772901D0782920D13F201F 410800E002000002FFFF1C00E0FD0000
009E280D: E0812912D088291AD1492019E09B2910 0C6379CE1D00E0FE000041087F00E07F
009E281D: D005DC8A290FD0912911D1412010E09C 00E05200E00300001B00E0FB00008E73
009E282D: 2905D0E2290BD147200AE04A2008E048 CB5A494A00001900E0F9000010848E73
009E283D: 2006E0462004E03C2002E03E2000E000 CB5A494A863100001800E0F900001084
009E284D: 20221CFFF7E6F910BD10B50B1C111C04 8E73CB5A494A863100001800E0F90000
009E285D: 1C8A2A2CD010DC812923D007DC772928 10848E73CB5A494A863100001800E0F9
009E286D: D0782926D07B2926D14B2025E0882914 000010848E73CB5A494A863100001800
009E287D: D0892920D13E201FE09E2916D007DC9A E0F9000010848E73CB5A494A86310000
009E288D: 290DD09B290FD09C2915D1482014E0B0 1800E0F9000010844D6BCB5A494A8631
009E289D: 2903D0E2290FD147200EE044200CE049 00001800E0F9000010848E73CB5A494A
009E28AD: 200AE04A2008E0462006E04C2004E03C 863100001800E0F9000010848E73CB5A
009E28BD: 2002E0422000E00020221CFFF7AAF910 494A863100001800E0F9000010848E73
009E28CD: BD10B50B1C111C041C8A2A28D010DC81 CB5A494A863100001800E0F900001084
009E28DD: 291FD007DC772926D0782924D07B2924 8E73CB5A494A863100001800E0070000
009E28ED: D14B2023E0882912D089291ED13E201D 7F00E07F00E07F00E07F00E07F00E07F
009E28FD: E09B2912D005DC912913D09A2915D149 00E07F00E05900E00241081D00E0F700
009E290D: 2014E09C2907D0E2290FD147200EE044 008094806B8052C03900194008000001
009E291D: 200CE04A200AE0482008E0462006E03C 08024108FF81101300E0F20000E1F761
009E292D: 2004E03D2002E0432000E00020221CFF EF21DFA0D661CEE1BD61A5408C8073C0
009E293D: F770F910BD10B50B1C111C041C912A18 5A0042803100001100E0F20000416B00
009E294D: D009DC71290FD0772911D078290FD08A 7C808CC09C61ADA1B5A0B561A5C19440
009E295D: 2911D13E2010E09E2907D0DA2903D0E2 8C0084C17B00001300E0FF8110024108
009E296D: 2909D1472008E03B2006E03A2004E039 020000F94008C01840298031C0390042
009E297D: 2002E03D2000E00020221CFFF74AF910 00001D00E0FE420841082F00E0024108
009E298D: BD112189014118806A098A828D914203 FF81101C00E0F90000809C807BC062C0
009E299D: D92C300188013104E0914203D22C3001 4940298010020000FD40084108420813
009E29AD: 88013901807047F7B50026041C00258A 00E0F1000021FFE1F660E601DEE1CD61
009E29BD: B0F5F797F802900C9891280ED005DC8E C521BD409C4183C06A40528039002900
009E29CD: 2809D090280CD1B5260AE09E2807D0E2 001000E0F1000080624073C183009480
009E29DD: 2806D1B72604E0B42602E0B62600E0B8 A4C1AC21BDC1AC41A40094C18B418341
009E29ED: 26321C201C0C99F5F77FFB0720032212 7300001300E0FD420841080108020000
009E29FD: 0280022018A7180121B62E65D02EDC00 F98010002140298039C041004A00001C
009E2A0D: 2E58D0B42E3AD0B52E54D1A26A928D00 00E0FF82080241082E00E0024108FF42
009E2A1D: 2A65D10D229201A2185368002B55D000 081C00E0F60000C0AB008B806AC05140
009E2A2D: 68002848D10299C8605068012113E023 39C020400800000100024108FF811012
009E2A3D: 253032782530327825303278000000C0 00E0F00000A1FDA1F560E521DDC1D481
009E2A4D: 7D00007C38A3A05358313030202C453A CC41BCC0AB408B807A005A80494031C0
009E2A5D: 2569005D2C9EA0F5F7ABF82BE0B72E4E 2000000F00E0F90000C049406AC07A40
009E2A6D: D0B82E27D10068002861D00023E222FF 8B809BC1AB0200B4F9C1AB809B419B01
009E2A7D: 21483100937C4845F63EE860E00B9880 8B0183817200001200E0FF8110024108
009E2A8D: 680206120E03D1201CFFF77AFF0FE076 F60100000040088018002940318041C0
009E2A9D: A103A8C6F62AED03A83FF0C2EA03DF05 49C05100001C00E00341082D00E0FF40
009E2AAD: 207649744A44F76EEA02990020088020 000341081B00E0F8000081BBC09A417A
009E2ABD: 1CFFF77FF844E000232722FF21483100 C0594041C0288010020000FF01080241
009E2ACD: 93694845F618E82EE013E002980161F8 08FF82081100E0EF0000C1FC81F481EC
009E2ADD: 6B002834D1201C27F0DCFEF8632FE0FF 80DC41D401CCC1C3C1BB40A3C182406A
009E2AED: E71920800120180068654A6549DEF07D C05180410031C02000000E00E0EF0000
009E2AFD: FE26E0201C0B99FEF7C0FF051C20E001 4041C159406A8082C09241A381B3C1BB
009E2B0D: 60201CF5F70BFB002807D000232722FF 80B380A3419B4093008BC182C17A0000
009E2B1D: 2148310093544844F6EEEF6F20800120 1100E0FF8110034108020000F84010C0
009E2B2D: 180068002801D014250AE00F2508E0F8 20003140398049C051005A00001C00E0
009E2B3D: 6B002804D11120800120180162CAE702 024108FF00002C00E0FE000000080241
009E2B4D: 25291C201CF5F7C5FA301C0C99F5F7A0 08FF81101A00E0F7000001C380A2018A
009E2B5D: FC0DB0F0BDF7B5061C002484B0F4F7C1 81694051C03880184008020000024108
009E2B6D: FF071C06989E2805D0A32805D0E22805 FF82081100E0EE0000C1FBC1F381EB81
009E2B7D: D1982504E0972502E0962500E000252A E341DB41D301CB01BB80AA4092C17980
009E2B8D: 1C301C0699F5F7B0FA962D20D0972D5C 614049C1388020801800000D00E0EE00
009E2B9D: D0982D12D10721890271180120086030 00C03000518061C071008A409280AAC0
009E2BAD: 1CF5F7BCFA002807D000232722FF2148 B2C1B281B281A2419A4192008A0182C1
009E2BBD: 3100932C4844F6A0EF1424211C301CF5 7900001100E0FF8110024108F5000800
009E2BCD: F788FA281C0699F5F763FC07B0F0BD05 00400880188028003100414051405980
009E2BDD: 98C068012833D13A8F03233A203A8000 5900001B00E0FC42084108400800002B
009E2BED: 92294A29495BF0F5F80021002228A000 00E0FE000000080241081B00E0F40000
009E2BFD: 90029201913B882349032226A05BF071 00C380A2008280694051C03880284010
009E2C0D: F800238F22FF2148310093164844F674 0000010041000241081100E0FC000081
009E2C1D: EF3A881D4903240323033100921A4A3A E340DB41D30201CBF3C1C2C1BA80B241
009E2C2D: 205BF0D7F80021002219A00090029201 AA0192807940610151C0408030402040
009E2C3D: 913B881449032222A05BF053F8BDE7B0 1000000C00E0F700008020C038405180
009E2C4D: 6A808D002801D00324B7E70224B5E708 61C071C0810192409A0241AAF801A200
009E2C5D: B5101C0B1CFF2100909B224831024844 9AC191808981814179417100001100E0
009E2C6D: F64AEF08BD0000094200005358333820 FD420841084008020000F74010802080
009E2C7D: 453A2569000000C07D00007C38A3A057 30C038C048C0500059006100001B00E0
009E2C8D: E69AA035E69AA0022000005207000025 024108FE410000002A00E00200000341
009E2C9D: 64202564000000696D706C656D656E74 081A00E0F6000041E000C000A0018000
009E2CAD: 6174696F6E2F6D6D737569766B2F6D6D 680048003000200008020000FD410842
009E2CBD: 6564706873632E632831383734293A20 0841081000E0EC000041F841F041E840
009E2CCD: 000000696D706C656D656E746174696F E041D841D041C841C041B801A8019000
009E2CDD: 6E2F6D6D737569766B2F6D6D65647068 7800600050003800280018000800000B
009E2CED: 73632E632831383737293A20000000FF 00E0F200000018003000480060007000
009E2CFD: B5051C19208001161C2C1820680021C5 80009040A000B041B040A840A0419802
009E2D0D: B0DFF073F806900120002E00D0002005 4090FC00804180417800001000E0FF41
009E2D1D: 9020681821DFF09BF8049020681421DF 10024108020000F60008001800280038
009E2D2D: F096F8039044F76CEA061C44F762EA07 0048005001580060016800001A00E0FD
009E2D3D: 1CE34820AA0EA9281806F04BFA002833 4208410841000200002900E0FD000001
009E2D4D: D020AB0220185E0127042124901F7600 000000024108FF81081900E0F6000001
009E2D5D: 20185E21901F7310AB0220185E369004 80006801600048003800280020001000
009E2D6D: 20185E39900820185E595E401A01303F 080200000341081000E0FB0000018840
009E2D7D: 900620185E0221595E401A01303C9016 8000800178020070FF0068020060FA00
009E2D8D: 20185E182127901820185E2A901C2018 5800480038003000280020020010FF00
009E2D9D: 5E595E401A013030901A20185E162159 080200000A00E0F70000000800100020
009E2DAD: 5E401A01302D9029E0FF220232C5A107 00280038004000480050020058020050
009E2DBD: A8C6F69CEB07A83FF032E903DF002200 FF0148020040020038FD003000280000
009E2DCD: 20C34944F7DEE82497012020AB187621 1000E0024108FF0100020000FD000800
009E2DDD: 961873002027902A90381C3FF01EEABC 100018030020030028FF00001900E0FC
009E2DED: A20CCA3FF01EEA3FF020EA 8110410840084108030000


; ##### Picture 532 #####
00DA10C4: 1F0E8800608FE3A0 1F8E8800F82D9EA0

009E2DF8: 30900020369030982D963990381A3F90 7F00E07F00E07F00E07F00E03D00E003
009E2E08: 3C9621A92068DEF0C8FF0920C0012E18 41081C00E0FD4108BAD60C630200001A
009E2E18: 706E00902068F26D336E0699DEF0D6FE 00E0F841088631D39CBEF7518C00E000
009E2E28: 012738AB1F701F733EA8077307702068 0041081800E0F94108000041088E73FF
009E2E38: 049A36AB0021DEF012FF01220292306C FFB6B500001900E0020000FF518C02FF
009E2E48: F16B019000912068B36B0699049ADEF0 FF020000FF4D6B020000FF41081300E0
009E2E58: 18FE28AB1F711F742FA8077307702068 F841080C63BEF7FFFFFBDE494A0000BA
009E2E68: 039A27AB0021DEF0FAFE01220292B06D D602FFFFFD9294042100001200E0FC41
009E2E78: 716D019000912068336D0699039ADEF0 08D39CFFFF8E7303000002FFFFFD0000
009E2E88: 00FE489800280AD13320400128180023 4D6BFFFF0400000F00E0FC4108000041
009E2E98: C05E031C20684699059ADEF0A6FD49B0 0800000200E0FF000002FFFF020000FA
009E2EA8: F0BD08B500236B22FF21483100938C48 FFFFB6B50000FBDE8E7300001400E0FD
009E2EB8: 44F624EE012044F720E808BD08B50023 00004529FFFF02000002FFFFFF000002
009E2EC8: 6822FF2148310093854844F618EE0120 FFFFFD0000410886311300E0FC000092
009E2ED8: 44F712E808BD08B500236922FF214831 94FFFF929402FFFFFA0000C318518C41
009E2EE8: 00937F4844F60AEE012044F706E808BD 08D39C79CE1400E0020000FD4D6BBAD6
009E2EF8: 70B57D4D061C281C7A4944F7EEEF041C 0842020000FC8E73BEF70C6341081600
009E2F08: 002144F7F0EF73490C31201C44F7F0EF E0034108FA0000FBDE518C0000D39C45
009E2F18: 311C201C45F7B2E86E492A1C3831201C 291900E0FE410800E002000002FFFF1C
009E2F28: 44F702E8201C44F782ED70BD98B50223 00E0FD00000C6379CE1D00E0FE000041
009E2F38: C85EDC1E1B2805D01C280DD1022043F7 087F00E07F00E05200E00300001B00E0
009E2F48: DCEF07E000237C22FF21483100936448 FB00008E73CB5A494A00001900E0F900
009E2F58: 44F6D4ED201C98BD0020FCE75D4A80B5 0010848E73CB5A494A863100001800E0
009E2F68: 00214C320120614B45F76AE880BD98B5 F9000010848E73CB5A494A8631000018
009E2F78: 0223C85EDC1E1B2805D01C280DD10220 00E0F9000010848E73CB5A494A863100
009E2F88: 43F7BAEF07E000237122FF2148310093 001800E0F9000010848E73CB5A494A86
009E2F98: 534844F6B4ED201C98BD0020FCE74D4A 3100001800E0F9000010848E73CB5A49
009E2FA8: 80B5002184320120514B45F74AE880BD 4A863100001800E0F9000010844D6BCB
009E2FB8: F8B5041C0E1C44F780EB05042D0C201C 5A494A863100001800E0F9000010848E
009E2FC8: 44F75CEB0223F15E182923D101880135 73CB5A494A863100001800E0F9000010
009E2FD8: 2A04120C914201D1022016E082808179 848E73CB5A494A863100001800E0F900
009E2FE8: 002907D001290FD002290DD101203FF0 0010848E73CB5A494A863100001800E0
009E2FF8: 24E90CE00023C268009380680104090C F9000010848E73CB5A494A8631000018
009E3008: 374844F67CED02E0012043F776EF0020 00E00700007F00E07F00E07F00E07F00
009E3018: C043F8BD0020FCE7F0B5061C0F1C89B0 E07F00E07F00E0FE410882081D00E0FA
009E3028: 44F738EB08903221301C44F72EEB041C 0000005C004B403240218010030000FE
009E3038: 6846052205A94DF2E6FB051C00214DF2 410842081400E0F30000E1AF60A721A7
009E3048: 10FE791C281C4DF2F5FC2A4A2AA1201C A19E0096E18DC07CC06300534042C039
009E3058: 4DF211F80122291C201CB7F2F7FB3B1C 00001200E0F30000C0534064C16C207D
009E3068: 221C301C089944F722EB09B0F0BDFEB5 A185E08D618DC084817C0074816B0000
009E3078: 1D4F051C381C1B4944F72EEF041C6E88 1400E0034108020000FA801000198029
009E3088: 694644F730EF1349D031201C44F730EF C031003A00001D00E0FE420841083000
009E3098: 311C201C44F738EF291C201C44F7EEEF E0FE410842081D00E0F700008094806B
009E30A8: 2888002803D0411E201C44F734EF0949 8052C0390019400800000108024108FF
009E30B8: 3A1CBC31201C43F738EF201C44F7B6EC 81101300E0F20000E1F761EF21DFA0D6
009E30C8: FEBD0000AC05000055544C433031204C 61CEE1BD61A5408C8073C05A00428031
009E30D8: 3A256900CC38A3A0000000000000E03F 00001100E0F20000416B007C808CC09C
009E30E8: 09420000FDC78BA0F5C78BA0A9020000 61ADA1B5A0B561A5C194408C0084C17B
009E30F8: 3D120000260E00002574000080B57849 00001300E0FF8110024108020000F940
009E3108: 002278483FF09EE880BDF3B5B5B00F1C 08C01840298031C039004200001D00E0
009E3118: 16A93D2211A84DF276FB051C06A845F7 FE420841082F00E0024108FF81101C00
009E3128: 36EA041C02A845F7C0EC01A13839061C E0F90000809C807BC062C04940298010
009E3138: 3A1C281C4CF29FFF281C4DF2CAF8071C 020000FD4008410842081300E0F10000
009E3148: 201C3FF086E840210843021C01212B1C 21FFE1F660E601DEE1CD61C521BD409C
009E3158: 201C009744F766EB0321301C45F7AAEC 4183C06A40528039002900001000E0F1
009E3168: 311C201C45F7ACEC5F4A211C359844F7 000080624073C183009480A4C1AC21BD
009E3178: 60EB37B0F0BD10B50223C85EDC1E3128 C1AC41A40094C18B4183417300001300
009E3188: 03D07C2806D1022000E0012043F7B4EE E0FD420841080108020000F980100021
009E3198: 201C10BD002010BD524A80B500211432 40298039C041004A00001C00E0FF8208
009E31A8: 0120524B44F74CEF80BD98B50223CA5E 0241082E00E0024108FF42081C00E0F6
009E31B8: FF21DC1E002348311B2A4D4803D01C2A 0000C0AB008B806AC0514039C0204008
009E31C8: 07D1382200E03722009344F698EC201C 00000100024108FF81101200E0F00000
009E31D8: 98BD0020FCE7434A80B500214C320120 A1FDA1F560E521DDC1D481CC41BCC0AB
009E31E8: 444B44F72EEF80BD98B50C1C44F7DEEA 408B807A005A80494031C02000000F00
009E31F8: 0223E25EDC1E011C00231B2A3C4803D0 E0F90000C049406AC07A408B809BC1AB
009E3208: 1C2A0AD18A6800E04A68009309680904 0200B4F9C1AB809B419B018B01838172
009E3218: 090C44F674EC201C98BD0020FCE7314A 00001200E0FF8110024108F601000000
009E3228: 80B58432011CC368012044F70AEF80BD 40088018002940318041C049C0510000
009E3238: 98B50223CA5EFF21DC1E002348311B2A 1C00E00341082D00E0FF40000341081B
009E3248: 2B4803D01C2A03D03D2A07D1E42200E0 00E0F8000081BBC09A417AC0594041C0
009E3258: E522009344F652EC201C98BD0020FCE7 288010020000FF0108024108FF820811
009E3268: 204A80B50021BC320120234B44F7E8EE 00E0EF0000C1FC81F481EC80DC41D401
009E3278: 80BD011C002003E001300004000C0231 CCC1C3C1BB40A3C182406AC051804100
009E3288: 0A88002AF8D1704770B5061C151C0C1C 31C02000000E00E0EF00004041C15940
009E3298: 081C4DF259FBA84203D3206805806800 6A8082C09241A381B3C1BB80B380A341
009E32A8: 08E0201C4DF250FB21680880201C4DF2 9B4093008BC182C17A00001100E0FF81
009E32B8: 4BFB400002042068120C0230311C97F0 10034108020000F84010C02000314039
009E32C8: 27FF012070BDB0B555002A040968120C 8049C051005A00001C00E0024108FF00
009E32D8: 041C023197F01CFF002060530120B0BD 002C00E0FE00000008024108FF81101A
009E32E8: 4808B2A0C839A3A0F5C78BA0C4090000 00E0F7000001C380A2018A81694051C0
009E32F8: 09420000E1070000820C0000F8B51522 3880184008020000024108FF82081100
009E3308: 920184180027032601292068434D19D1 E0EE0000C1FBC1F381EB81E341DB41D3
009E3318: 002816D10321032051F2AFF800220092 01CB01BB80AA4092C17980614049C138
009E3328: 2A1C331CFF21B0313A205AF055FD3CA2 8020801800000D00E0EE0000C0300051
009E3338: 009203223B1C291C40A05AF0D5FC0120 8061C071008A409280AAC0B2C1B281B2
009E3348: 2060F8BD0128FCD10321032051F2A3F8 81A2419A4192008A0182C17900001100
009E3358: 002200922A1C331CFF21BB313A205AF0 E0FF8110024108F50008000040088018
009E3368: 3BFD41A200923B1C03222C4945A05AF0 80280031004140514059805900001B00
009E3378: BBFC2760E5E73EB5151C0022FF21041C E0FC42084108400800002B00E0FE0000
009E3388: C631009203233A20244A5AF025FD2169 00080241081B00E0F4000000C380A200
009E3398: 47A00090002301912049032250A00295 8280694051C038802840100000010041
009E33A8: 5AF0A2FC3EBD98B50024002908D06B46 000241081100E0FC000081E340DB41D3
009E33B8: 00223EF0DEED022802D10098C407E40F 0201CBF3C1C2C1BA80B241AA01928079
009E33C8: 201C98BDFEB5FF26071C191C03234836 40610151C04080304020401000000C00
009E33D8: 0025141C002911481BD12178132919D0 E0F700008020C03840518061C071C081
009E33E8: 142903D0182916D01A2915D100220092 0192409A0241AAF801A2009AC1918089
009E33F8: 021CFF21F9313A205AF0EEFC43A20092 81814179417100001100E0FD42084108
009E3408: 2B1C032205494AA05AF06EFC2B1C0B22 4008020000F7401080208030C038C048
009E3418: E7E0D1E0B5E0A1E0E8E0000002200000 C0500059006100001B00E0024108FE41
009E3428: 4D6D56695F5065726D616E656E744C69 0000002A00E00200000341081A00E0F6
009E3438: 6768744F6E3A204F4E000000696D706C 000041E000C000A00180006800480030
009E3448: 656D656E746174696F6E2F6D6D737569 00200008020000FD4108420841081000
009E3458: 766B2F6D6D6564766973632E63283433 E0EC000041F841F041E840E041D841D0
009E3468: 31293A20000000004D6D56695F506572 41C841C041B801A80190007800600050
009E3478: 6D616E656E744C696768744F6E3A204F 003800280018000800000B00E0F20000
009E3488: 46460000696D706C656D656E74617469 001800300048006000700080009040A0
009E3498: 6F6E2F6D6D737569766B2F6D6D656476 00B041B040A840A04198024090FC0080
009E34A8: 6973632E6328343432293A2000000000 4180417800001000E0FF411002410802
009E34B8: 6D6D6564766973632E633A2044656275 0000F600080018002800380048005001
009E34C8: 675472616365706F696E742C20737461 580060016800001A00E0FD4208410841
009E34D8: 74652025642C206C696E652025640000 000200002900E0FD0000010000000241
009E34E8: 696D706C656D656E746174696F6E2F6D 08FF81081900E0F60000018000680160
009E34F8: 6D737569766B2F6D6D6564766973632E 00480038002800200010000802000003
009E3508: 6328343533293A20000000004D6D5669 41081000E0FB00000188408000800178
009E3518: 5F536D696C5F53686F7743423A20494D 020070FF0068020060FA005800480038
009E3528: 4147452F564944454F2C204F6B617900 003000280020020010FF00080200000A
009E3538: 696D706C656D656E746174696F6E2F6D 00E0F700000008001000200028003800
009E3548: 6D737569766B2F6D6D6564766973632E 4000480050020058020050FF01480200
009E3558: 6328353034293A200000000000220092 40020038FD0030002800001000E00241
009E3568: 021CFF21FE313A205AF036FC35A20092 08FF0100020000FD0008001000180300
009E3578: 2B1C03223B493CA05AF0B6FB2B1C0C22 20030028FF00001900E0FC8110410840
009E3588: 2FE000220092 084108030000


; ##### Picture 533 #####
00DA10CC: 1F0E8800FC8FE3A0 1F8E88008E359EA0

009E358E: 021C3A2042495AF024FC41A200922B1C 7F00E07F00E07F00E07F00E03D00E0FF
009E359E: 0322324947A05AF0A4FB01A902A846F6 00000241081C00E0FD000079CE0C6302
009E35AE: 2AEB0D21C901791801982B1C0D220860 00001A00E0FF000002FFFFFBBEF7518C
009E35BE: 14E0002200923549021C11313A205AF0 00E0000041081700E0FF000002FFFFFB
009E35CE: 08FC227846A100912B1C019203222349 41088E73FFFFB6B500001700E0FF0000
009E35DE: 4DA05AF086FB2B1CFF2204320093311C 02FFFFFEBEF7518C02FFFF020000FF4D
009E35EE: 544844F688EAFEBD7CB5FF26191C0323 6B020000FF41081200E0FF000002FFFF
009E35FE: 48360025141C002919481BD121781329 FE41088E7302FFFFFE0000BAD602FFFF
009E360E: 19D0142903D0182916D01A2915D10022 FD9294042100001100E0FB00004529D3
009E361E: 00921E49021C25313A205AF0DAFB45A2 9CBEF7518C02FFFFFF000002FFFFFD00
009E362E: 00922B1C03220D494CA05AF05AFB2B1C 004D6BFFFF0400000F00E0F941080000
009E363E: 1122E2E0CCE0B9E0A5E0E3E000004D6D 41088E73FBDEFFFF000002FFFF020000
009E364E: 56695F536D696C5F53686F7743423A20 FAFFFFB6B50000FBDE8E7300001100E0
009E365E: 544558542C204F6B6179000000000220 FA41080000494A00000421FFFF020000
009E366E: 0000696D706C656D656E746174696F6E 02FFFFFF000002FFFFFD000041088631
009E367E: 2F6D6D737569766B2F6D6D6564766973 1300E0FC00009294FFFF929402FFFFFA
009E368E: 632E6328353039293A20000000000202 0000C318518C4108D39C79CE1300E0FF
009E369E: 00004D6D56695F536D696C5F53686F77 4108020000FD4D6BBAD60842020000FC
009E36AE: 43423A20415544494F2C204F6B617900 8E73BEF70C6341081600E0034108FA00
009E36BE: 0000696D706C656D656E746174696F6E 00FBDE518C0000D39C45291900E0FE41
009E36CE: 2F6D6D737569766B2F6D6D6564766973 0800E002000002FFFF1C00E0FD00000C
009E36DE: 632E6328353134293A20000000004D6D 6379CE1D00E0FE000041087F00E07F00
009E36EE: 56695F536D696C5F53686F7743423A20 E05200E00300001B00E0FB00008E73CB
009E36FE: 4572726F722C204D6564696154797065 5A494A00001900E0F9000010848E73CB
009E370E: 202564000000696D706C656D656E7461 5A494A863100001800E0F9000010848E
009E371E: 74696F6E2F6D6D737569766B2F6D6D65 73CB5A494A863100001800E0F9000010
009E372E: 64766973632E6328353331293A200000 848E73CB5A494A863100001800E0F900
009E373E: 0000094200004D6D56695F536D696C5F 0010848E73CB5A494A863100001800E0
009E374E: 4869646543423A20494D4147452F5649 F9000010848E73CB5A494A8631000018
009E375E: 44454F2C204F6B617900696D706C656D 00E0F9000010844D6BCB5A494A863100
009E376E: 656E746174696F6E2F6D6D737569766B 001800E0F9000010848E73CB5A494A86
009E377E: 2F6D6D6564766973632E632835353129 3100001800E0F9000010848E73CB5A49
009E378E: 3A200000000000220092021C8B218900 4A863100001800E0F9000010848E73CB
009E379E: 3A205AF01EFB8BA200922B1C03229149 5A494A863100001800E0F9000010848E
009E37AE: 92A05AF09EFA2B1C0E2226E000220092 73CB5A494A863100001800E00700007F
009E37BE: 021C3A2098495AF00CFB97A200922B1C 00E07F00E07F00E07F00E02600E0FF41
009E37CE: 032288499DA05AF08CFA2B1C0F2214E0 081E00E0F801008053C03AC029001940
009E37DE: 002200929049021C0A313A205AF0F9FA 0800000008024108FF82081400E0F400
009E37EE: 2278A0A100912B1C019203227E49A5A0 00E1AF61A7E19E61960186607D416440
009E37FE: 5AF077FA2B1CFF2204320093311CAC48 4B8042003200001300E0F40000005C81
009E380E: 44F67AE97CBDFFB599B024AE70CE13A8 6C2175A17DE085A07D2075806C016481
009E381E: 00275BF072FA0DA85BF06FFA13A96A20 5B00001400E0FF4210024108F8010000
009E382E: 5BF0E4F813A901205BF022F90DA96A20 004008C01040198021C02900001E00E0
009E383E: 5BF0DCF80DA901205BF01AF91A980028 FF41083100E0FE410882081D00E0FA00
009E384E: 59D000210DAA09920022089107910BA9 00005C004B403240218010030000FE41
009E385E: 0AA8049005910692039213AA0CA90020 0842081400E0F30000E1AF60A721A7A1
009E386E: 019002910092944A1A991998924B3EF0 9E0096E18DC07CC06300534042C03900
009E387E: 76EB02283FD1002E01D00A983060002C 001200E0F30000C0534064C16C207DA1
009E388E: 02D000AB188E2080002D02D000AB988D 85E08D618DC084817C0074816B000014
009E389E: 2880159800280ED01C98002804D08022 00E0034108020000FA801000198029C0
009E38AE: 1C98159943F75AED1B98002803D01B98 31003A00001D00E0FE420841083000E0
009E38BE: 1599C1F676EF00AB188F002805D1D88E FE410842081D00E0F700008094806B80
009E38CE: 002811D00F9800280ED02398002804D0 52C0390019400800000108024108FF81
009E38DE: 802223980F9943F740ED2298002803D0 101300E0F20000E1F761EF21DFA0D661
009E38EE: 22980F99C1F65EEF13A85AF0B8FC0DA8 CEE1BD61A5408C8073C05A0042803100
009E38FE: 5AF0B5FC0127381C1DB0F0BDF0B585B0 001100E0F20000416B007C808CC09C61
009E390E: 0E1C0021141C00220291039100910193 ADA1B5A0B561A5C194408C0084C17B00
009E391E: 231C311C051C281C0492FFF774FF05B0 001300E0FF8110024108020000F94008
009E392E: F0BDF0B585B0161C0D1C002100220492 C01840298031C039004200001D00E0FE
009E393E: 01920291039100930023291C321C041C 420841082F00E0024108FF81101C00E0
009E394E: 201CFFF760FF05B0F0BDF0B587B0051C F90000809C807BC062C0494029801002
009E395E: F4F7C7F8041C06A80290002200210391 0000FD4008410842081300E0F1000021
009E396E: 0091049201920723E156192080013423 FFE1F660E601DEE1CD61C521BD409C41
009E397E: 28180069594300264018C16AA86A331C 83C06A40528039002900001000E0F100
009E398E: 0069FFF740FF03270028164919D000AB 0080624073C183009480A4C1AC21BDC1
009E399E: 188B4A4A904214D0188B00223B1C2085 AC41A40094C18B4183417300001300E0
009E39AE: 00920A1C1C49A5313A205AF012FA44A2 FD420841080108020000F98010002140
009E39BE: 0092331C03220B494AA05AF092F907B0 298039C041004A00001C00E0FF820802
009E39CE: F0BDA4E000004D6D56695F536D696C5F 41082E00E0024108FF42081C00E0F600
009E39DE: 4869646543423A20544558542C204F6B 00C0AB008B806AC0514039C020400800
009E39EE: 61790000000002200000696D706C656D 000100024108FF81101200E0F00000A1
009E39FE: 656E746174696F6E2F6D6D737569766B FDA1F560E521DDC1D481CC41BCC0AB40
009E3A0E: 2F6D6D6564766973632E632835353629 8B807A005A80494031C02000000F00E0
009E3A1E: 3A2000000000310200004D6D56695F53 F90000C049406AC07A408B809BC1AB02
009E3A2E: 6D696C5F4869646543423A2041554449 00B4F9C1AB809B419B018B0183817200
009E3A3E: 4F2C204F6B6179000000696D706C656D 001200E0FF8110024108F60100000040
009E3A4E: 656E746174696F6E2F6D6D737569766B 088018002940318041C049C05100001C
009E3A5E: 2F6D6D6564766973632E632835363129 00E00341082D00E0FF40000341081B00
009E3A6E: 3A20000000004D6D56695F4869646543 E0F8000081BBC09A417AC0594041C028
009E3A7E: 42204572726F722C204D656469615479 8010020000FF0108024108FF82081100
009E3A8E: 706520256400696D706C656D656E7461 E0EF0000C1FC81F481EC80DC41D401CC
009E3A9E: 74696F6E2F6D6D737569766B2F6D6D65 C1C3C1BB40A3C182406AC05180410031
009E3AAE: 64766973632E6328353731293A200000 C02000000E00E0EF00004041C159406A
009E3ABE: 00000942000011B1A7A0FDB0A7A0FF7F 8082C09241A381B3C1BB80B380A3419B
009E3ACE: 00004D6D56695F50726F63657373496D 4093008BC182C17A00001100E0FF8110
009E3ADE: 6167652073756365737366756C6C7900 034108020000F84010C0200031403980
009E3AEE: 0000696D706C656D656E746174696F6E 49C051005A00001C00E0024108FF0000
009E3AFE: 2F6D6D737569766B2F6D6D6564766973 2C00E0FE00000008024108FF81101A00
009E3B0E: 632E6328373236293A20000000000022 E0F7000001C380A2018A81694051C038
009E3B1E: 00923B1C0A1C2F493A205AF05AF92EA2 80184008020000024108FF82081100E0
009E3B2E: 0092331C0322384939A05AF0DAF8A069 EE0000C1FBC1F381EB81E341DB41D301
009E3B3E: 02218843A061A86A30300278FF320270 CB01BB80AA4092C17980614049C13880
009E3B4E: 103461733BE7FEB5011C152080010818 20801800000D00E0EE0000C030005180
009E3B5E: 0290006A032700260125002839D00B22 61C071008A409280AAC0B2C1B281B281
009E3B6E: D2018C18A168002934D158220121F9F7 A2419A4192008A0182C17900001100E0
009E3B7E: 16F900281DD1029800220662A6601549 FF8110024108F5000800004008801880
009E3B8E: E6603B1C19310092204A3A205AF021F9 280031004140514059805900001B00E0
009E3B9E: 2AA20092331C03221C4934A05AF0A1F8 FC42084108000800002B00E0FE000000
009E3BAE: 331C5822FF21483100963B4843F6A4EF 080241081B00E0F4000000C380A20082
009E3BBE: C8E0002208493B1C1E310092134A3A20 80694051C03880284010000001004100
009E3BCE: 5AF007F936A20092331C03220F4940A0 0241081100E0FC000081E340DB41D302
009E3BDE: A3E0A5E093E0E10200004D6D56695F50 01CBF3C1C2C1BA80B241AA0192807940
009E3BEE: 726F63657373496D616765206661696C 610051C04080304020401001000C00E0
009E3BFE: 65642C206465636C61726520696D6167 F700008020C03840518061C071C08101
009E3C0E: 6520646566656374000002200000696D 92409A0241AAF801A2009AC191808981
009E3C1E: 706C656D656E746174696F6E2F6D6D73 814179417100001100E0FD4208410840
009E3C2E: 7569766B2F6D6D6564766973632E6328 08020000F7401080208030C038C04800
009E3C3E: 373337293A20000000004D6D56695F43 510059006100001B00E0024108FE4100
009E3C4E: 6865636B496D61676544657374727563 00002A00E00200000341081A00E0F600
009E3C5E: 74696F6E3A2072656C65617365206F62 0041E000C000A0018000680048003000
009E3C6E: 6A656374206661696C6564000000696D 200008020000FD4108420841081000E0
009E3C7E: 706C656D656E746174696F6E2F6D6D73 EC000041F841F041E840E041D841D041
009E3C8E: 7569766B2F6D6D6564766973632E6328 C841C041B801A8019000780060005000
009E3C9E: 373632293A2000000000094200004D6D 3800280018000800000B00E0F2000000
009E3CAE: 56695F436865636B496D616765446573 1800300048006000700080009040A000
009E3CBE: 7472756374696F6E2C20646573747275 B041B040A840A04198024090FC008041
009E3CCE: 6374696F6E2072657175657374656400 80417800001000E0FF41100241080200
009E3CDE: 0000696D706C656D656E746174696F6E 00F60008001800280038004800500158
009E3CEE: 2F6D6D737569766B2F6D6D6564766973 0060016800001A00E0FD420841084100
009E3CFE: 632E6328373637293A20000000000022 0200002900E0FD000001000000024108
009E3D0E: 00923B1C3A206C4A6D495AF062F86C4A FF81081900E0F6000001800068016000
009E3D1E: 331C6949009203226BA059F0E2FF11E0 48003800280020001000080200000341
009E3D2E: 002266493B1C08310092634A3A205AF0 081000E0FB0000018840800080017802
009E3D3E: 50F86FA20092331C03225F4979A059F0 0070FF0068020060FA00580048003800
009E3D4E: D0FF0025281CFEBDF0B5BFB0051CF3F7 3000280020020010FF00080200000A00
009E3D5E: C8FE041C3AA802903BA9039100220021 E0F70000000800100020002800380040
009E3D6E: 0091049201920623E156192080013423 00480050020058020050FF0148020040
009E3D7E: 28180069594318AA4018C16AA86A0023 020038FD0030002800001000E0024108
009E3D8E: 0069FFF740FD3990002871D030AB988D FF0100020000FD000800100018030020
009E3D9E: 271C2037012360853B7303280BD00428 030028FF00001900E0FC811041084008
009E3DAE: 09D06A2807 4108030000


; ##### Picture 534 #####
00DA10D4: 1F0E88009890E3A0 1F8E8800B33D9EA0

009E3DB3: D04549F131884203D07D21C900884204 7F00E07F00E07F00E07F00E03D00E003
009E3DC3: D130AB188D644988420FD100223E4900 41081C00E0FD000079CE0C630200001A
009E3DD3: 92032331313A203B4A5AF000F85FA200 00E0FF000002FFFFFBBEF7518C00E000
009E3DE3: 9200230322374969A0D1E18122002117 0041081700E0FF000002FFFFFB41088E
009E3DF3: AB18A83EF004EA2721490169183E9108 73FFFFB6B500001700E0FB00008631D3
009E3E03: 8300285BDB6D486C492818061C43F79E 9CBEF7518C02FFFF020000FF4D6B0200
009E3E13: EB608D7D21C90088420CD1387B012809 00FF41081200E0FB410879CE0C634108
009E3E23: D13E991823C85E6549634A0231023A69 8E7302FFFFFE0000BAD602FFFFFD9294
009E3E33: 1817AB05E03E991823C85E5F4A17AB31 042100001100E0FB41088631D39CBEF7
009E3E43: 1C3EF00EEA16903E991823C85E0D21C9 518C02FFFFFF000002FFFFFD00004D6B
009E3E53: 0169183D9100280CDB17A93EF0D4E93D FFFF0400000F00E0F94108000041088E
009E3E63: 99886A032149026918086200203E99C0 73FBDEFFFF000002FFFF020000FAFFFF
009E3E73: 43088353481699814200E044E11FD03D B6B50000FBDE8E7300001100E0020000
009E3E83: 225201608DAA187D21C90088423C9217 FC494A00000421FFFF02000002FFFFFF
009E3E93: D1387B012814D11699C80712D500220A 000002FFFFFD0000410886311300E0FC
009E3EA3: 490092032355313A20064A59F097FF45 00009294FFFF929402FFFFFA0000C318
009E3EB3: A2009200230322034950A068E158E147 518C4108D39C79CE1300E0FF41080200
009E3EC3: E1B7E0B1E00220000006030000343BA3 00FD4D6BBAD60842020000FC8E73BEF7
009E3ED3: A0696D706C656D656E746174696F6E2F 0C6341081600E0034108FA0000FBDE51
009E3EE3: 6D6D737569766B2F6D6D656476697363 8C0000D39C45291900E0FE410800E002
009E3EF3: 2E6328373734293A20000000004D6D56 000002FFFF1C00E0FD00000C6379CE1D
009E3F03: 695F436865636B496D61676544657374 00E0FE000041087F00E07F00E05200E0
009E3F13: 72756374696F6E3A206E6F7468696E67 0300001B00E0FB00008E73CB5A494A00
009E3F23: 20746F2064657374726F790000696D70 001900E0F9000010848E73CB5A494A86
009E3F33: 6C656D656E746174696F6E2F6D6D7375 3100001800E0F9000010848E73CB5A49
009E3F43: 69766B2F6D6D6564766973632E632837 4A863100001800E0F9000010848E73CB
009E3F53: 3832293A2000000000FF7F00004D6D56 5A494A863100001800E0F9000010848E
009E3F63: 695F2050726F63657373546578743A20 73CB5A494A863100001800E0F9000010
