;CX75v25
;Изменение заднего фона картинки при настройки подсветки
;Change background picture at setup illumination
;(c) killer128
;(p) killer128
;Version: 1.0
;PatchID: 8075
;Details: https://patches.kibab.com/patches/details.php5?id=8075
/*
Замена заднего фона подсветки на тему из NFS Carbon
*/
; #######################################################################
; ### This file is made by ©SiemensPictureChange 3.0 - Public Beta    ###
; ### programmed ©2004 by ACiD[mrp], b@iLLi.                          ###
; ### Additional programming by Cluni.                                ###
; ###                                                                 ###
; ### GSM Development Crew - www.gsm-dev.com                          ###
; ### GSM Multifund, Handyhacking - http://www.gsm-multifund.de/board ###
; ###                                                                 ###
; ### Date: 15.10.2007  -  Time: 2:04:08                             ###
; ### Patch for: SIEMENS CX75 v25                                     ###
; #######################################################################


; ##### Picture 1292 #####
010C2884: 84888800F82A1AA1 84888800000003A1

01030000: FFFFFFFFFFFFFFFFFFFFFFFFFFFFFFFF 030020FE00180010020008100000F900
01030010: FFFFFFFFFFFFFFFFFFFFFFFFFFFFFFFF 08001800200030004800580060020068
01030020: FFFFFFFFFFFFFFFFFFFFFFFFFFFFFFFF F8007000780088009800A800B800A800
01030030: FFFFFFFFFFFFFFFFFFFFFFFFFFFFFFFF A0090098FA0090007000480030001800
01030040: FFFFFFFFFFFFFFFFFFFFFFFFFFFFFFFF 084C0000FF0008030020FE0018001002
01030050: FFFFFFFFFFFFFFFFFFFFFFFFFFFFFFFF 0008100000F900080010002000300048
01030060: FFFFFFFFFFFFFFFFFFFFFFFFFFFFFFFF 00580060020068F80070007800800090
01030070: FFFFFFFFFFFFFFFFFFFFFFFFFFFFFFFF 00A000B800A800A0090098FA00880060
01030080: FFFFFFFFFFFFFFFFFFFFFFFFFFFFFFFF 00400028001800084C0000FF00080300
01030090: FFFFFFFFFFFFFFFFFFFFFFFFFFFFFFFF 20FE00180010020008100000F9000800
010300A0: FFFFFFFFFFFFFFFFFFFFFFFFFFFFFFFF 1000200030004800580060030068F900
010300B0: FFFFFFFFFFFFFFFFFFFFFFFFFFFFFFFF 7000780090009800B800B000A0080098
010300C0: FFFFFFFFFFFFFFFFFFFFFFFFFFFFFFFF F900900078005000300020001000084C
010300D0: FFFFFFFFFFFFFFFFFFFFFFFFFFFFFFFF 0000FF0008030020FD00180010000811
010300E0: FFFFFFFFFFFFFFFFFFFFFFFFFFFFFFFF 0000F900080010002000300040005800
010300F0: FFFFFFFFFFFFFFFFFFFFFFFFFFFFFFFF 60030068F9007000780088009800B000
01030100: FFFFFFFFFFFFFFFFFFFFFFFFFFFFFFFF B800A0080098F9008800680048002800
01030110: FFFFFFFFFFFFFFFFFFFFFFFFFFFFFFFF 18001000084B0000020008030020FE00
01030120: FFFFFFFFFFFFFFFFFFFFFFFFFFFFFFFF 180010020008100000F6000800100020
01030130: FFFFFFFFFFFFFFFFFFFFFFFFFFFFFFFF 00280040005800600068006000680200
01030140: FFFFFFFFFFFFFFFFFFFFFFFFFFFFFFFF 70FA0080009800A000C000A800A00700
01030150: FFFFFFFFFFFFFFFFFFFFFFFFFFFFFFFF 98FA0078005800380020001000084C00
01030160: FFFFFFFFFFFFFFFFFFFFFFFFFFFFFFFF 00FE00080010030020FE001800100200
01030170: FFFFFFFFFFFFFFFFFFFFFFFFFFFFFFFF 08100000F70008001000200028004000
01030180: FFFFFFFFFFFFFFFFFFFFFFFFFFFFFFFF 58006000680060020068F90070007800
01030190: FFFFFFFFFFFFFFFFFFFFFFFFFFFFFFFF 9000A000B800B000A0060098F9008800
010301A0: FFFFFFFFFFFFFFFFFFFFFFFFFFFFFFFF 68004800300018001000084C0000FE00
010301B0: FFFFFFFFFFFFFFFFFFFFFFFFFFFFFFFF 080010030020FE001800100200081000
010301C0: FFFFFFFFFFFFFFFFFFFFFFFFFFFFFFFF 00F90008001000200028003800580060
010301D0: FFFFFFFFFFFFFFFFFFFFFFFFFFFFFFFF 050068FA00780088009800B000B800A0
010301E0: FFFFFFFFFFFFFFFFFFFFFFFFFFFFFFFF 060098FB008000600040002800100200
010301F0: FFFFFFFFFFFFFFFFFFFFFFFFFFFFFFFF 084C0000FE00080010030020FE001800
01030200: FFFFFFFFFFFFFFFFFFFFFFFFFFFFFFFF 10020008100000F90008001000180028
01030210: FFFFFFFFFFFFFFFFFFFFFFFFFFFFFFFF 003800500060050068F9007000800090
01030220: FFFFFFFFFFFFFFFFFFFFFFFFFFFFFFFF 00A000B800A800A0040098FB00900070
01030230: FFFFFFFFFFFFFFFFFFFFFFFFFFFFFFFF 0050003800200200084D0000FE001000
01030240: FFFFFFFFFFFFFFFFFFFFFFFFFFFFFFFF 18030020FE00180010020008110000FA
01030250: FFFFFFFFFFFFFFFFFFFFFFFFFFFFFFFF 000800180028003800500060060068FD
01030260: FFFFFFFFFFFFFFFFFFFFFFFFFFFFFFFF 0078009000980200B0FF00A0040098FA
01030270: FFFFFFFFFFFFFFFFFFFFFFFFFFFFFFFF 0090006800480028001800084D0000FD
01030280: FFFFFFFFFFFFFFFFFFFFFFFFFFFFFFFF 000800100018020020020018FF001002
01030290: FFFFFFFFFFFFFFFFFFFFFFFFFFFFFFFF 0008110000FA00080018002800380048
010302A0: FFFFFFFFFFFFFFFFFFFFFFFFFFFFFFFF 0060030068020060F900680070008000
010302B0: FFFFFFFFFFFFFFFFFFFFFFFFFFFFFFFF 9800A800B000A0040098FA0088006000
010302C0: FFFFFFFFFFFFFFFFFFFFFFFFFFFFFFFF 400028001000084D0000FD0008001000
010302D0: FFFFFFFFFFFFFFFFFFFFFFFFFFFFFFFF 18020020020018FF0010020008110000
010302E0: FFFFFFFFFFFFFFFFFFFFFFFFFFFFFFFF F9000800100020003000480058006002
010302F0: FFFFFFFFFFFFFFFFFFFFFFFFFFFFFFFF 0068030060F900680078009000A000B0
01030300: FFFFFFFFFFFFFFFFFFFFFFFFFFFFFFFF 00A800A0030098FA0080005800400020
01030310: FFFFFFFFFFFFFFFFFFFFFFFFFFFFFFFF 001000084D0000FE00080010040020FE
01030320: FFFFFFFFFFFFFFFFFFFFFFFFFFFFFFFF 00180010020008110000F80008001000
01030330: FFFFFFFFFFFFFFFFFFFFFFFFFFFFFFFF 2000300040005800602068050060FA00
01030340: FFFFFFFFFFFFFFFFFFFFFFFFFFFFFFFF 700080009800A800B000A0030098FB00
01030350: FFFFFFFFFFFFFFFFFFFFFFFFFFFFFFFF 8000580038002000104E0000FE000800
01030360: FFFFFFFFFFFFFFFFFFFFFFFFFFFFFFFF 10040020FE00180010020008110000F9
01030370: FFFFFFFFFFFFFFFFFFFFFFFFFFFFFFFF 00080010002000280038005800600200
01030380: FFFFFFFFFFFFFFFFFFFFFFFFFFFFFFFF 68040060FC00680078009000A00200A8
01030390: FFFFFFFFFFFFFFFFFFFFFFFFFFFFFFFF FF00A0020098FB007800580038002000
010303A0: FFFFFFFFFFFFFFFFFFFFFFFFFFFFFFFF 104E0000FE00080010040020FE001800
010303B0: FFFFFFFFFFFFFFFFFFFFFFFFFFFFFFFF 10020008110000F90008001000180028
010303C0: FFFFFFFFFFFFFFFFFFFFFFFFFFFFFFFF 003800500060020068050060F2006800
010303D0: FFFFFFFFFFFFFFFFFFFFFFFFFFFFFFFF 80009000A000A800A000980090007800
010303E0: FFFFFFFFFFFFFFFFFFFFFFFFFFFFFFFF 5800400020001000084D0000FE000800
010303F0: FFFFFFFFFFFFFFFFFFFFFFFFFFFFFFFF 10040020FE0018001002000811000002
01030400: FFFFFFFFFFFFFFFFFFFFFFFFFFFFFFFF 0008F900180020003000480058006000
01030410: FFFFFFFFFFFFFFFFFFFFFFFFFFFFFFFF 68040060FB0058006000780088009802
01030420: FFFFFFFFFFFFFFFFFFFFFFFFFFFFFFFF 00A0F800980090007800580038002000
01030430: FFFFFFFFFFFFFFFFFFFFFFFFFFFFFFFF 1000084D0000FE00080010040020FE00
01030440: FFFFFFFFFFFFFFFFFFFFFFFFFFFFFFFF 180010020008120000FB000800100020
01030450: FFFFFFFFFFFFFFFFFFFFFFFFFFFFFFFF 00300040020060FF2068040060F10058
01030460: FFFFFFFFFFFFFFFFFFFFFFFFFFFFFFFF 0060006800780088009800A000980088
01030470: FFFFFFFFFFFFFFFFFFFFFFFFFFFFFFFF 0070005000400028001800084D0000FE
01030480: FFFFFFFFFFFFFFFFFFFFFFFFFFFFFFFF 00080010040020FD0018001000081300
01030490: FFFFFFFFFFFFFFFFFFFFFFFFFFFFFFFF 00FB0008001000200030004002005802
010304A0: FFFFFFFFFFFFFFFFFFFFFFFFFFFFFFFF 0068030060020058FC00600068007800
010304B0: FFFFFFFFFFFFFFFFFFFFFFFFFFFFFFFF 80020090F90080006800500038002800
010304C0: FFFFFFFFFFFFFFFFFFFFFFFFFFFFFFFF 1800084D0000FE00080010040020FE00
010304D0: FFFFFFFFFFFFFFFFFFFFFFFFFFFFFFFF 180010020008120000F9000800100018
010304E0: FFFFFFFFFFFFFFFFFFFFFFFFFFFFFFFF 0028003800500058030068FF00600400
010304F0: FFFFFFFFFFFFFFFFFFFFFFFFFFFFFFFF 58FD006000680070020078F900700060
01030500: FFFFFFFFFFFFFFFFFFFFFFFFFFFFFFFF 005000380028001800084D0000FD0008
01030510: FFFFFFFFFFFFFFFFFFFFFFFFFFFFFFFF 00100018030020FD0018001000081300
01030520: FFFFFFFFFFFFFFFFFFFFFFFFFFFFFFFF 00020008FC0018002800300048020060
01030530: FFFFFFFFFFFFFFFFFFFFFFFFFFFFFFFF FE00700068030060FC00580050005800
01030540: FFFFFFFFFFFFFFFFFFFFFFFFFFFFFFFF 60030068F90060005800480038002800
01030550: FFFFFFFFFFFFFFFFFFFFFFFFFFFFFFFF 1800084D0000FD000800100018030020
01030560: FFFFFFFFFFFFFFFFFFFFFFFFFFFFFFFF FD001800100008140000F70008001000
01030570: FFFFFFFFFFFFFFFFFFFFFFFFFFFFFFFF 20003000400058006000700068020060
01030580: FFFFFFFFFFFFFFFFFFFFFFFFFFFFFFFF 020058020050050058FA005000400030
01030590: FFFFFFFFFFFFFFFFFFFFFFFFFFFFFFFF 0020001800081B00000600082C0000FD
010305A0: FFFFFFFFFFFFFFFFFFFFFFFFFFFFFFFF 000800100018030020FD001800100008
010305B0: FFFFFFFFFFFFFFFFFFFFFFFFFFFFFFFF 140000F5000800100018002800380050
010305C0: FFFFFFFFFFFFFFFFFFFFFFFFFFFFFFFF 00600068007000680060020058070050
010305D0: FFFFFFFFFFFFFFFFFFFFFFFFFFFFFFFF FB004000380028002000100200081800
010305E0: FFFFFFFFFFFFFFFFFFFFFFFFFFFFFFFF 00100008240000FD0008001000180300
010305F0: FFFFFFFFFFFFFFFFFFFFFFFFFFFFFFFF 20FE00180010020008130000FA000800
01030600: FFFFFFFFFFFFFFFFFFFFFFFFFFFFFFFF 100018002000300048020060FF207002
01030610: FFFFFFFFFFFFFFFFFFFFFFFFFFFFFFFF 0068FF0060020058040048020040FB00
01030620: FFFFFFFFFFFFFFFFFFFFFFFFFFFFFFFF 38003000280018001002000817000017
01030630: FFFFFFFFFFFFFFFFFFFFFFFFFFFFFFFF 00081F0000FE00100018030020FF0018
01030640: FFFFFFFFFFFFFFFFFFFFFFFFFFFFFFFF 020010FF0008140000F6000800100020
01030650: FFFFFFFFFFFFFFFFFFFFFFFFFFFFFFFF 00300040205800600068007000680200
01030660: FFFFFFFFFFFFFFFFFFFFFFFFFFFFFFFF 60FD005800500048030040FA00380030
01030670: FFFFFFFFFFFFFFFFFFFFFFFFFFFFFFFF 00280020001800100200081600000700
01030680: FFFFFFFFFFFFFFFFFFFFFFFFFFFFFFFF 08FC00100008001000080B0010070008
01030690: FFFFFFFFFFFFFFFFFFFFFFFFFFFFFFFF 1A0000FE00080018030020FF00180200
010306A0: FFFFFFFFFFFFFFFFFFFFFFFFFFFFFFFF 10FF0008140000FA0008001000180028
010306B0: FFFFFFFFFFFFFFFFFFFFFFFFFFFFFFFF 00380050020060FF0078020068FC0060
010306C0: FFFFFFFFFFFFFFFFFFFFFFFFFFFFFFFF 005800500048020040020038FA003000
010306D0: FFFFFFFFFFFFFFFFFFFFFFFFFFFFFFFF 2800200018001000081600000400080B
010306E0: FFFFFFFFFFFFFFFFFFFFFFFFFFFFFFFF 0010080018060010050008160000FE00
010306F0: FFFFFFFFFFFFFFFFFFFFFFFFFFFFFFFF 080010030020FF0018020010FF000814
01030700: FFFFFFFFFFFFFFFFFFFFFFFFFFFFFFFF 0000020008FA00180020003000402060
01030710: FFFFFFFFFFFFFFFFFFFFFFFFFFFFFFFF 0060020070FD006800600058020050FA
01030720: FFFFFFFFFFFFFFFFFFFFFFFFFFFFFFFF 004800400038003000280020020018FE
01030730: FFFFFFFFFFFFFFFFFFFFFFFFFFFFFFFF 00100008160000030008070010050018
01030740: FFFFFFFFFFFFFFFFFFFFFFFFFFFFFFFF 0B0020040018040010040008120000FE
01030750: FFFFFFFFFFFFFFFFFFFFFFFFFFFFFFFF 00080010030020FF0018020010FF0008
01030760: FFFFFFFFFFFFFFFFFFFFFFFFFFFFFFFF 140000020008FB001000200028003800
01030770: FFFFFFFFFFFFFFFFFFFFFFFFFFFFFFFF 50020060FF2070020068F70060005800
01030780: FFFFFFFFFFFFFFFFFFFFFFFFFFFFFFFF 50004800400038003000280020020018
01030790: FFFFFFFFFFFFFFFFFFFFFFFFFFFFFFFF FF001002000814000004000803001007
010307A0: FFFFFFFFFFFFFFFFFFFFFFFFFFFFFFFF 0018020020FF00280800300400280400
010307B0: FFFFFFFFFFFFFFFFFFFFFFFFFFFFFFFF 200300180200100400080F0000FE0008
010307C0: FFFFFFFFFFFFFFFFFFFFFFFFFFFFFFFF 0010030020FF0018020010FF00081500
010307D0: FFFFFFFFFFFFFFFFFFFFFFFFFFFFFFFF 00FA0008001000180028003000400200
010307E0: FFFFFFFFFFFFFFFFFFFFFFFFFFFFFFFF 60020070FF0068020060FA0058005000
010307F0: FFFFFFFFFFFFFFFFFFFFFFFFFFFFFFFF 48004000300028020020FF0018020010
01030800: FFFFFFFFFFFFFFFFFFFFFFFFFFFFFFFF 02000813000003000802001002001802
01030810: FFFFFFFFFFFFFFFFFFFFFFFFFFFFFFFF 00200200280600300300380500400300
01030820: FFFFFFFFFFFFFFFFFFFFFFFFFFFFFFFF 38040030020028030020020018020010
01030830: FFFFFFFFFFFFFFFFFFFFFFFFFFFFFFFF 0300080D0000020008030020FF001802
01030840: FFFFFFFFFFFFFFFFFFFFFFFFFFFFFFFF 0010020008150000FA00080010002000
01030850: FFFFFFFFFFFFFFFFFFFFFFFFFFFFFFFF 2800380050020060FF2070020068FE00
01030860: FFFFFFFFFFFFFFFFFFFFFFFFFFFFFFFF 600058020050FB004800380030002800
01030870: FFFFFFFFFFFFFFFFFFFFFFFFFFFFFFFF 200200180200100300080600000D0008
01030880: FFFFFFFFFFFFFFFFFFFFFFFFFFFFFFFF 030010040018020020FB002800300038
01030890: FFFFFFFFFFFFFFFFFFFFFFFFFFFFFFFF 00400148022050020058030050030048
010308A0: FFFFFFFFFFFFFFFFFFFFFFFFFFFFFFFF 05004002003802003002002802002002
010308B0: FFFFFFFFFFFFFFFFFFFFFFFFFFFFFFFF 00180200100300080C0000FF00080300
010308C0: FFFFFFFFFFFFFFFFFFFFFFFFFFFFFFFF 20020018FF0010020008150000FA0008
010308D0: FFFFFFFFFFFFFFFFFFFFFFFFFFFFFFFF 00100018002000300040030060FF2070
010308E0: FFFFFFFFFFFFFFFFFFFFFFFFFFFFFFFF 020068F7006000580050004800400038
010308F0: FFFFFFFFFFFFFFFFFFFFFFFFFFFFFFFF 00300028002002001802001011000805
01030900: FFFFFFFFFFFFFFFFFFFFFFFFFFFFFFFF 0010070018030020F500280030003800
01030910: FFFFFFFFFFFFFFFFFFFFFFFFFFFFFFFF 40004800502060006000682068006802
01030920: FFFFFFFFFFFFFFFFFFFFFFFFFFFFFFFF 0060020058030048030040030038FF00
01030930: FFFFFFFFFFFFFFFFFFFFFFFFFFFFFFFF 30020028020020020018020010030008
01030940: FFFFFFFFFFFFFFFFFFFFFFFFFFFFFFFF 090000FF0008030020020018FF001002
01030950: FFFFFFFFFFFFFFFFFFFFFFFFFFFFFFFF 0008150000020008F600100020003000
01030960: FFFFFFFFFFFFFFFFFFFFFFFFFFFFFFFF 38005000680060207000700068020060
01030970: FFFFFFFFFFFFFFFFFFFFFFFFFFFFFFFF F8005800500048004000380030002800
01030980: FFFFFFFFFFFFFFFFFFFFFFFFFFFFFFFF 20020018040010FF00080F0010070018
01030990: FFFFFFFFFFFFFFFFFFFFFFFFFFFFFFFF 040020020028FC003000380040004802
010309A0: FFFFFFFFFFFFFFFFFFFFFFFFFFFFFFFF 0050FF0058030060060068FF00600200
010309B0: FFFFFFFFFFFFFFFFFFFFFFFFFFFFFFFF 58020050020048020040FF0038020030
010309C0: FFFFFFFFFFFFFFFFFFFFFFFFFFFFFFFF FF002802002002001802001002000808
010309D0: FFFFFFFFFFFFFFFFFFFFFFFFFFFFFFFF 0000FE00080028020020020018FF0010
010309E0: FFFFFFFFFFFFFFFFFFFFFFFFFFFFFFFF 020008160000FA000800100018002800
010309F0: FFFFFFFFFFFFFFFFFFFFFFFFFFFFFFFF 300040030060FD207000700068020060
01030A00: FFFFFFFFFFFFFFFFFFFFFFFFFFFFFFFF F9005800500048004000380030002802
01030A10: FFFFFFFFFFFFFFFFFFFFFFFFFFFFFFFF 00200200180600100E00180800200300
01030A20: FFFFFFFFFFFFFFFFFFFFFFFFFFFFFFFF 28F80030003800400050005800600068
01030A30: FFFFFFFFFFFFFFFFFFFFFFFFFFFFFFFF 2068020070070068020070FF00680200
01030A40: FFFFFFFFFFFFFFFFFFFFFFFFFFFFFFFF 60FD005800500048020040FF00380200
01030A50: FFFFFFFFFFFFFFFFFFFFFFFFFFFFFFFF 30020028FE0020001802001002000808
01030A60: FFFFFFFFFFFFFFFFFFFFFFFFFFFFFFFF 0000020028020020FE00180010020008
01030A70: FFFFFFFFFFFFFFFFFFFFFFFFFFFFFFFF 160000020008FB001000200028003800
01030A80: FFFFFFFFFFFFFFFFFFFFFFFFFFFFFFFF 48020060FE00680078020068FF006002
01030A90: FFFFFFFFFFFFFFFFFFFFFFFFFFFFFFFF 0058020048020040FF00300200280200
01030AA0: FFFFFFFFFFFFFFFFFFFFFFFFFFFFFFFF 20070018110020050028020030FB0038
01030AB0: FFFFFFFFFFFFFFFFFFFFFFFFFFFFFFFF 00400048005800600200700500780200
01030AC0: FFFFFFFFFFFFFFFFFFFFFFFFFFFFFFFF 70050068040070FD0068006000580200
01030AD0: FFFFFFFFFFFFFFFFFFFFFFFFFFFFFFFF 48FF0040020038FF0030020028FF0020
01030AE0: FFFFFFFFFFFFFFFFFFFFFFFFFFFFFFFF 020018FF0010030008050000FA002800
01030AF0: FFFFFFFFFFFFFFFFFFFFFFFFFFFFFFFF 200028002000180010020008170000F9
01030B00: FFFFFFFFFFFFFFFFFFFFFFFFFFFFFFFF 00080010001800200030003800580200
01030B10: FFFFFFFFFFFFFFFFFFFFFFFFFFFFFFFF 60FE00680078020068FF0060020058FE
01030B20: FFFFFFFFFFFFFFFFFFFFFFFFFFFFFFFF 00500048020040FE0038003002002807
01030B30: FFFFFFFFFFFFFFFFFFFFFFFFFFFFFFFF 00200F0028070030020038020040FE00
01030B40: FFFFFFFFFFFFFFFFFFFFFFFFFFFFFFFF 480058020060FF00700500780E0070FC
01030B50: FFFFFFFFFFFFFFFFFFFFFFFFFFFFFFFF 0060005800500048020040020038FC00
01030B60: FFFFFFFFFFFFFFFFFFFFFFFFFFFFFFFF 30002800200018020010FF0008050000
01030B70: FFFFFFFFFFFFFFFFFFFFFFFFFFFFFFFF FA002800200028002000180010020008
01030B80: FFFFFFFFFFFFFFFFFFFFFFFFFFFFFFFF 180000F3000800100018002800300040
01030B90: FFFFFFFFFFFFFFFFFFFFFFFFFFFFFFFF 00580068006000700078006820680200
01030BA0: FFFFFFFFFFFFFFFFFFFFFFFFFFFFFFFF 60FD005800500048020040FF00380200
01030BB0: FFFFFFFFFFFFFFFFFFFFFFFFFFFFFFFF 300700280900300E0038020040FE0048
01030BC0: FFFFFFFFFFFFFFFFFFFFFFFFFFFFFFFF 0050020058FE00600068020070040078
01030BD0: FFFFFFFFFFFFFFFFFFFFFFFFFFFFFFFF 060070030078050070FC006800600058
01030BE0: FFFFFFFFFFFFFFFFFFFFFFFFFFFFFFFF 0050020048FF0040020038FB00300028
01030BF0: FFFFFFFFFFFFFFFFFFFFFFFFFFFFFFFF 002000180010020008030000020020FE
01030C00: FFFFFFFFFFFFFFFFFFFFFFFFFFFFFFFF 00280020020018FE0010000818000002
01030C10: FFFFFFFFFFFFFFFFFFFFFFFFFFFFFFFF 0008FB00100020002800380040030060
01030C20: FFFFFFFFFFFFFFFFFFFFFFFFFFFFFFFF FD017020780068030060FE0058005002
01030C30: FFFFFFFFFFFFFFFFFFFFFFFFFFFFFFFF 0048020040020038070030FE00380030
01030C40: FFFFFFFFFFFFFFFFFFFFFFFFFFFFFFFF 08003802004006003805004002004802
01030C50: FFFFFFFFFFFFFFFFFFFFFFFFFFFFFFFF 0050030060FF0068110070060068FE00
01030C60: FFFFFFFFFFFFFFFFFFFFFFFFFFFFFFFF 600050020048FF0040020038FC002800
01030C70: FFFFFFFFFFFFFFFFFFFFFFFFFFFFFFFF 2000180010020008020000FB00280020
01030C80: FFFFFFFFFFFFFFFFFFFFFFFFFFFFFFFF 002800200018020010FF000818000002
01030C90: FFFFFFFFFFFFFFFFFFFFFFFFFFFFFFFF 0008F900100018002000300038004800
01030CA0: FFFFFFFFFFFFFFFFFFFFFFFFFFFFFFFF 68020060FE00782078020068020060FF
01030CB0: FFFFFFFFFFFFFFFFFFFFFFFFFFFFFFFF 0058020050FF0048030040070038FE00
01030CC0: FFFFFFFFFFFFFFFFFFFFFFFFFFFFFFFF 40003807004004004809004002004802
01030CD0: FFFFFFFFFFFFFFFFFFFFFFFFFFFFFFFF 00500200580200600400680700700300
01030CE0: FFFFFFFFFFFFFFFFFFFFFFFFFFFFFFFF 78040070080068F90060005800500048
01030CF0: FFFFFFFFFFFFFFFFFFFFFFFFFFFFFFFF 004000380028020020020010FE000800
01030D00: FFFFFFFFFFFFFFFFFFFFFFFFFFFFFFFF 00040020020018FE0010000819000002
01030D10: FFFFFFFFFFFFFFFFFFFFFFFFFFFFFFFF 0008F900100018002800300038005000
01030D20: FFFFFFFFFFFFFFFFFFFFFFFFFFFFFFFF 68020060FE00700078030068FF006002
01030D30: FFFFFFFFFFFFFFFFFFFFFFFFFFFFFFFF 0058FE005000481000400F0048040050
01030D40: FFFFFFFFFFFFFFFFFFFFFFFFFFFFFFFF 02005803006008006809007007006802
01030D50: FFFFFFFFFFFFFFFFFFFFFFFFFFFFFFFF 0070F600680060005800500048003800
01030D60: FFFFFFFFFFFFFFFFFFFFFFFFFFFFFFFF 30002800180010020008020028030020
01030D70: FFFFFFFFFFFFFFFFFFFFFFFFFFFFFFFF FE00180010020008190000020008F900
01030D80: FFFFFFFFFFFFFFFFFFFFFFFFFFFFFFFF 10001800280030004000582068020060
01030D90: FFFFFFFFFFFFFFFFFFFFFFFFFFFFFFFF FD007000780068030060020058020050
01030DA0: FFFFFFFFFFFFFFFFFFFFFFFFFFFFFFFF 0200480200400700480D004006004804
01030DB0: FFFFFFFFFFFFFFFFFFFFFFFFFFFFFFFF 00500300580800600500680500700900
01030DC0: FFFFFFFFFFFFFFFFFFFFFFFFFFFFFFFF 68030070F80068005800500048004000
01030DD0: FFFFFFFFFFFFFFFFFFFFFFFFFFFFFFFF 3000280020020010FF0020030028FC00
01030DE0: FFFFFFFFFFFFFFFFFFFFFFFFFFFFFFFF 200018001000081B0000F70008001000
01030DF0: FFFFFFFFFFFFFFFFFFFFFFFFFFFFFFFF 18002000280038004000500068020060
01030E00: FFFFFFFFFFFFFFFFFFFFFFFFFFFFFFFF FD007000780070020060FE0068006002
01030E10: FFFFFFFFFFFFFFFFFFFFFFFFFFFFFFFF 00580300500400480400501200480500
01030E20: FFFFFFFFFFFFFFFFFFFFFFFFFFFFFFFF 500400580A0060090068050060020068
01030E30: FFFFFFFFFFFFFFFFFFFFFFFFFFFFFFFF 040070F6006800600058004800400030
01030E40: FFFFFFFFFFFFFFFFFFFFFFFFFFFFFFFF 0028001800100020030028FD00200018
01030E50: FFFFFFFFFFFFFFFFFFFFFFFFFFFFFFFF 00100200081B0000FB00080010001800
01030E60: FFFFFFFFFFFFFFFFFFFFFFFFFFFFFFFF 200028020038FB005001680060005800
01030E70: FFFFFFFFFFFFFFFFFFFFFFFFFFFFFFFF 68020078FF0068040060040058030050
01030E80: FFFFFFFFFFFFFFFFFFFFFFFFFFFFFFFF 0A00480B0050090058070060FF006804
01030E90: FFFFFFFFFFFFFFFFFFFFFFFFFFFFFFFF 00600200680C0060020068030070F800
01030EA0: FFFFFFFFFFFFFFFFFFFFFFFFFFFFFFFF 78007000680058005000400038002802
01030EB0: FFFFFFFFFFFFFFFFFFFFFFFFFFFFFFFF 0020030028FE00200018020010FF0008
01030EC0: FFFFFFFFFFFFFFFFFFFFFFFFFFFFFFFF 1B0000020008F9001000180020002800
01030ED0: FFFFFFFFFFFFFFFFFFFFFFFFFFFFFFFF 3800400048020068FB00580060007000
01030EE0: FFFFFFFFFFFFFFFFFFFFFFFFFFFFFFFF 78207002006805006003005805005015
01030EF0: FFFFFFFFFFFFFFFFFFFFFFFFFFFFFFFF 00480500500400580200600400681100
01030F00: FFFFFFFFFFFFFFFFFFFFFFFFFFFFFFFF 60020068030070F80078006800580050
01030F10: FFFFFFFFFFFFFFFFFFFFFFFFFFFFFFFF 00400038002800200300280200200200
01030F20: FFFFFFFFFFFFFFFFFFFFFFFFFFFFFFFF 10FF00081C0000020008FC0010001800
01030F30: FFFFFFFFFFFFFFFFFFFFFFFFFFFFFFFF 200028020038FA004800600068006000
01030F40: FFFFFFFFFFFFFFFFFFFFFFFFFFFFFFFF 580068020078FD207000680060030068
01030F50: FFFFFFFFFFFFFFFFFFFFFFFFFFFFFFFF 030060030058050050050048020040FF
01030F60: FFFFFFFFFFFFFFFFFFFFFFFFFFFFFFFF 00480A0040080048030050030058FE00
01030F70: FFFFFFFFFFFFFFFFFFFFFFFFFFFFFFFF 60006805006009005803006002006802
01030F80: FFFFFFFFFFFFFFFFFFFFFFFFFFFFFFFF 0070F900780070006800600050004000
01030F90: FFFFFFFFFFFFFFFFFFFFFFFFFFFFFFFF 38020020020028020020FD0018001000
01030FA0: FFFFFFFFFFFFFFFFFFFFFFFFFFFFFFFF 081D0000020008F60010001800200028
01030FB0: FFFFFFFFFFFFFFFFFFFFFFFFFFFFFFFF 003000380040005821680068020060FC
01030FC0: FFFFFFFFFFFFFFFFFFFFFFFFFFFFFFFF 00702178007800700600680300600500
01030FD0: FFFFFFFFFFFFFFFFFFFFFFFFFFFFFFFF 580400500500480F0040060048030050
01030FE0: FFFFFFFFFFFFFFFFFFFFFFFFFFFFFFFF FF00580500600B005802006002006804
01030FF0: FFFFFFFFFFFFFFFFFFFFFFFFFFFFFFFF 0070FC00680058005000400200200300
01031000: FFFFFFFFFFFFFFFFFFFFFFFFFFFFFFFF 28FC00200018001000081E0000020008
01031010: FFFFFFFFFFFFFFFFFFFFFFFFFFFFFFFF F6001000180020002800300038004000
01031020: FFFFFFFFFFFFFFFFFFFFFFFFFFFFFFFF 5020600070020060FB00680070007800
01031030: FFFFFFFFFFFFFFFFFFFFFFFFFFFFFFFF 80007009006804006003005804005005
01031040: FFFFFFFFFFFFFFFFFFFFFFFFFFFFFFFF 00480F0040050048030050FF00580200
01031050: FFFFFFFFFFFFFFFFFFFFFFFFFFFFFFFF 60020058020050FF0058040050030058
01031060: FFFFFFFFFFFFFFFFFFFFFFFFFFFFFFFF 020060020068030070FC007800680058
01031070: FFFFFFFFFFFFFFFFFFFFFFFFFFFFFFFF 0050020020030028FC00200018001000
01031080: FFFFFFFFFFFFFFFFFFFFFFFFFFFFFFFF 081F0000020008FF0010020018FD0020
01031090: FFFFFFFFFFFFFFFFFFFFFFFFFFFFFFFF 00280038020040F50058206800700060
010310A0: FFFFFFFFFFFFFFFFFFFFFFFFFFFFFFFF 00580068007001802180207800700200
010310B0: FFFFFFFFFFFFFFFFFFFFFFFFFFFFFFFF 68FF0070020068030070040068030060
010310C0: FFFFFFFFFFFFFFFFFFFFFFFFFFFFFFFF 04005802005004004807004002003808
010310D0: FFFFFFFFFFFFFFFFFFFFFFFFFFFFFFFF 0040050048FF00500300580800500300
010310E0: FFFFFFFFFFFFFFFFFFFFFFFFFFFFFFFF 58FF0060020068020070020078FC0068
010310F0: FFFFFFFFFFFFFFFFFFFFFFFFFFFFFFFF 005800180020030028FD002000180010
01031100: FFFFFFFFFFFFFFFFFFFFFFFFFFFFFFFF 0200081F0000020008020010F5001800
01031110: FFFFFFFFFFFFFFFFFFFFFFFFFFFFFFFF 20002800300038004000480060017000
01031120: FFFFFFFFFFFFFFFFFFFFFFFFFFFFFFFF 700068020060FB007001802180008000
01031130: FFFFFFFFFFFFFFFFFFFFFFFFFFFFFFFF 78030070FF2070080070030068030060
01031140: FFFFFFFFFFFFFFFFFFFFFFFFFFFFFFFF 03005802005003004804004007003806
01031150: FFFFFFFFFFFFFFFFFFFFFFFFFFFFFFFF 0040FE00480040030048020058FF0050
01031160: FFFFFFFFFFFFFFFFFFFFFFFFFFFFFFFF 020048050050030058020060FF006802
01031170: FFFFFFFFFFFFFFFFFFFFFFFFFFFFFFFF 0070FB00780070006800180020030028
01031180: FFFFFFFFFFFFFFFFFFFFFFFFFFFFFFFF FF0020020018FE001000082000000200
01031190: FFFFFFFFFFFFFFFFFFFFFFFFFFFFFFFF 08020010FE00180020020028FF003802
010311A0: FFFFFFFFFFFFFFFFFFFFFFFFFFFFFFFF 0040F600480058206820700070006800
010311B0: FFFFFFFFFFFFFFFFFFFFFFFFFFFFFFFF 60006800782080030088FF0080080078
010311C0: FFFFFFFFFFFFFFFFFFFFFFFFFFFFFFFF 04007003006804006002005803005002
010311D0: FFFFFFFFFFFFFFFFFFFFFFFFFFFFFFFF 0048020040080038090040FF00480300
010311E0: FFFFFFFFFFFFFFFFFFFFFFFFFFFFFFFF 50020048020050FF0048020050020058
010311F0: FFFFFFFFFFFFFFFFFFFFFFFFFFFFFFFF 020060FF0068020070020078FE001800
01031200: FFFFFFFFFFFFFFFFFFFFFFFFFFFFFFFF 20040028FC0020001800100008220000
01031210: FFFFFFFFFFFFFFFFFFFFFFFFFFFFFFFF 020008FF0010020018FC002000280030
01031220: FFFFFFFFFFFFFFFFFFFFFFFFFFFFFFFF 0038020040FA00480058206820700078
01031230: FFFFFFFFFFFFFFFFFFFFFFFFFFFFFFFF 0070020068FD007000780080040090FF
01031240: FFFFFFFFFFFFFFFFFFFFFFFFFFFFFFFF 00880200800500780300700300680400
01031250: FFFFFFFFFFFFFFFFFFFFFFFFFFFFFFFF 600300580200500200480200400C0038
01031260: FFFFFFFFFFFFFFFFFFFFFFFFFFFFFFFF 050040FD004801580050050048030050
01031270: FFFFFFFFFFFFFFFFFFFFFFFFFFFFFFFF FF0058020060FE00680070020078FE00
01031280: FFFFFFFFFFFFFFFFFFFFFFFFFFFFFFFF 180020040028FC002000180010000823
01031290: FFFFFFFFFFFFFFFFFFFFFFFFFFFFFFFF 0000020008020010FF0018020020FD00
010312A0: FFFFFFFFFFFFFFFFFFFFFFFFFFFFFFFF 2800300038020040FB00480050006001
010312B0: FFFFFFFFFFFFFFFFFFFFFFFFFFFFFFFF 702178020078020070FA007800800088
010312C0: FFFFFFFFFFFFFFFFFFFFFFFFFFFFFFFF 009020982198020098FE009000880200
010312D0: FFFFFFFFFFFFFFFFFFFFFFFFFFFFFFFF 80020078FF2070030070020068030060
010312E0: FFFFFFFFFFFFFFFFFFFFFFFFFFFFFFFF 03005802005002004802004004003803
010312F0: FFFFFFFFFFFFFFFFFFFFFFFFFFFFFFFF 00300700380400400300500400480200
01031300: FFFFFFFFFFFFFFFFFFFFFFFFFFFFFFFF 50030058FB0060006800700078001802
01031310: FFFFFFFFFFFFFFFFFFFFFFFFFFFFFFFF 0020030028FE00200018020010FF0008
01031320: FFFFFFFFFFFFFFFFFFFFFFFFFFFFFFFF 230000030008FF0010020018020020FD
01031330: FFFFFFFFFFFFFFFFFFFFFFFFFFFFFFFF 002800300038020040F9004800500060
01031340: FFFFFFFFFFFFFFFFFFFFFFFFFFFFFFFF 00680078208020880200880200800200
01031350: FFFFFFFFFFFFFFFFFFFFFFFFFFFFFFFF 88FE009000980300A0FB009820900090
01031360: FFFFFFFFFFFFFFFFFFFFFFFFFFFFFFFF 00880080020078030070020068020060
01031370: FFFFFFFFFFFFFFFFFFFFFFFFFFFFFFFF 020058020050FF004802004004003807
01031380: FFFFFFFFFFFFFFFFFFFFFFFFFFFFFFFF 0030060038020040FE00480050040048
01031390: FFFFFFFFFFFFFFFFFFFFFFFFFFFFFFFF 040050FF0058020060FD007000780018
010313A0: FFFFFFFFFFFFFFFFFFFFFFFFFFFFFFFF 020020040028FC002000180010000825
010313B0: FFFFFFFFFFFFFFFFFFFFFFFFFFFFFFFF 0000020008030010FF0018020020FF00
010313C0: FFFFFFFFFFFFFFFFFFFFFFFFFFFFFFFF 28020030FF0038020040F60048005000
010313D0: FFFFFFFFFFFFFFFFFFFFFFFFFFFFFFFF 58006800782080208820900098209004
010313E0: FFFFFFFFFFFFFFFFFFFFFFFFFFFFFFFF 0090FC009800A020A020A80200A0FF00
010313F0: FFFFFFFFFFFFFFFFFFFFFFFFFFFFFFFF 98020088FE0080007802007002006802
01031400: FFFFFFFFFFFFFFFFFFFFFFFFFFFFFFFF 0060FE00580050020048FF0040020038
01031410: FFFFFFFFFFFFFFFFFFFFFFFFFFFFFFFF 0E0030030038FE00400048020050FF00
01031420: FFFFFFFFFFFFFFFFFFFFFFFFFFFFFFFF 48060050FC0058006000680070020018
01031430: FFFFFFFFFFFFFFFFFFFFFFFFFFFFFFFF FF0020020028FA003000280020001800
01031440: FFFFFFFFFFFFFFFFFFFFFFFFFFFFFFFF 10000827000002000802001002001802
01031450: FFFFFFFFFFFFFFFFFFFFFFFFFFFFFFFF 0020FF0028020030FF0038020040F400
01031460: FFFFFFFFFFFFFFFFFFFFFFFFFFFFFFFF 48005000580060006800700078008020
01031470: FFFFFFFFFFFFFFFFFFFFFFFFFFFFFFFF 902098219801A00300A00200A8FE20A8
01031480: FFFFFFFFFFFFFFFFFFFFFFFFFFFFFFFF 00B00220A8F900A00098008800800078
01031490: FFFFFFFFFFFFFFFFFFFFFFFFFFFFFFFF 00700068020060FC0058005000480040
010314A0: FFFFFFFFFFFFFFFFFFFFFFFFFFFFFFFF 020038020030FF00280D0030020038FD
010314B0: FFFFFFFFFFFFFFFFFFFFFFFFFFFFFFFF 004000480058070050020058FE006000
010314C0: FFFFFFFFFFFFFFFFFFFFFFFFFFFFFFFF 70020018FF0020020028FA0030002800
010314D0: FFFFFFFFFFFFFFFFFFFFFFFFFFFFFFFF 20001800100008280000030008020010
010314E0: FFFFFFFFFFFFFFFFFFFFFFFFFFFFFFFF 020018020020020028FF0030020038FD
010314F0: FFFFFFFFFFFFFFFFFFFFFFFFFFFFFFFF 004000480050020058020060FF006802
01031500: FFFFFFFFFFFFFFFFFFFFFFFFFFFFFFFF 0070FC00780080008800900200980200
01031510: FFFFFFFFFFFFFFFFFFFFFFFFFFFFFFFF A0FE00A820A80200B0F400A800A00090
01031520: FFFFFFFFFFFFFFFFFFFFFFFFFFFFFFFF 00880078007000600058005000480040
01031530: FFFFFFFFFFFFFFFFFFFFFFFFFFFFFFFF 0038020030050028FE003000380A0030
01031540: FFFFFFFFFFFFFFFFFFFFFFFFFFFFFFFF FD003800400048020058060050020058
01031550: FFFFFFFFFFFFFFFFFFFFFFFFFFFFFFFF FF0068020018FF0020020028FE003000
01031560: FFFFFFFFFFFFFFFFFFFFFFFFFFFFFFFF 28020020FF0010020008290000040008
01031570: FFFFFFFFFFFFFFFFFFFFFFFFFFFFFFFF 020010020018020020020028FE003000
01031580: FFFFFFFFFFFFFFFFFFFFFFFFFFFFFFFF 38020040020048FF0050040058030060
01031590: FFFFFFFFFFFFFFFFFFFFFFFFFFFFFFFF 020068020070FF0078020080FF008805
010315A0: FFFFFFFFFFFFFFFFFFFFFFFFFFFFFFFF 0090F800800070006000580050004000
010315B0: FFFFFFFFFFFFFFFFFFFFFFFFFFFFFFFF 380030030028020020020028FE003000
010315C0: FFFFFFFFFFFFFFFFFFFFFFFFFFFFFFFF 380A0030FD0038004000480200580200
010315D0: FFFFFFFFFFFFFFFFFFFFFFFFFFFFFFFF 50FF0058040050FC0060001000180020
010315E0: FFFFFFFFFFFFFFFFFFFFFFFFFFFFFFFF 030028FA003000280020001800100008
010315F0: FFFFFFFFFFFFFFFFFFFFFFFFFFFFFFFF 2C0000030008030010020018020020FF
01031600: FFFFFFFFFFFFFFFFFFFFFFFFFFFFFFFF 00280200300200380200400300480400
01031610: FFFFFFFFFFFFFFFFFFFFFFFFFFFFFFFF 50020058060060030068030070F90068
01031620: FFFFFFFFFFFFFFFFFFFFFFFFFFFFFFFF 00580050004000380030002805002002
01031630: FFFFFFFFFFFFFFFFFFFFFFFFFFFFFFFF 00280200300200380300300300280200
01031640: FFFFFFFFFFFFFFFFFFFFFFFFFFFFFFFF 30FD003800400048020058FE00500058
01031650: FFFFFFFFFFFFFFFFFFFFFFFFFFFFFFFF 040050FE00580010020018030028FB00
01031660: FFFFFFFFFFFFFFFFFFFFFFFFFFFFFFFF 3000280020001800100200082D000003
01031670: FFFFFFFFFFFFFFFFFFFFFFFFFFFFFFFF 00080300100200180300200200280200
01031680: FFFFFFFFFFFFFFFFFFFFFFFFFFFFFFFF 30030038030040030048040050080058
01031690: FFFFFFFFFFFFFFFFFFFFFFFFFFFFFFFF 020050FD004800400038020028FF0020
010316A0: FFFFFFFFFFFFFFFFFFFFFFFFFFFFFFFF 040018020020020028FF003002003802
010316B0: FFFFFFFFFFFFFFFFFFFFFFFFFFFFFFFF 0030050028F800300038004000480058
010316C0: FFFFFFFFFFFFFFFFFFFFFFFFFFFFFFFF 006000500058040050020010FE001800
010316D0: FFFFFFFFFFFFFFFFFFFFFFFFFFFFFFFF 20020028FE00300028020020FD001800
010316E0: FFFFFFFFFFFFFFFFFFFFFFFFFFFFFFFF 10000833000002000803001002001804
010316F0: FFFFFFFFFFFFFFFFFFFFFFFFFFFFFFFF 0020030028030030FD00380030003802
01031700: FFFFFFFFFFFFFFFFFFFFFFFFFFFFFFFF 0040090048FF0040020038FD00300028
01031710: FFFFFFFFFFFFFFFFFFFFFFFFFFFFFFFF 0020060018020020020028FF00300200
01031720: FFFFFFFFFFFFFFFFFFFFFFFFFFFFFFFF 38020030050028FB0030003800400050
01031730: FFFFFFFFFFFFFFFFFFFFFFFFFFFFFFFF 0060030058030050020010F600180020
01031740: FFFFFFFFFFFFFFFFFFFFFFFFFFFFFFFF 00280030002800300028002000180010
01031750: FFFFFFFFFFFFFFFFFFFFFFFFFFFFFFFF 020008190000FA2421E739A739C639A6
01031760: FFFFFFFFFFFFFFFFFFFFFFFFFFFFFFFF 39A63102863102A631038631F7652965
01031770: FFFFFFFFFFFFFFFFFFFFFFFFFFFFFFFF 31652945292529452924212429242103
01031780: FFFFFFFFFFFFFFFFFFFFFFFFFFFFFFFF 0421FBC320C318A318A220A21802C320
01031790: FFFFFFFFFFFFFFFFFFFFFFFFFFFFFFFF FDE328C328E328022439F50439244145
010317A0: FFFFFFFFFFFFFFFFFFFFFFFFFFFFFFFF 41454965498651C759A3402030613820
010317B0: FFFFFFFFFFFFFFFFFFFFFFFFFFFFFFFF 30030038050040FF0038020030FE0028
010317C0: FFFFFFFFFFFFFFFFFFFFFFFFFFFFFFFF 0020020018050010FF0018020020FE00
010317D0: FFFFFFFFFFFFFFFFFFFFFFFFFFFFFFFF 280030030038020030020028FF002002
010317E0: FFFFFFFFFFFFFFFFFFFFFFFFFFFFFFFF 0028FB00300040004800580060020058
010317F0: FFFFFFFFFFFFFFFFFFFFFFFFFFFFFFFF 030050020010FE001800200200280200
01031800: FFFFFFFFFFFFFFFFFFFFFFFFFFFFFFFF 30FC0028002000180010020008180000
01031810: FFFFFFFFFFFFFFFFFFFFFFFFFFFFFFFF F9A631AA52A631863165298531652902
01031820: FFFFFFFFFFFFFFFFFFFFFFFFFFFFFFFF C739F46529C6390842A6314529A63965
01031830: FFFFFFFFFFFFFFFFFFFFFFFFFFFFFFFF 2944290421863124218531020421E544
01031840: FFFFFFFFFFFFFFFFFFFFFFFFFFFFFFFF 292421C318442165292421C2182421E3
01031850: FFFFFFFFFFFFFFFFFFFFFFFFFFFFFFFF 20E318C3184429852924210321A63185
01031860: FFFFFFFFFFFFFFFFFFFFFFFFFFFFFFFF 31042185318631452985312852A33008
01031870: FFFFFFFFFFFFFFFFFFFFFFFFFFFFFFFF 4A65410028090030FE00280020020018
01031880: FFFFFFFFFFFFFFFFFFFFFFFFFFFFFFFF FF0010030008030010FE001800200200
01031890: FFFFFFFFFFFFFFFFFFFFFFFFFFFFFFFF 28FC0030003800400038020030FF0028
010318A0: FFFFFFFFFFFFFFFFFFFFFFFFFFFFFFFF 030020FC0028003800400050020060FF
010318B0: FFFFFFFFFFFFFFFFFFFFFFFFFFFFFFFF 0058020050FF0048030010FD00180020
010318C0: FFFFFFFFFFFFFFFFFFFFFFFFFFFFFFFF 0028020030020028FC00200018001000
010318D0: FFFFFFFFFFFFFFFFFFFFFFFFFFFFFFFF 08170000EAE318E739AA529AD60842A6
010318E0: FFFFFFFFFFFFFFFFFFFFFFFFFFFFFFFF 39EB5A75AD0F84694AEF7B34A56D6BCA
010318F0: FFFFFFFFFFFFFFFFFFFFFFFFFFFFFFFF 5A95B5AE73D6BD494A508C0C636D6BEF
01031900: FFFFFFFFFFFFFFFFFFFFFFFFFFFFFFFF 7B023084E634A5A631CE733084EB5AC7
01031910: FFFFFFFFFFFFFFFFFFFFFFFFFFFFFFFF 39AE73CA5A508C8952AE73508CEB5A69
01031920: FFFFFFFFFFFFFFFFFFFFFFFFFFFFFFFF 4A95B5AE7B284A518CB29CF39CB29400
01031930: FFFFFFFFFFFFFFFFFFFFFFFFFFFFFFFF 00284A622061206220040020030028FE
01031940: FFFFFFFFFFFFFFFFFFFFFFFFFFFFFFFF 20280030020028FF0020020018FF0010
01031950: FFFFFFFFFFFFFFFFFFFFFFFFFFFFFFFF 060008FB001000180020002800300200
01031960: FFFFFFFFFFFFFFFFFFFFFFFFFFFFFFFF 38FC0040003800300028040020F70030
01031970: FFFFFFFFFFFFFFFFFFFFFFFFFFFFFFFF 00380048005800680060005800500048
01031980: FFFFFFFFFFFFFFFFFFFFFFFFFFFFFFFF 030010FD001800200028030030FD0028
01031990: FFFFFFFFFFFFFFFFFFFFFFFFFFFFFFFF 00200018020010020008150000D10842
010319A0: FFFFFFFFFFFFFFFFFFFFFFFFFFFFFFFF 452930841BE7718C2C6313A579CE2842
010319B0: FFFFFFFFFFFFFFFFFFFFFFFFFFFFFFFF A631FBDE108445291084D29C2842BAD6
010319C0: FFFFFFFFFFFFFFFFFFFFFFFFFFFFFFFF CB5AEF7BC639B2944C6B3084718CAE73
010319D0: FFFFFFFFFFFFFFFFFFFFFFFFFFFFFFFF E739B9D695B5CE7B8952139D684A508C
010319E0: FFFFFFFFFFFFFFFFFFFFFFFFFFFFFFFF EB5AB6B50C630421F39CD7BDC7392842
010319F0: FFFFFFFFFFFFFFFFFFFFFFFFFFFFFFFF DAD6442999CE8E736110084203000003
01031A00: FFFFFFFFFFFFFFFFFFFFFFFFFFFFFFFF 0008030010FF0018040020FC00180020
01031A10: FFFFFFFFFFFFFFFFFFFFFFFFFFFFFFFF 00100008050000FF0008020010FB0018
01031A20: FFFFFFFFFFFFFFFFFFFFFFFFFFFFFFFF 0020002800300038020040F100380030
01031A30: FFFFFFFFFFFFFFFFFFFFFFFFFFFFFFFF 00280020001800200028003800400050
01031A40: FFFFFFFFFFFFFFFFFFFFFFFFFFFFFFFF 00600068005800500048030010FD0018
01031A50: FFFFFFFFFFFFFFFFFFFFFFFFFFFFFFFF 00200028040030020020FE0018001002
01031A60: FFFFFFFFFFFFFFFFFFFFFFFFFFFFFFFF 0008140000CE042186314C6B084238C6
01031A70: FFFFFFFFFFFFFFFFFFFFFFFFFFFFFFFF 1BE72C633CE7718CA63134A59AD6694A
01031A80: FFFFFFFFFFFFFFFFFFFFFFFFFFFFFFFF E739DBDEAE73F7BDEF7B494A6952494A
01031A90: FFFFFFFFFFFFFFFFFFFFFFFFFFFFFFFF 0C63EB5A6952494A28428A520C6374AD
01031AA0: FFFFFFFFFFFFFFFFFFFFFFFFFFFFFFFF AD730F7C894A0421A2100F84D29CC739
01031AB0: FFFFFFFFFFFFFFFFFFFFFFFFFFFFFFFF 694A3CE7AE73C739F7BDD6B5308499CE
01031AC0: FFFFFFFFFFFFFFFFFFFFFFFFFFFFFFFF 2000EB5A084245296529024531036531
01031AD0: FFFFFFFFFFFFFFFFFFFFFFFFFFFFFFFF FF6539024539FF4541026549F6865104
01031AE0: FFFFFFFFFFFFFFFFFFFFFFFFFFFFFFFF 390010C3288639653166316531242100
01031AF0: FFFFFFFFFFFFFFFFFFFFFFFFFFFFFFFF 00020008020010FC0020002800300038
01031B00: FFFFFFFFFFFFFFFFFFFFFFFFFFFFFFFF 030040FD003000280020020018F70020
01031B10: FFFFFFFFFFFFFFFFFFFFFFFFFFFFFFFF 00300040005000580068006000500048
01031B20: FFFFFFFFFFFFFFFFFFFFFFFFFFFFFFFF 030010FF0018020020FF0028030030FE
01031B30: FFFFFFFFFFFFFFFFFFFFFFFFFFFFFFFF 00280020020018020008140000E0494A
01031B40: FFFFFFFFFFFFFFFFFFFFFFFFFFFFFFFF 6108E31800008631C739C318E7390842
01031B50: FFFFFFFFFFFFFFFFFFFFFFFFFFFFFFFF 24214529694A8952E320C7390842C739
01031B60: FFFFFFFFFFFFFFFFFFFFFFFFFFFFFFFF 4108C73908420742C7390842694A0842
01031B70: FFFFFFFFFFFFFFFFFFFFFFFFFFFFFFFF E739C739A63186316110442941080200
01031B80: FFFFFFFFFFFFFFFFFFFFFFFFFFFFFFFF 00F08631E7398531E320E73908424429
01031B90: FFFFFFFFFFFFFFFFFFFFFFFFFFFFFFFF 8631E741484AA210000028428A522842
01031BA0: FFFFFFFFFFFFFFFFFFFFFFFFFFFFFFFF 484A02284A02494AFD484A284A494A02
01031BB0: FFFFFFFFFFFFFFFFFFFFFFFFFFFFFFFF CA5AF8694A494A694A4C6B45414C6B69
01031BC0: FFFFFFFFFFFFFFFFFFFFFFFFFFFFFFFF 4A6952028A52FDEF7B45290000020008
01031BD0: FFFFFFFFFFFFFFFFFFFFFFFFFFFFFFFF F5001000180020003000380040004800
01031BE0: FFFFFFFFFFFFFFFFFFFFFFFFFFFFFFFF 40003800280020020018FB0020002800
01031BF0: FFFFFFFFFFFFFFFFFFFFFFFFFFFFFFFF 3800480050020068FE00500048040010
01031C00: FFFFFFFFFFFFFFFFFFFFFFFFFFFFFFFF FD001800200028040030FC0028002000
01031C10: FFFFFFFFFFFFFFFFFFFFFFFFFFFFFFFF 180010020008120000F0E42008428631
01031C20: FFFFFFFFFFFFFFFFFFFFFFFFFFFFFFFF EF7BCF7B8D736D6BAE736D6B4C6B6D6B
01031C30: FFFFFFFFFFFFFFFFFFFFFFFFFFFFFFFF 8E73E32041082C634D6B022C63FF6D6B
01031C40: FFFFFFFFFFFFFFFFFFFFFFFFFFFFFFFF 020C63FA0B632C6328420000A631AA52
01031C50: FFFFFFFFFFFFFFFFFFFFFFFFFFFFFFFF 02484AFD0742E739A631028531F8C639
01031C60: FFFFFFFFFFFFFFFFFFFFFFFFFFFFFFFF 410861082842694A484A8952EB5A020C
01031C70: FFFFFFFFFFFFFFFFFFFFFFFFFFFFFFFF 63F9EB62AE7308420000EB5A8E736D6B
01031C80: FFFFFFFFFFFFFFFFFFFFFFFFFFFFFFFF 024D6BF98D738E736D73AE730B630000
01031C90: FFFFFFFFFFFFFFFFFFFFFFFFFFFFFFFF A63102AE73F6EB5A85318E8365296D6B
01031CA0: FFFFFFFFFFFFFFFFFFFFFFFFFFFFFFFF 8E73EF7BC318694A8210030000FA0008
01031CB0: FFFFFFFFFFFFFFFFFFFFFFFFFFFFFFFF 00100020002800380040020048FD0038
01031CC0: FFFFFFFFFFFFFFFFFFFFFFFFFFFFFFFF 00300020030018F80028003800480050
01031CD0: FFFFFFFFFFFFFFFFFFFFFFFFFFFFFFFF 0060006800500048040010FD00180020
01031CE0: FFFFFFFFFFFFFFFFFFFFFFFFFFFFFFFF 0028040030FD00280020001802001002
01031CF0: FFFFFFFFFFFFFFFFFFFFFFFFFFFFFFFF 0008110000EF494AA6319AD69DF75CEF
01031D00: FFFFFFFFFFFFFFFFFFFFFFFFFFFFFFFF FFFFDEFFDFFFFFFFDEF7FFFFDBDE6110
01031D10: FFFFFFFFFFFFFFFFFFFFFFFFFFFFFFFF 508CBEF73CE79DEF02BEF7F25CE71BE7
01031D20: FFFFFFFFFFFFFFFFFFFFFFFFFFFFFFFF FBDE9DEFAA52042158CE16BE17BED5B5
01031D30: FFFFFFFFFFFFFFFFFFFFFFFFFFFFFFFF 34A59294AE732B6302EB5AF941084C63
01031D40: FFFFFFFFFFFFFFFFFFFFFFFFFFFFFFFF 00E0B5B599D63CE77DEF033CE7FA9DF7
01031D50: FFFFFFFFFFFFFFFFFFFFFFFFFFFFFFFF 86312C63FFFF7CE7BEF703FFFFEFBEF7
01031D60: FFFFFFFFFFFFFFFFFFFFFFFFFFFFFFFF 7DEFFFFFB29CC3183BE7BEF7DEFFBAD6
01031D70: FFFFFFFFFFFFFFFFFFFFFFFFFFFFFFFF 0C632C638D73FFFFDEFF9AD6C739494A
01031D80: FFFFFFFFFFFFFFFFFFFFFFFFFFFFFFFF 040000FA000800100020002800380040
01031D90: FFFFFFFFFFFFFFFFFFFFFFFFFFFFFFFF 020048F2003800300020001800100018
01031DA0: FFFFFFFFFFFFFFFFFFFFFFFFFFFFFFFF 00200038004800500060006800500048
01031DB0: FFFFFFFFFFFFFFFFFFFFFFFFFFFFFFFF 020010FE00080010020018FE00200028
01031DC0: FFFFFFFFFFFFFFFFFFFFFFFFFFFFFFFF 040030FC002800200018001002000810
01031DD0: FFFFFFFFFFFFFFFFFFFFFFFFFFFFFFFF 0000CFE318284AAE739DF7DADEFBDE30
01031DE0: FFFFFFFFFFFFFFFFFFFFFFFFFFFFFFFF 848D73CE7BAE738D6BCF7B08420421FB
01031DF0: FFFFFFFFFFFFFFFFFFFFFFFFFFFFFFFF DEDADEFBDE34A58D734C6B95B5DBDEDA
01031E00: FFFFFFFFFFFFFFFFFFFFFFFFFFFFFFFF D6D6BD0000718CFADE58CEF6BD4C63AA
01031E10: FFFFFFFFFFFFFFFFFFFFFFFFFFFFFFFF 52EB5AEF7B2C63EA5A4429E318F39C74
01031E20: FFFFFFFFFFFFFFFFFFFFFFFFFFFFFFFF A537C691946D6B8E7379CEDAD65CE713
01031E30: FFFFFFFFFFFFFFFFFFFFFFFFFFFFFFFF 9D000038C6023CE7EB17C6EF7B8D7396
01031E40: FFFFFFFFFFFFFFFFFFFFFFFFFFFFFFFF B57DEF1BDF3CE7E318CF7BDEF7FBDE3C
01031E50: FFFFFFFFFFFFFFFFFFFFFFFFFFFFFFFF E7BAD6A6312429BAD65CE7BEF72C6328
01031E60: FFFFFFFFFFFFFFFFFFFFFFFFFFFFFFFF 42C318040000FA000800100020002800
01031E70: FFFFFFFFFFFFFFFFFFFFFFFFFFFFFFFF 380040020048F2004000300020001800
01031E80: FFFFFFFFFFFFFFFFFFFFFFFFFFFFFFFF 10001800280038004800500060006800
01031E90: FFFFFFFFFFFFFFFFFFFFFFFFFFFFFFFF 500040020010FF0008020010FD001800
01031EA0: FFFFFFFFFFFFFFFFFFFFFFFFFFFFFFFF 200028040030FF0028020020FE001800
01031EB0: FFFFFFFFFFFFFFFFFFFFFFFFFFFFFFFF 100200080F0000F8A639A63179CE3CE7
01031EC0: FFFFFFFFFFFFFFFFFFFFFFFFFFFFFFFF 9DEF308400002008042000EF00003084
01031ED0: FFFFFFFFFFFFFFFFFFFFFFFFFFFFFFFF 7DEF1CE7D6BD41080000410838C6FBDE
01031EE0: FFFFFFFFFFFFFFFFFFFFFFFFFFFFFFFF 7DEFCB5AE320FBDEBAD61BDF08420200
01031EF0: FFFFFFFFFFFFFFFFFFFFFFFFFFFFFFFF 00F7EB5A13A5AD73CA5A00006D6B17BE
01031F00: FFFFFFFFFFFFFFFFFFFFFFFFFFFFFFFF FADE718C020000FF2429021BDFF9BEF7
01031F10: FFFFFFFFFFFFFFFFFFFFFFFFFFFFFFFF C631073ABDEF3CE75CE74529020000FA
01031F20: FFFFFFFFFFFFFFFFFFFFFFFFFFFFFFFF F7BD9DEFBEF7D29C6110FBDE025CEFF7
01031F30: FFFFFFFFFFFFFFFFFFFFFFFFFFFFFFFF 7DEF5CE782104C6BFFFF5CEF1BDF2842
01031F40: FFFFFFFFFFFFFFFFFFFFFFFFFFFFFFFF 494A050000FA00080010001800280030
01031F50: FFFFFFFFFFFFFFFFFFFFFFFFFFFFFFFF 0040020048FD004000300020030018F8
01031F60: FFFFFFFFFFFFFFFFFFFFFFFFFFFFFFFF 00280038004800500060006800480040
01031F70: FFFFFFFFFFFFFFFFFFFFFFFFFFFFFFFF 020010020008FC001000180020002805
01031F80: FFFFFFFFFFFFFFFFFFFFFFFFFFFFFFFF 0030FE00280020020018FF0010020008
01031F90: FFFFFFFFFFFFFFFFFFFFFFFFFFFFFFFF 0D0000F78210494AAE73BEF73CE7DADE
01031FA0: FFFFFFFFFFFFFFFFFFFFFFFFFFFFFFFF 04216110A21802A210EEA21861086529
01031FB0: FFFFFFFFFFFFFFFFFFFFFFFFFFFFFFFF FBDE1BDF7DEFEF7BA210E31810847DEF
01031FC0: FFFFFFFFFFFFFFFFFFFFFFFFFFFFFFFF 3CE738C64108B2947DEF3CE796B502C3
01031FD0: FFFFFFFFFFFFFFFFFFFFFFFFFFFFFFFF 18EBC73999D6FADE95AD4529A631FADE
01031FE0: FFFFFFFFFFFFFFFFFFFFFFFFFFFFFFFF 1BDF5CE7F7BDF39C34A538C69DEFDEF7
01031FF0: FFFFFFFFFFFFFFFFFFFFFFFFFFFFFFFF F39C2000F7BD9DEFBEF7718C020000EE
01032000: FFFFFFFFFFFFFFFFFFFFFFFFFFFFFFFF CA5AFFFF5CE77DEF2421EB5ABEF75CE7
01032010: FFFFFFFFFFFFFFFFFFFFFFFFFFFFFFFF 79CE38C63CE7653179CE7DEFDEFF1084
01032020: FFFFFFFFFFFFFFFFFFFFFFFFFFFFFFFF E739C318050000FA0008001000200028
01032030: FFFFFFFFFFFFFFFFFFFFFFFFFFFFFFFF 00380040020048FE0040003002002002
01032040: FFFFFFFFFFFFFFFFFFFFFFFFFFFFFFFF 0018FC0028003800480050020060FC00
01032050: FFFFFFFFFFFFFFFFFFFFFFFFFFFFFFFF 48003800180010020008020010FD0018
01032060: FFFFFFFFFFFFFFFFFFFFFFFFFFFFFFFF 00200028050030020020FF0018020010
01032070: FFFFFFFFFFFFFFFFFFFFFFFFFFFFFFFF 0200080C0000EF0842484299CE5CEFDE
01032080: FFFFFFFFFFFFFFFFFFFFFFFFFFFFFFFF F70F840000A2188210A2108210A21800
01032090: FFFFFFFFFFFFFFFFFFFFFFFFFFFFFFFF 009194DEF73CE77CE7021BDFEAFBDE5C
010320A0: FFFFFFFFFFFFFFFFFFFFFFFFFFFFFFFF EF1CE7BEF7AA5A45299DEF5CE77DE73C
010320B0: FFFFFFFFFFFFFFFFFFFFFFFFFFFFFFFF E71BE71CE71BE79DEF34A5E739000070
010320C0: FFFFFFFFFFFFFFFFFFFFFFFFFFFFFFFF 8C3CE71BDF3CE75CE7029DEFF77DEF99
010320D0: FFFFFFFFFFFFFFFFFFFFFFFFFFFFFFFF CE2C632000AA529DEF3CE71BE7042102
010320E0: FFFFFFFFFFFFFFFFFFFFFFFFFFFFFFFF 0000EF75AD7DEFBEF7B294000079CE3C
010320F0: FFFFFFFFFFFFFFFFFFFFFFFFFFFFFFFF E7BEF74D6B718C5CE791947DEF3CE7FB
01032100: FFFFFFFFFFFFFFFFFFFFFFFFFFFFFFFF DE8631C739050000020008F700100020
01032110: FFFFFFFFFFFFFFFFFFFFFFFFFFFFFFFF 00280038004000480040003800280200
01032120: FFFFFFFFFFFFFFFFFFFFFFFFFFFFFFFF 20F40018002000300040004800500060
01032130: FFFFFFFFFFFFFFFFFFFFFFFFFFFFFFFF 00580040003800180010030008FC0010
01032140: FFFFFFFFFFFFFFFFFFFFFFFFFFFFFFFF 001800200028050030FF0028020020FF
01032150: FFFFFFFFFFFFFFFFFFFFFFFFFFFFFFFF 00180200100200080A0000F76108694A
01032160: FFFFFFFFFFFFFFFFFFFFFFFFFFFFFFFF EB5ADEF75CEFFBDE0421200861100261
01032170: FFFFFFFFFFFFFFFFFFFFFFFFFFFFFFFF 08F96110410844291CE75CEF7DEF1BDF
01032180: FFFFFFFFFFFFFFFFFFFFFFFFFFFFFFFF 02DAD6F73CE75CE75CEFDADE4108B294
01032190: FFFFFFFFFFFFFFFFFFFFFFFFFFFFFFFF BEF73CE71BDF0299D6EBBAD6FADEB9D6
010321A0: FFFFFFFFFFFFFFFFFFFFFFFFFFFFFFFF 34A544298110CD6BF29417BE694A4529
010321B0: FFFFFFFFFFFFFFFFFFFFFFFFFFFFFFFF 2421139D1BDFDAD610840000B6B53CE7
010321C0: FFFFFFFFFFFFFFFFFFFFFFFFFFFFFFFF 7CEF518C020000EEC7395CE71BDF5CEF
010321D0: FFFFFFFFFFFFFFFFFFFFFFFFFFFFFFFF 042189529DF71BDFDADE8210518CBEF7
010321E0: FFFFFFFFFFFFFFFFFFFFFFFFFFFFFFFF 1BE7FBDEBEF73084A6394531050000F5
010321F0: FFFFFFFFFFFFFFFFFFFFFFFFFFFFFFFF 00080010001800200028003800400048
01032200: FFFFFFFFFFFFFFFFFFFFFFFFFFFFFFFF 004000300028030020F5002800300040
01032210: FFFFFFFFFFFFFFFFFFFFFFFFFFFFFFFF 00480058006000500040003000180010
01032220: FFFFFFFFFFFFFFFFFFFFFFFFFFFFFFFF 030008FF0010020018FE002000280500
01032230: FFFFFFFFFFFFFFFFFFFFFFFFFFFFFFFF 30FF0028020020FF0018020010020008
01032240: FFFFFFFFFFFFFFFFFFFFFFFFFFFFFFFF 090000F8E739C73996B59DEFBEF7F39C
01032250: FFFFFFFFFFFFFFFFFFFFFFFFFFFFFFFF 82102421020421C7032124210000CF7B
01032260: FFFFFFFFFFFFFFFFFFFFFFFFFFFFFFFF BEF73CE7DADEA631E318442999D63CE7
01032270: FFFFFFFFFFFFFFFFFFFFFFFFFFFFFFFF 9DEF1084C3181BDFFBDE5CEF8E73A210
01032280: FFFFFFFFFFFFFFFFFFFFFFFFFFFFFFFF 8210CF7BB9D695B5708C4108C6314B63
01032290: FFFFFFFFFFFFFFFFFFFFFFFFFFFFFFFF 3084EE7B61082108242138C6B9D65CE7
010322A0: FFFFFFFFFFFFFFFFFFFFFFFFFFFFFFFF 2842C6313CE7BAD6FBDE0842A2108210
010322B0: FFFFFFFFFFFFFFFFFFFFFFFFFFFFFFFF F39C3CE75CE714A50000D6B51CE77CEF
010322C0: FFFFFFFFFFFFFFFFFFFFFFFFFFFFFFFF 0F84000030849DEFDBDE021BDFFDC631
010322D0: FFFFFFFFFFFFFFFFFFFFFFFFFFFFFFFF 28520008020000030008020010FC0018
010322E0: FFFFFFFFFFFFFFFFFFFFFFFFFFFFFFFF 002800300038020040FD003800300028
010322F0: FFFFFFFFFFFFFFFFFFFFFFFFFFFFFFFF 030020FC0028003800400048020058FB
01032300: FFFFFFFFFFFFFFFFFFFFFFFFFFFFFFFF 00400038002800200018040008FC0010
01032310: FFFFFFFFFFFFFFFFFFFFFFFFFFFFFFFF 001800200028060030FF0028020020FF
01032320: FFFFFFFFFFFFFFFFFFFFFFFFFFFFFFFF 0018020010030008060000F94108494A
01032330: FFFFFFFFFFFFFFFFFFFFFFFFFFFFFFFF AA52DEF75CE77DEF3CE704FBDEEB5CE7
01032340: FFFFFFFFFFFFFFFFFFFFFFFFFFFFFFFF D294200058C67DEFBEF7108400002008
01032350: FFFFFFFFFFFFFFFFFFFFFFFFFFFFFFFF 2C639DF71BDF1BE7E3200F847DEF1BE7
01032360: FFFFFFFFFFFFFFFFFFFFFFFFFFFFFFFF 58CEA2180000A2100295B5EE33A52842
01032370: FFFFFFFFFFFFFFFFFFFFFFFFFFFFFFFF 6108AA52CA52AD730F7C5084B194B5AD
01032380: FFFFFFFFFFFFFFFFFFFFFFFFFFFFFFFF 37BED9D674AD0000139D3CE7BAD6DBDE
01032390: FFFFFFFFFFFFFFFFFFFFFFFFFFFFFFFF 0379CEEC1BE7FBDE7DEF863108429DEF
010323A0: FFFFFFFFFFFFFFFFFFFFFFFFFFFFFFFF 1BDFDAD6A6310742AE73BDF7FADE9DF7
010323B0: FFFFFFFFFFFFFFFFFFFFFFFFFFFFFFFF 718C6531653900000008000002000802
010323C0: FFFFFFFFFFFFFFFFFFFFFFFFFFFFFFFF 0010FA00180020002800300038004002
010323D0: FFFFFFFFFFFFFFFFFFFFFFFFFFFFFFFF 0038FF0030040028F400300038004000
010323E0: FFFFFFFFFFFFFFFFFFFFFFFFFFFFFFFF 50005800480040003000280020001800
010323F0: FFFFFFFFFFFFFFFFFFFFFFFFFFFFFFFF 10030008020010FD0018002000280600
01032400: FFFFFFFFFFFFFFFFFFFFFFFFFFFFFFFF 30FF0028020020FF0018020010040008
01032410: FFFFFFFFFFFFFFFFFFFFFFFFFFFFFFFF 040000F96529A6319194FBDE79CE99D6
01032420: FFFFFFFFFFFFFFFFFFFFFFFFFFFFFFFF 9AD602BAD6EC9AD699D6FBDEA631E739
01032430: FFFFFFFFFFFFFFFFFFFFFFFFFFFFFFFF DAD659CE58CE24216108821055AD79CE
01032440: FFFFFFFFFFFFFFFFFFFFFFFFFFFFFFFF 99CE10844108B6B517BE58CE4C6B0200
01032450: FFFFFFFFFFFFFFFFFFFFFFFFFFFFFFFF 00EB694A33A5508CEF7BC210A631AA52
01032460: FFFFFFFFFFFFFFFFFFFFFFFFFFFFFFFF 694AEB5AAD6BEE735084B18CD29495AD
01032470: FFFFFFFFFFFFFFFFFFFFFFFFFFFFFFFF 0742E318F6B5B6B5D6BD17C60218C6EE
01032480: FFFFFFFFFFFFFFFFFFFFFFFFFFFFFFFF 38C618C659CED39C0000B29479CE99D6
01032490: FFFFFFFFFFFFFFFFFFFFFFFFFFFFFFFF AE738531AA62CA5ADADE38C679CEC639
010324A0: FFFFFFFFFFFFFFFFFFFFFFFFFFFFFFFF 084A2118040008020010FE0018002002
010324B0: FFFFFFFFFFFFFFFFFFFFFFFFFFFFFFFF 0028FF0030040038FF0030030028F700
010324C0: FFFFFFFFFFFFFFFFFFFFFFFFFFFFFFFF 30003800400048005800480040003800
010324D0: FFFFFFFFFFFFFFFFFFFFFFFFFFFFFFFF 28020020FE00180010040008FD001000
010324E0: FFFFFFFFFFFFFFFFFFFFFFFFFFFFFFFF 180020020028060030FF002802002002
010324F0: FFFFFFFFFFFFFFFFFFFFFFFFFFFFFFFF 0018020010030008030000FB28422429
01032500: FFFFFFFFFFFFFFFFFFFFFFFFFFFFFFFF 452965316529028531056529FEC31825
01032510: FFFFFFFFFFFFFFFFFFFFFFFFFFFFFFFF 21026529FE4429C21802E318FA652944
01032520: FFFFFFFFFFFFFFFFFFFFFFFFFFFFFFFF 296529E320C218442902242102C218FE
01032530: FFFFFFFFFFFFFFFFFFFFFFFFFFFFFFFF A210E31802E320FDE3186110A21003C3
01032540: FFFFFFFFFFFFFFFFFFFFFFFFFFFFFFFF 18FEE318C31802E31802E320FD8210C2
01032550: FFFFFFFFFFFFFFFFFFFFFFFFFFFFFFFF 182421020421052421FD4429E318A210
01032560: FFFFFFFFFFFFFFFFFFFFFFFFFFFFFFFF 022421F644212419085AC65103194521
01032570: FFFFFFFFFFFFFFFFFFFFFFFFFFFFFFFF 45290421073A65410200100200080200
01032580: FFFFFFFFFFFFFFFFFFFFFFFFFFFFFFFF 10020018FF0020020028040038030030
01032590: FFFFFFFFFFFFFFFFFFFFFFFFFFFFFFFF FF0028020030F4003800400050004800
010325A0: FFFFFFFFFFFFFFFFFFFFFFFFFFFFFFFF 40003800300020001800280020001005
010325B0: FFFFFFFFFFFFFFFFFFFFFFFFFFFFFFFF 0008FC0010001800200028070030FF00
010325C0: FFFFFFFFFFFFFFFFFFFFFFFFFFFFFFFF 28020020020018020010040008FD0000
010325D0: FFFFFFFFFFFFFFFFFFFFFFFFFFFFFFFF 6531AA5A06494A03484AFC494A694A49
010325E0: FFFFFFFFFFFFFFFFFFFFFFFFFFFFFFFF 4A294A02494AFF484A022842040842FF
010325F0: FFFFFFFFFFFFFFFFFFFFFFFFFFFFFFFF E74102C73902A631028631FD45292529
01032600: FFFFFFFFFFFFFFFFFFFFFFFFFFFFFFFF 242102042104C318FFE420020421FF24
01032610: FFFFFFFFFFFFFFFFFFFFFFFFFFFFFFFF 29024529FD65296531663102863102A6
01032620: FFFFFFFFFFFFFFFFFFFFFFFFFFFFFFFF 39FFC63902A639F2C641C741E749C749
01032630: FFFFFFFFFFFFFFFFFFFFFFFFFFFFFFFF E751C6492862A34824592862E759E751
01032640: FFFFFFFFFFFFFFFFFFFFFFFFFFFFFFFF 285AE751020018040010020018FD0020
01032650: FFFFFFFFFFFFFFFFFFFFFFFFFFFFFFFF 00280030040038060030020038020048
01032660: FFFFFFFFFFFFFFFFFFFFFFFFFFFFFFFF F6004000380030002800200018003000
01032670: FFFFFFFFFFFFFFFFFFFFFFFFFFFFFFFF 2800180010040008020010FE00180020
01032680: FFFFFFFFFFFFFFFFFFFFFFFFFFFFFFFF 020028060030020028FF002003001803
01032690: FFFFFFFFFFFFFFFFFFFFFFFFFFFFFFFF 00100200083200000400080300100200
010326A0: FFFFFFFFFFFFFFFFFFFFFFFFFFFFFFFF 18020020020030020040020038FE0030
010326B0: FFFFFFFFFFFFFFFFFFFFFFFFFFFFFFFF 0020030018030010FF00180200200200
010326C0: FFFFFFFFFFFFFFFFFFFFFFFFFFFFFFFF 28FF0030040038060030FF0038020048
010326D0: FFFFFFFFFFFFFFFFFFFFFFFFFFFFFFFF 020038FD003000280020020018FC0030
010326E0: FFFFFFFFFFFFFFFFFFFFFFFFFFFFFFFF 002800180010050008FF0010020018FE
010326F0: FFFFFFFFFFFFFFFFFFFFFFFFFFFFFFFF 00200028070030020028020020040018
01032700: FFFFFFFFFFFFFFFFFFFFFFFFFFFFFFFF 04001007000820000008000805001003
01032710: FFFFFFFFFFFFFFFFFFFFFFFFFFFFFFFF 0018030020FE00280038020040020038
01032720: FFFFFFFFFFFFFFFFFFFFFFFFFFFFFFFF 020030FE00280020050018020020FE00
01032730: FFFFFFFFFFFFFFFFFFFFFFFFFFFFFFFF 280030020038FF0030030038050030FF
01032740: FFFFFFFFFFFFFFFFFFFFFFFFFFFFFFFF 0038020048020038020030FE00280020
01032750: FFFFFFFFFFFFFFFFFFFFFFFFFFFFFFFF 020018FC0038003000200010020008FF
01032760: FFFFFFFFFFFFFFFFFFFFFFFFFFFFFFFF 0000030008FF0010020018FF00200200
01032770: FFFFFFFFFFFFFFFFFFFFFFFFFFFFFFFF 28080030030028030020020018030010
01032780: FFFFFFFFFFFFFFFFFFFFFFFFFFFFFFFF 080008020000FF00081500000B000806
01032790: FFFFFFFFFFFFFFFFFFFFFFFFFFFFFFFF 0010030018020020FE00280030030038
010327A0: FFFFFFFFFFFFFFFFFFFFFFFFFFFFFFFF 040030FF0028020020040018020020FF
010327B0: FFFFFFFFFFFFFFFFFFFFFFFFFFFFFFFF 0028030030050038020030FB00380030
010327C0: FFFFFFFFFFFFFFFFFFFFFFFFFFFFFFFF 004000480040020038020030020028FF
010327D0: FFFFFFFFFFFFFFFFFFFFFFFFFFFFFFFF 0020020018FA00400038002000180010
010327E0: FFFFFFFFFFFFFFFFFFFFFFFFFFFFFFFF 0008020000020008020010020018FE00
010327F0: FFFFFFFFFFFFFFFFFFFFFFFFFFFFFFFF 2000280C0030020028030020FF001804
01032800: FFFFFFFFFFFFFFFFFFFFFFFFFFFFFFFF 0010250008060010050018020020FF00
01032810: FFFFFFFFFFFFFFFFFFFFFFFFFFFFFFFF 28070030020028030020020018030020
01032820: FFFFFFFFFFFFFFFFFFFFFFFFFFFFFFFF FF0028040030050038020030FC003800
01032830: FFFFFFFFFFFFFFFFFFFFFFFFFFFFFFFF 40004800400200380200300200280200
01032840: FFFFFFFFFFFFFFFFFFFFFFFFFFFFFFFF 20020018FA0048004000280020001000
01032850: FFFFFFFFFFFFFFFFFFFFFFFFFFFFFFFF 08020000030008020010FF0018020020
01032860: FFFFFFFFFFFFFFFFFFFFFFFFFFFFFFFF FF0028070030FF003802004003003802
01032870: FFFFFFFFFFFFFFFFFFFFFFFFFFFFFFFF 0030FF00280200200200180300102000
01032880: FFFFFFFFFFFFFFFFFFFFFFFFFFFFFFFF 08070010040018030020FF0028030030
01032890: FFFFFFFFFFFFFFFFFFFFFFFFFFFFFFFF 020028FF0030040028070020FF002805
010328A0: FFFFFFFFFFFFFFFFFFFFFFFFFFFFFFFF 00300800380200480300380200300200
010328B0: FFFFFFFFFFFFFFFFFFFFFFFFFFFFFFFF 28050020F90050004800300020001800
010328C0: FFFFFFFFFFFFFFFFFFFFFFFFFFFFFFFF 100008030000020008020010020018FF
010328D0: FFFFFFFFFFFFFFFFFFFFFFFFFFFFFFFF 0020020028030030FF00380200400200
010328E0: FFFFFFFFFFFFFFFFFFFFFFFFFFFFFFFF 48020050020048FC0040003800300028
010328F0: FFFFFFFFFFFFFFFFFFFFFFFFFFFFFFFF 02002002001809001012000808001006
01032900: FFFFFFFFFFFFFFFFFFFFFFFFFFFFFFFF 00180300200200280200300900280500
01032910: FFFFFFFFFFFFFFFFFFFFFFFFFFFFFFFF 20020028070030060038FD0040204800
01032920: FFFFFFFFFFFFFFFFFFFFFFFFFFFFFFFF 40030038020030030028050020F90060
01032930: FFFFFFFFFFFFFFFFFFFFFFFFFFFFFFFF 00500038002800180010000804000002
01032940: FFFFFFFFFFFFFFFFFFFFFFFFFFFFFFFF 0008020010020018FF0020020028FF00
01032950: FFFFFFFFFFFFFFFFFFFFFFFFFFFFFFFF 30020038FC0040004800500058030060
01032960: FFFFFFFFFFFFFFFFFFFFFFFFFFFFFFFF F9005800500048004000380030002802
01032970: FFFFFFFFFFFFFFFFFFFFFFFFFFFFFFFF 00200500181B00100600180300200200
01032980: FFFFFFFFFFFFFFFFFFFFFFFFFFFFFFFF 28020030020028FF00200F0028050030
01032990: FFFFFFFFFFFFFFFFFFFFFFFFFFFFFFFF 070038FF004002004804003803003002
010329A0: FFFFFFFFFFFFFFFFFFFFFFFFFFFFFFFF 0028040020F600280038006800580048
010329B0: FFFFFFFFFFFFFFFFFFFFFFFFFFFFFFFF 00300028001800100008040000030008
010329C0: FFFFFFFFFFFFFFFFFFFFFFFFFFFFFFFF FF0010020018F7002000280030003800
010329D0: FFFFFFFFFFFFFFFFFFFFFFFFFFFFFFFF 400048005800600068040070F8006800
010329E0: FFFFFFFFFFFFFFFFFFFFFFFFFFFFFFFF 60005800480040003800300028030020
010329F0: FFFFFFFFFFFFFFFFFFFFFFFFFFFFFFFF 1F0018030020150028060030050038FF
01032A00: FFFFFFFFFFFFFFFFFFFFFFFFFFFFFFFF 0040020038FB00400048204800480040
01032A10: FFFFFFFFFFFFFFFFFFFFFFFFFFFFFFFF 030038040030030028020020FC003021
01032A20: FFFFFFFFFFFFFFFFFFFFFFFFFFFFFFFF 3800380020020068F900500040003000
01032A30: FFFFFFFFFFFFFFFFFFFFFFFFFFFFFFFF 20001800100008040000030008FF0010
01032A40: FFFFFFFFFFFFFFFFFFFFFFFFFFFFFFFF 020018F9002000280038004800500060
01032A50: FFFFFFFFFFFFFFFFFFFFFFFFFFFFFFFF 0070020080030088F700800070006800
01032A60: FFFFFFFFFFFFFFFFFFFFFFFFFFFFFFFF 58005000480040003800300200280500
01032A70: FFFFFFFFFFFFFFFFFFFFFFFFFFFFFFFF 20120018060020060028040020080028
01032A80: FFFFFFFFFFFFFFFFFFFFFFFFFFFFFFFF 0500300B0038050040030048FF004003
01032A90: FFFFFFFFFFFFFFFFFFFFFFFFFFFFFFFF 0038050030020028FA00200028003020
01032AA0: FFFFFFFFFFFFFFFFFFFFFFFFFFFFFFFF 3800300020020018F800700068005800
01032AB0: FFFFFFFFFFFFFFFFFFFFFFFFFFFFFFFF 48003800280020001002000804000003
01032AC0: FFFFFFFFFFFFFFFFFFFFFFFFFFFFFFFF 0008F600100018002000280038004800
01032AD0: FFFFFFFFFFFFFFFFFFFFFFFFFFFFFFFF 580070008000900300A0F50098009000
01032AE0: FFFFFFFFFFFFFFFFFFFFFFFFFFFFFFFF 88007800680060005000480040003800
01032AF0: FFFFFFFFFFFFFFFFFFFFFFFFFFFFFFFF 30060028110020090028060020060028
01032B00: FFFFFFFFFFFFFFFFFFFFFFFFFFFFFFFF 0500300500380C0040020048FE005000
01032B10: FFFFFFFFFFFFFFFFFFFFFFFFFFFFFFFF 48020040040038030030040028FC0038
01032B20: FFFFFFFFFFFFFFFFFFFFFFFFFFFFFFFF 213800300020040018F7007800700060
01032B30: FFFFFFFFFFFFFFFFFFFFFFFFFFFFFFFF 00500040003800280020001002000804
01032B40: FFFFFFFFFFFFFFFFFFFFFFFFFFFFFFFF 0000030008F700100020002800400050
01032B50: FFFFFFFFFFFFFFFFFFFFFFFFFFFFFFFF 00680080009000A00400A8F500A02098
01032B60: FFFFFFFFFFFFFFFFFFFFFFFFFFFFFFFF 00900080007000600050004800400038
01032B70: FFFFFFFFFFFFFFFFFFFFFFFFFFFFFFFF 00300200280200201000280F00200500
01032B80: FFFFFFFFFFFFFFFFFFFFFFFFFFFFFFFF 28040030040038060040060048030040
01032B90: FFFFFFFFFFFFFFFFFFFFFFFFFFFFFFFF FF0048030050020040020038FF004003
01032BA0: FFFFFFFFFFFFFFFFFFFFFFFFFFFFFFFF 0038FB00300028202800280038022138
01032BB0: FFFFFFFFFFFFFFFFFFFFFFFFFFFFFFFF FF0028070018020078F9007000600050
01032BC0: FFFFFFFFFFFFFFFFFFFFFFFFFFFFFFFF 00400038002800180200100200080300
01032BD0: FFFFFFFFFFFFFFFFFFFFFFFFFFFFFFFF 00020008F70010002000300048006000
01032BE0: FFFFFFFFFFFFFFFFFFFFFFFFFFFFFFFF 78009000A000A80300B0F320B000B000
01032BF0: FFFFFFFFFFFFFFFFFFFFFFFFFFFFFFFF A800A000980080007000680058004800
01032C00: FFFFFFFFFFFFFFFFFFFFFFFFFFFFFFFF 40003800300300282000200300280300
01032C10: FFFFFFFFFFFFFFFFFFFFFFFFFFFFFFFF 30020038060040030048060050FE0048
01032C20: FFFFFFFFFFFFFFFFFFFFFFFFFFFFFFFF 0050030058FF00480400400400380300
01032C30: FFFFFFFFFFFFFFFFFFFFFFFFFFFFFFFF 30FB0038204021382030002806001803
01032C40: FFFFFFFFFFFFFFFFFFFFFFFFFFFFFFFF 0010FE00800078020070F90060005000
01032C50: FFFFFFFFFFFFFFFFFFFFFFFFFFFFFFFF 400038002800180010020008040000F7
01032C60: FFFFFFFFFFFFFFFFFFFFFFFFFFFFFFFF 000800100020003800480068008800A0
01032C70: FFFFFFFFFFFFFFFFFFFFFFFFFFFFFFFF 00A80200B00300B80200B0F500A800A0
01032C80: FFFFFFFFFFFFFFFFFFFFFFFFFFFFFFFF 00980088007800680058004800400038
01032C90: FFFFFFFFFFFFFFFFFFFFFFFFFFFFFFFF 00300300281D00200300280300300400
01032CA0: FFFFFFFFFFFFFFFFFFFFFFFFFFFFFFFF 38040040020048030050030058FF0050
01032CB0: FFFFFFFFFFFFFFFFFFFFFFFFFFFFFFFF 020058FC006020600058004804004002
01032CC0: FFFFFFFFFFFFFFFFFFFFFFFFFFFFFFFF 0038020030020038020040FC01400038
01032CD0: FFFFFFFFFFFFFFFFFFFFFFFFFFFFFFFF 00280020060018040010F00008008800
01032CE0: FFFFFFFFFFFFFFFFFFFFFFFFFFFFFFFF 80007820700068005800500040003000
01032CF0: FFFFFFFFFFFFFFFFFFFFFFFFFFFFFFFF 2800200018001000080000030008F900
01032D00: FFFFFFFFFFFFFFFFFFFFFFFFFFFFFFFF 180028004000580078009000A00200B0
01032D10: FFFFFFFFFFFFFFFFFFFFFFFFFFFFFFFF FE00B820B80400B80200B0F700A80098
01032D20: FFFFFFFFFFFFFFFFFFFFFFFFFFFFFFFF 00880078006800580048004000380200
01032D30: FFFFFFFFFFFFFFFFFFFFFFFFFFFFFFFF 30050028090020FF0028100020030028
01032D40: FFFFFFFFFFFFFFFFFFFFFFFFFFFFFFFF 03003003003802004002004802005003
01032D50: FFFFFFFFFFFFFFFFFFFFFFFFFFFFFFFF 0058020060030068FD00600058005002
01032D60: FFFFFFFFFFFFFFFFFFFFFFFFFFFFFFFF 0048020040030038020040FA20402140
01032D70: FFFFFFFFFFFFFFFFFFFFFFFFFFFFFFFF 20400038002800200600180500100300
01032D80: FFFFFFFFFFFFFFFFFFFFFFFFFFFFFFFF 08020088FF0080020078F80070006000
01032D90: FFFFFFFFFFFFFFFFFFFFFFFFFFFFFFFF 50004800380030002000180200100200
01032DA0: FFFFFFFFFFFFFFFFFFFFFFFFFFFFFFFF 08F200100020003000480068008800A0
01032DB0: FFFFFFFFFFFFFFFFFFFFFFFFFFFFFFFF 00A800B000B820B821B821C021B80420
01032DC0: FFFFFFFFFFFFFFFFFFFFFFFFFFFFFFFF B8F500B000A800A00090007800680058
01032DD0: FFFFFFFFFFFFFFFFFFFFFFFFFFFFFFFF 00480040003800300300281700200400
01032DE0: FFFFFFFFFFFFFFFFFFFFFFFFFFFFFFFF 18040020020028FF0030020038020040
01032DF0: FFFFFFFFFFFFFFFFFFFFFFFFFFFFFFFF 020048FF0050020058FD006000702070
01032E00: FFFFFFFFFFFFFFFFFFFFFFFFFFFFFFFF 020070FC0068006000580050080048FB
01032E10: FFFFFFFFFFFFFFFFFFFFFFFFFFFFFFFF 21482040003800300028040020030018
01032E20: FFFFFFFFFFFFFFFFFFFFFFFFFFFFFFFF 060010040008FF0000020088FF008003
01032E30: FFFFFFFFFFFFFFFFFFFFFFFFFFFFFFFF 0078F700700060005000480038003000
01032E40: FFFFFFFFFFFFFFFFFFFFFFFFFFFFFFFF 2800200018020010F400180028004000
01032E50: FFFFFFFFFFFFFFFFFFFFFFFFFFFFFFFF 580080009800A000A800B001B820B820
01032E60: FFFFFFFFFFFFFFFFFFFFFFFFFFFFFFFF C00300C0FE20C000C00220B8F600B000
01032E70: FFFFFFFFFFFFFFFFFFFFFFFFFFFFFFFF A800A000900078006800580048004000
01032E80: FFFFFFFFFFFFFFFFFFFFFFFFFFFFFFFF 380200280B0020130018020020020028
01032E90: FFFFFFFFFFFFFFFFFFFFFFFFFFFFFFFF FF0030020038020040FB004800500058
01032EA0: FFFFFFFFFFFFFFFFFFFFFFFFFFFFFFFF 00680070020078020070FF0068030060
01032EB0: FFFFFFFFFFFFFFFFFFFFFFFFFFFFFFFF 030058FF2050020050020040FD003800
01032EC0: FFFFFFFFFFFFFFFFFFFFFFFFFFFFFFFF 30002805002003001805001004000804
01032ED0: FFFFFFFFFFFFFFFFFFFFFFFFFFFFFFFF 0000030088FF0080030078F900700060
01032EE0: FFFFFFFFFFFFFFFFFFFFFFFFFFFFFFFF 00580048004000300028030020F80028
01032EF0: FFFFFFFFFFFFFFFFFFFFFFFFFFFFFFFF 003800500068008800A000A800B00200
01032F00: FFFFFFFFFFFFFFFFFFFFFFFFFFFFFFFF B80900C0F420B800B000A800A0009000
01032F10: FFFFFFFFFFFFFFFFFFFFFFFFFFFFFFFF 78006800580048003800300028020020
01032F20: FFFFFFFFFFFFFFFFFFFFFFFFFFFFFFFF 0E00180D0010020018FC002000280030
01032F30: FFFFFFFFFFFFFFFFFFFFFFFFFFFFFFFF 0038020040FC00500058006800780200
01032F40: FFFFFFFFFFFFFFFFFFFFFFFFFFFFFFFF 80040078030070F80068006000580050
01032F50: FFFFFFFFFFFFFFFFFFFFFFFFFFFFFFFF 00480040003800300400280500200600
01032F60: FFFFFFFFFFFFFFFFFFFFFFFFFFFFFFFF 18030010030008050000020090020088
01032F70: FFFFFFFFFFFFFFFFFFFFFFFFFFFFFFFF 040080FA007000600058004800400030
01032F80: FFFFFFFFFFFFFFFFFFFFFFFFFFFFFFFF 030028F40030004000600080009800A0
01032F90: FFFFFFFFFFFFFFFFFFFFFFFFFFFFFFFF 00A800B020B820C000C020B80300B8FE
01032FA0: FFFFFFFFFFFFFFFFFFFFFFFFFFFFFFFF 00B000B80300C0F320B820B000A800A0
01032FB0: FFFFFFFFFFFFFFFFFFFFFFFFFFFFFFFF 00900080006800580048003800300028
01032FC0: FFFFFFFFFFFFFFFFFFFFFFFFFFFFFFFF 0020020018120010050008030010F700
01032FD0: FFFFFFFFFFFFFFFFFFFFFFFFFFFFFFFF 18002000280030003800400050005800
01032FE0: FFFFFFFFFFFFFFFFFFFFFFFFFFFFFFFF 60020068FF2068040068020060FD0058
01032FF0: FFFFFFFFFFFFFFFFFFFFFFFFFFFFFFFF 00500048020040FF0038030030020028
01033000: FFFFFFFFFFFFFFFFFFFFFFFFFFFFFFFF 040020020018020020FF001803002004
01033010: FFFFFFFFFFFFFFFFFFFFFFFFFFFFFFFF 0018020010020008050000FE00980090
01033020: FFFFFFFFFFFFFFFFFFFFFFFFFFFFFFFF 030088040080FB007000600058004800
01033030: FFFFFFFFFFFFFFFFFFFFFFFFFFFFFFFF 40030038F5004000500070009000A000
01033040: FFFFFFFFFFFFFFFFFFFFFFFFFFFFFFFF A800B000B820B801C020B80300B00200
01033050: FFFFFFFFFFFFFFFFFFFFFFFFFFFFFFFF A80200B0FF00B80300C0F300B800A800
01033060: FFFFFFFFFFFFFFFFFFFFFFFFFFFFFFFF A0009000800068005800480038003000
01033070: FFFFFFFFFFFFFFFFFFFFFFFFFFFFFFFF 28002000180800101000080200100200
01033080: FFFFFFFFFFFFFFFFFFFFFFFFFFFFFFFF 18FD0020002800300200380400400800
01033090: FFFFFFFFFFFFFFFFFFFFFFFFFFFFFFFF 48020040020038020030FF0028040020
010330A0: FFFFFFFFFFFFFFFFFFFFFFFFFFFFFFFF 020018060020030028040020FF001802
010330B0: FFFFFFFFFFFFFFFFFFFFFFFFFFFFFFFF 0010030008030000FE00A00098020088
010330C0: FFFFFFFFFFFFFFFFFFFFFFFFFFFFFFFF FE00800088030080FB00780070006000
010330D0: FFFFFFFFFFFFFFFFFFFFFFFFFFFFFFFF 580048020040F5004800500068008000
010330E0: FFFFFFFFFFFFFFFFFFFFFFFFFFFFFFFF 9800A000A800B020B821C000B80200B0
010330F0: FFFFFFFFFFFFFFFFFFFFFFFFFFFFFFFF 0600A80200B0FF00B80200C0F620B800
01033100: FFFFFFFFFFFFFFFFFFFFFFFFFFFFFFFF B000A000900080006800580048003800
01033110: FFFFFFFFFFFFFFFFFFFFFFFFFFFFFFFF 30020020FF0018030010150008020010
01033120: FFFFFFFFFFFFFFFFFFFFFFFFFFFFFFFF 020018FF002002002802003003003807
01033130: FFFFFFFFFFFFFFFFFFFFFFFFFFFFFFFF 00400200380200300200280900200200
01033140: FFFFFFFFFFFFFFFFFFFFFFFFFFFFFFFF 28080030030028FF0020020018020010
01033150: FFFFFFFFFFFFFFFFFFFFFFFFFFFFFFFF 020008FB000000A800A0009000880300
01033160: FFFFFFFFFFFFFFFFFFFFFFFFFFFFFFFF 80FE00880080020078FD007000600058
01033170: FFFFFFFFFFFFFFFFFFFFFFFFFFFFFFFF 020050F6005800600078009000A000A8
01033180: FFFFFFFFFFFFFFFFFFFFFFFFFFFFFFFF 00B000B820B821C00200B00400A8FF00
01033190: FFFFFFFFFFFFFFFFFFFFFFFFFFFFFFFF A00400A8FE00B000B80200C0F320B800
010331A0: FFFFFFFFFFFFFFFFFFFFFFFFFFFFFFFF B000A000980080007000600050004000
010331B0: FFFFFFFFFFFFFFFFFFFFFFFFFFFFFFFF 30002800200018020010100008FE0000
010331C0: FFFFFFFFFFFFFFFFFFFFFFFFFFFFFFFF 00080200000200080200100200180200
010331D0: FFFFFFFFFFFFFFFFFFFFFFFFFFFFFFFF 200200280B0030030028020020020018
010331E0: FFFFFFFFFFFFFFFFFFFFFFFFFFFFFFFF 04002002002802003002003803004003
010331F0: FFFFFFFFFFFFFFFFFFFFFFFFFFFFFFFF 0048030040FC00380030002800200200
01033200: FFFFFFFFFFFFFFFFFFFFFFFFFFFFFFFF 18FF00100200080200A8FE00A0009003
01033210: FFFFFFFFFFFFFFFFFFFFFFFFFFFFFFFF 0080FD007801800080030078FF006802
01033220: FFFFFFFFFFFFFFFFFFFFFFFFFFFFFFFF 0060FD0068007800880200A0FF00B002
01033230: FFFFFFFFFFFFFFFFFFFFFFFFFFFFFFFF 00B8FD21C000B800B00300A80600A003
01033240: FFFFFFFFFFFFFFFFFFFFFFFFFFFFFFFF 00A8F000B000B800C020B800B800A800
01033250: FFFFFFFFFFFFFFFFFFFFFFFFFFFFFFFF 98008800780060005000400038002800
01033260: FFFFFFFFFFFFFFFFFFFFFFFFFFFFFFFF 20001802001004000810000002000802
01033270: FFFFFFFFFFFFFFFFFFFFFFFFFFFFFFFF 00100300180300200900280300200400
01033280: FFFFFFFFFFFFFFFFFFFFFFFFFFFFFFFF 18030020020028FE00300038020040FF
01033290: FFFFFFFFFFFFFFFFFFFFFFFFFFFFFFFF 0048020050020058030060030058F900
010332A0: FFFFFFFFFFFFFFFFFFFFFFFFFFFFFFFF 50004800400038002800200018020010
010332B0: FFFFFFFFFFFFFFFFFFFFFFFFFFFFFFFF 0200B0FC00A80098009000800B0078FB
010332C0: FFFFFFFFFFFFFFFFFFFFFFFFFFFFFFFF 0088009800A000A800B00200B8FE21B8
010332D0: FFFFFFFFFFFFFFFFFFFFFFFFFFFFFFFF 00B00300A80A00A00200A8FF00B80200
010332E0: FFFFFFFFFFFFFFFFFFFFFFFFFFFFFFFF C0F300B800B000A00088007800680058
010332F0: FFFFFFFFFFFFFFFFFFFFFFFFFFFFFFFF 00480040003000280020001802001002
01033300: FFFFFFFFFFFFFFFFFFFFFFFFFFFFFFFF 00081100000200080400100400180300
01033310: FFFFFFFFFFFFFFFFFFFFFFFFFFFFFFFF 200A0018020020030028F80030003800
01033320: FFFFFFFFFFFFFFFFFFFFFFFFFFFFFFFF 40004800500058006000680200700600
01033330: FFFFFFFFFFFFFFFFFFFFFFFFFFFFFFFF 78EF0070006800600058005000400038
01033340: FFFFFFFFFFFFFFFFFFFFFFFFFFFFFFFF 00280020001800B800B000A800A00098
01033350: FFFFFFFFFFFFFFFFFFFFFFFFFFFFFFFF 00880080020078040070FF0078020080
01033360: FFFFFFFFFFFFFFFFFFFFFFFFFFFFFFFF F70090009800A000A800B020B000B801
01033370: FFFFFFFFFFFFFFFFFFFFFFFFFFFFFFFF C000B00300A80300A00500980500A0F0
01033380: FFFFFFFFFFFFFFFFFFFFFFFFFFFFFFFF 00A800B020B820C000B800B000A00090
01033390: FFFFFFFFFFFFFFFFFFFFFFFFFFFFFFFF 00800070006000500040003800280020
010333A0: FFFFFFFFFFFFFFFFFFFFFFFFFFFFFFFF 020018FF001002000811000003000806
010333B0: FFFFFFFFFFFFFFFFFFFFFFFFFFFFFFFF 0010FF0018070010040018020020FD00
010333C0: FFFFFFFFFFFFFFFFFFFFFFFFFFFFFFFF 2800300038020040FC00480050005800
010333D0: FFFFFFFFFFFFFFFFFFFFFFFFFFFFFFFF 68020070020080FF0088060090F60088
010333E0: FFFFFFFFFFFFFFFFFFFFFFFFFFFFFFFF 00800078007000600058004800400030
010333F0: FFFFFFFFFFFFFFFFFFFFFFFFFFFFFFFF 00280220B8FF00B00200A0FC00980088
01033400: FFFFFFFFFFFFFFFFFFFFFFFFFFFFFFFF 00800078030070020078FC0080008800
01033410: FFFFFFFFFFFFFFFFFFFFFFFFFFFFFFFF 9800A00200A8FB00B000B821B801B800
01033420: FFFFFFFFFFFFFFFFFFFFFFFFFFFFFFFF B00200A80300A00800980400A0EE00A8
01033430: FFFFFFFFFFFFFFFFFFFFFFFFFFFFFFFF 00B001B820C000C000B000A800980088
01033440: FFFFFFFFFFFFFFFFFFFFFFFFFFFFFFFF 00780068005800480040003000280020
01033450: FFFFFFFFFFFFFFFFFFFFFFFFFFFFFFFF 00180200100300080F00000B00080500
01033460: FFFFFFFFFFFFFFFFFFFFFFFFFFFFFFFF 10020018FF0020020028F00030003800
01033470: FFFFFFFFFFFFFFFFFFFFFFFFFFFFFFFF 40004800500058006000680070007800
01033480: FFFFFFFFFFFFFFFFFFFFFFFFFFFFFFFF 800090009800A000A820A80220B0EF00
01033490: FFFFFFFFFFFFFFFFFFFFFFFFFFFFFFFF B020B000B000A800A000900088007800
010334A0: FFFFFFFFFFFFFFFFFFFFFFFFFFFFFFFF 70006000500040003000B000B800B000
010334B0: FFFFFFFFFFFFFFFFFFFFFFFFFFFFFFFF A80200A0FE00980088020080020078FB
010334C0: FFFFFFFFFFFFFFFFFFFFFFFFFFFFFFFF 008000880090009800A00200A8FE00B0
010334D0: FFFFFFFFFFFFFFFFFFFFFFFFFFFFFFFF 00B80221B80200B0FF00A80300A00200
010334E0: FFFFFFFFFFFFFFFFFFFFFFFFFFFFFFFF 98FE00900088030080FE008800900300
010334F0: FFFFFFFFFFFFFFFFFFFFFFFFFFFFFFFF 980300A0F000A800B821C020C000B800
01033500: FFFFFFFFFFFFFFFFFFFFFFFFFFFFFFFF B020A000900080007000600058004800
01033510: FFFFFFFFFFFFFFFFFFFFFFFFFFFFFFFF 4000300028020020FF00180200100400
01033520: FFFFFFFFFFFFFFFFFFFFFFFFFFFFFFFF 080D0000090008030010020018020020
01033530: FFFFFFFFFFFFFFFFFFFFFFFFFFFFFFFF F0002800300038004000480058006000
01033540: FFFFFFFFFFFFFFFFFFFFFFFFFFFFFFFF 680070007800800088209800A801B020
01033550: FFFFFFFFFFFFFFFFFFFFFFFFFFFFFFFF B80800C0F620C000C000B800A8009800
01033560: FFFFFFFFFFFFFFFFFFFFFFFFFFFFFFFF 8800780068005800480200B0FD00B800
01033570: FFFFFFFFFFFFFFFFFFFFFFFFFFFFFFFF B000A80200A0FE00980090040088FE00
01033580: FFFFFFFFFFFFFFFFFFFFFFFFFFFFFFFF 9020A00200A0FF00A80200B0FC00B820
01033590: FFFFFFFFFFFFFFFFFFFFFFFFFFFFFFFF C021B800B00200A80200A0020098FD00
010335A0: FFFFFFFFFFFFFFFFFFFFFFFFFFFFFFFF 8800780068020060020068FB00780080
010335B0: FFFFFFFFFFFFFFFFFFFFFFFFFFFFFFFF 0088009000980300A0F000A800B020B8
010335C0: FFFFFFFFFFFFFFFFFFFFFFFFFFFFFFFF 20C000C000B001A80098008800780068
010335D0: FFFFFFFFFFFFFFFFFFFFFFFFFFFFFFFF 00600050004800380030020028FF0020
010335E0: FFFFFFFFFFFFFFFFFFFFFFFFFFFFFFFF 02001803001005000807000007000803
010335F0: FFFFFFFFFFFFFFFFFFFFFFFFFFFFFFFF 0010020018020020FD00280030003802
01033600: FFFFFFFFFFFFFFFFFFFFFFFFFFFFFFFF 0040F500480058205800680070007800
01033610: FFFFFFFFFFFFFFFFFFFFFFFFFFFFFFFF 80009001A000B020B80200C00320C002
01033620: FFFFFFFFFFFFFFFFFFFFFFFFFFFFFFFF 00C00200B80320C00200C0F720B801B8
01033630: FFFFFFFFFFFFFFFFFFFFFFFFFFFFFFFF 01A8009000800070005820A800B00200
01033640: FFFFFFFFFFFFFFFFFFFFFFFFFFFFFFFF B8FE00B000A80200A00500980300A002
01033650: FFFFFFFFFFFFFFFFFFFFFFFFFFFFFFFF 00A8FF00B00200B8FF20B80200B0FF00
01033660: FFFFFFFFFFFFFFFFFFFFFFFFFFFFFFFF A80200A0020098FC0080007000600058
01033670: FFFFFFFFFFFFFFFFFFFFFFFFFFFFFFFF 030050F9005800600068007000800088
01033680: FFFFFFFFFFFFFFFFFFFFFFFFFFFFFFFF 00980400A0FE00A800B00200C0F200B8
01033690: FFFFFFFFFFFFFFFFFFFFFFFFFFFFFFFF 00B000A0009000800070006800600050
010336A0: FFFFFFFFFFFFFFFFFFFFFFFFFFFFFFFF 00480040003800300028020020030018
010336B0: FFFFFFFFFFFFFFFFFFFFFFFFFFFFFFFF 030010090008060010FF0018030020FD
010336C0: FFFFFFFFFFFFFFFFFFFFFFFFFFFFFFFF 002800300038020040F5004800500058
010336D0: FFFFFFFFFFFFFFFFFFFFFFFFFFFFFFFF 00600068017000780088009800A800B8
010336E0: FFFFFFFFFFFFFFFFFFFFFFFFFFFFFFFF 0200C00220C00200B8FF00B00200A804
010336F0: FFFFFFFFFFFFFFFFFFFFFFFFFFFFFFFF 00A0FF00A80200B0FF00B80200C0F820
01033700: FFFFFFFFFFFFFFFFFFFFFFFFFFFFFFFF B820B0009800800070209800A800B002
01033710: FFFFFFFFFFFFFFFFFFFFFFFFFFFFFFFF 00B8FE00B000A80800A00200A80200B0
01033720: FFFFFFFFFFFFFFFFFFFFFFFFFFFFFFFF FC21B801C000B800B00200A80200A0FC
01033730: FFFFFFFFFFFFFFFFFFFFFFFFFFFFFFFF 0098008000680050020040020038F600
01033740: FFFFFFFFFFFFFFFFFFFFFFFFFFFFFFFF 30003800400048005800600070007800
01033750: FFFFFFFFFFFFFFFFFFFFFFFFFFFFFFFF 8800980400A0FE00A800B80200C0F300
01033760: FFFFFFFFFFFFFFFFFFFFFFFFFFFFFFFF B800B000A00090008000780070006000
01033770: FFFFFFFFFFFFFFFFFFFFFFFFFFFFFFFF 58005000480040003802003002002804
01033780: FFFFFFFFFFFFFFFFFFFFFFFFFFFFFFFF 0020090018030020030028FF00300200
01033790: FFFFFFFFFFFFFFFFFFFFFFFFFFFFFFFF 38020040F50048005000580060006800
010337A0: FFFFFFFFFFFFFFFFFFFFFFFFFFFFFFFF 7000780080009000A000B00400C0FD00
010337B0: FFFFFFFFFFFFFFFFFFFFFFFFFFFFFFFF B800B000A80300A00700980300A0FE00
010337C0: FFFFFFFFFFFFFFFFFFFFFFFFFFFFFFFF A800B80200C0FE20B800A0020088FC00
010337D0: FFFFFFFFFFFFFFFFFFFFFFFFFFFFFFFF A000B020B020B80200B00200A80500A0
010337E0: FFFFFFFFFFFFFFFFFFFFFFFFFFFFFFFF 0200A80200B0FD00B801B821B80200B0
010337F0: FFFFFFFFFFFFFFFFFFFFFFFFFFFFFFFF FF00A80200A0F9009000800068005000
01033800: FFFFFFFFFFFFFFFFFFFFFFFFFFFFFFFF 3800300028040020F600280030003800
01033810: FFFFFFFFFFFFFFFFFFFFFFFFFFFFFFFF 480050006000700080008800980300A0
01033820: FFFFFFFFFFFFFFFFFFFFFFFFFFFFFFFF EE00A800B000B820C000C020B800B000
01033830: FFFFFFFFFFFFFFFFFFFFFFFFFFFFFFFF A0009000800078007000680060005800
01033840: FFFFFFFFFFFFFFFFFFFFFFFFFFFFFFFF 50004800400200380300300A00280200
01033850: FFFFFFFFFFFFFFFFFFFFFFFFFFFFFFFF 30030038020040020048F50050005800
01033860: FFFFFFFFFFFFFFFFFFFFFFFFFFFFFFFF 6000680070007800800088209820A800
01033870: FFFFFFFFFFFFFFFFFFFFFFFFFFFFFFFF B80300C0FE00B800A80300A0050098FF
01033880: FFFFFFFFFFFFFFFFFFFFFFFFFFFFFFFF 0090060098FF00A0020098F200A000A8
01033890: FFFFFFFFFFFFFFFFFFFFFFFFFFFFFFFF 00B800C001C001A80078009000A800B0
010338A0: FFFFFFFFFFFFFFFFFFFFFFFFFFFFFFFF 00B820B800B800B00600A80200B00200
010338B0: FFFFFFFFFFFFFFFFFFFFFFFFFFFFFFFF B80201B80200B00200A8F800A0009800
010338C0: FFFFFFFFFFFFFFFFFFFFFFFFFFFFFFFF 8800680050004000280020020018FF00
010338D0: FFFFFFFFFFFFFFFFFFFFFFFFFFFFFFFF 10030018F60020002800380040004800
010338E0: FFFFFFFFFFFFFFFFFFFFFFFFFFFFFFFF 5800600070008000900200980200A0F2
010338F0: FFFFFFFFFFFFFFFFFFFFFFFFFFFFFFFF 00A800B020B820C000C020B820B000A0
01033900: FFFFFFFFFFFFFFFFFFFFFFFFFFFFFFFF 009000800078007000680060020058FF
01033910: FFFFFFFFFFFFFFFFFFFFFFFFFFFFFFFF 00500200480500400500380400400300
01033920: FFFFFFFFFFFFFFFFFFFFFFFFFFFFFFFF 48FE00500058020060FF0068020070FB
01033930: FFFFFFFFFFFFFFFFFFFFFFFFFFFFFFFF 00780080009020A020B00220C0FD00C0
01033940: FFFFFFFFFFFFFFFFFFFFFFFFFFFFFFFF 20B800B00300A0030098FF0090020088
01033950: FFFFFFFFFFFFFFFFFFFFFFFFFFFFFFFF 070080FF0088020090020098F500A000
01033960: FFFFFFFFFFFFFFFFFFFFFFFFFFFFFFFF 9800A000B020C000C000600078009800
01033970: FFFFFFFFFFFFFFFFFFFFFFFFFFFFFFFF B020B00300B80800B00200B8FF21B802
01033980: FFFFFFFFFFFFFFFFFFFFFFFFFFFFFFFF 00B00200A8F800A00098009000700058
01033990: FFFFFFFFFFFFFFFFFFFFFFFFFFFFFFFF 004000280018020010040008FF001002
010339A0: FFFFFFFFFFFFFFFFFFFFFFFFFFFFFFFF 0018F600200028003000400048005800
010339B0: FFFFFFFFFFFFFFFFFFFFFFFFFFFFFFFF 680070008000880200980300A0FE00B0
010339C0: FFFFFFFFFFFFFFFFFFFFFFFFFFFFFFFF 00B80200C0F920B800B000A800980088
010339D0: FFFFFFFFFFFFFFFFFFFFFFFFFFFFFFFF 00800078020070FF0068020060030058
010339E0: FFFFFFFFFFFFFFFFFFFFFFFFFFFFFFFF 090050030058020060020068FF007002
010339F0: FFFFFFFFFFFFFFFFFFFFFFFFFFFFFFFF 0078FB0088009000A021B020B80200C0
01033A00: FFFFFFFFFFFFFFFFFFFFFFFFFFFFFFFF FC20C000B800A800A0030098FE009000
01033A10: FFFFFFFFFFFFFFFFFFFFFFFFFFFFFFFF 88020080FF0078020070070068FF0070
01033A20: FFFFFFFFFFFFFFFFFFFFFFFFFFFFFFFF 020078FE00800088030098F900A000B0
01033A30: FFFFFFFFFFFFFFFFFFFFFFFFFFFFFFFF 00C000580068008800A80200B0FF00B8
01033A40: FFFFFFFFFFFFFFFFFFFFFFFFFFFFFFFF 0220B80200B8FD00B000B800B00200B8
01033A50: FFFFFFFFFFFFFFFFFFFFFFFFFFFFFFFF FD00C020B820B00200B0FF00A80200A0
01033A60: FFFFFFFFFFFFFFFFFFFFFFFFFFFFFFFF F9009000780060004000300020001002
01033A70: FFFFFFFFFFFFFFFFFFFFFFFFFFFFFFFF 0008030000030008FE00100018020020
01033A80: FFFFFFFFFFFFFFFFFFFFFFFFFFFFFFFF F6002800380040005000580068007000
01033A90: FFFFFFFFFFFFFFFFFFFFFFFFFFFFFFFF 80009000980300A0FC00A800B000B820
01033AA0: FFFFFFFFFFFFFFFFFFFFFFFFFFFFFFFF C00200C0F901B800A800A00098008800
01033AB0: FFFFFFFFFFFFFFFFFFFFFFFFFFFFFFFF 80007802007004006807006003006803
01033AC0: FFFFFFFFFFFFFFFFFFFFFFFFFFFFFFFF 0070F1007800800088009000A020B000
01033AD0: FFFFFFFFFFFFFFFFFFFFFFFFFFFFFFFF B800C020C000C000B800B000A800A000
01033AE0: FFFFFFFFFFFFFFFFFFFFFFFFFFFFFFFF 98020090FC0088008020780070020068
01033AF0: FFFFFFFFFFFFFFFFFFFFFFFFFFFFFFFF 020060020058060050FF0058020060FC
01033B00: FFFFFFFFFFFFFFFFFFFFFFFFFFFFFFFF 0070007800800088020098F900A000A8
01033B10: FFFFFFFFFFFFFFFFFFFFFFFFFFFFFFFF 004800580078009000A80300B00220B8
01033B20: FFFFFFFFFFFFFFFFFFFFFFFFFFFFFFFF 0500B8FE20B800B80300B0FF00A80200
01033B30: FFFFFFFFFFFFFFFFFFFFFFFFFFFFFFFF A0F90098008000600048003000200010
01033B40: FFFFFFFFFFFFFFFFFFFFFFFFFFFFFFFF 020008070000020008FE001000180200
01033B50: FFFFFFFFFFFFFFFFFFFFFFFFFFFFFFFF 20F70030003800480050005800680078
01033B60: FFFFFFFFFFFFFFFFFFFFFFFFFFFFFFFF 008000900200980300A0FD00B020B020
01033B70: FFFFFFFFFFFFFFFFFFFFFFFFFFFFFFFF B80300C0FA20B800B000A80098009000
01033B80: FFFFFFFFFFFFFFFFFFFFFFFFFFFFFFFF 880200800B0078020080FA0088209000
01033B90: FFFFFFFFFFFFFFFFFFFFFFFFFFFFFFFF A000A800B001B80201C0FC00C000B800
01033BA0: FFFFFFFFFFFFFFFFFFFFFFFFFFFFFFFF B000A0020098020090FC008800800078
01033BB0: FFFFFFFFFFFFFFFFFFFFFFFFFFFFFFFF 0070020068FD00600058005002004802
01033BC0: FFFFFFFFFFFFFFFFFFFFFFFFFFFFFFFF 0040060038020040F900480050006000
01033BD0: FFFFFFFFFFFFFFFFFFFFFFFFFFFFFFFF 68007800800090020098F60030004800
01033BE0: FFFFFFFFFFFFFFFFFFFFFFFFFFFFFFFF 600078009800A800B001B000B020B005
01033BF0: FFFFFFFFFFFFFFFFFFFFFFFFFFFFFFFF 20B8FF20B00200B00300A8F600A00098
01033C00: FFFFFFFFFFFFFFFFFFFFFFFFFFFFFFFF 00880068005000380020001800100008
01033C10: FFFFFFFFFFFFFFFFFFFFFFFFFFFFFFFF 0A0000020008F1001000180020002800
01033C20: FFFFFFFFFFFFFFFFFFFFFFFFFFFFFFFF 30004000480050005800680070008000
01033C30: FFFFFFFFFFFFFFFFFFFFFFFFFFFFFFFF 88009000980300A0FE00A800B00220B8
01033C40: FFFFFFFFFFFFFFFFFFFFFFFFFFFFFFFF FF00C00320C0FC20B820B020A800A802
01033C50: FFFFFFFFFFFFFFFFFFFFFFFFFFFFFFFF 00A0070098FF00A00200A8FC20B020B8
01033C60: FFFFFFFFFFFFFFFFFFFFFFFFFFFFFFFF 21B801C00300C0FE00B800A80200A002
01033C70: FFFFFFFFFFFFFFFFFFFFFFFFFFFFFFFF 0098F900900088008000780070006800
01033C80: FFFFFFFFFFFFFFFFFFFFFFFFFFFFFFFF 60020058FD0050004800400200380200
01033C90: FFFFFFFFFFFFFFFFFFFFFFFFFFFFFFFF 30080028EF0030003800400048005000
01033CA0: FFFFFFFFFFFFFFFFFFFFFFFFFFFFFFFF 60006800780088209000280038005000
01033CB0: FFFFFFFFFFFFFFFFFFFFFFFFFFFFFFFF 680080009800A80200B0FF01B00800B0
01033CC0: FFFFFFFFFFFFFFFFFFFFFFFFFFFFFFFF 0200A80200A0F8008800700050004000
01033CD0: FFFFFFFFFFFFFFFFFFFFFFFFFFFFFFFF 280018001000080C0000020008020010
01033CE0: FFFFFFFFFFFFFFFFFFFFFFFFFFFFFFFF F9001800200028003000380048005002
01033CF0: FFFFFFFFFFFFFFFFFFFFFFFFFFFFFFFF 0060FA00700078008000880090009803
01033D00: FFFFFFFFFFFFFFFFFFFFFFFFFFFFFFFF 00A00200A8FF00B00200B80200C00220
01033D10: FFFFFFFFFFFFFFFFFFFFFFFFFFFFFFFF C00400C0FF20C00600C0FF20C00200C0
01033D20: FFFFFFFFFFFFFFFFFFFFFFFFFFFFFFFF FB00B800B020A800A800A0020098FF00
01033D30: FFFFFFFFFFFFFFFFFFFFFFFFFFFFFFFF 90020088FD008000780070020068FA00
01033D40: FFFFFFFFFFFFFFFFFFFFFFFFFFFFFFFF 6000580050004800400038020030FF00
01033D50: FFFFFFFFFFFFFFFFFFFFFFFFFFFFFFFF 28020020090018020020F10028003000
01033D60: FFFFFFFFFFFFFFFFFFFFFFFFFFFFFFFF 40004800580068007800880018002800
01033D70: FFFFFFFFFFFFFFFFFFFFFFFFFFFFFFFF 3800500068008000980200A80800B002
01033D80: FFFFFFFFFFFFFFFFFFFFFFFFFFFFFFFF 00A80200A0F800880070005800400028
01033D90: FFFFFFFFFFFFFFFFFFFFFFFFFFFFFFFF 0018001000080F0000030008F0001000
01033DA0: FFFFFFFFFFFFFFFFFFFFFFFFFFFFFFFF 18002000280030003800400048005800
01033DB0: FFFFFFFFFFFFFFFFFFFFFFFFFFFFFFFF 60006800700078008000880090030098
01033DC0: FFFFFFFFFFFFFFFFFFFFFFFFFFFFFFFF 0400A0FF00A80400B00700B80200B0FD
01033DD0: FFFFFFFFFFFFFFFFFFFFFFFFFFFFFFFF 00A820A000A002009802009002008802
01033DE0: FFFFFFFFFFFFFFFFFFFFFFFFFFFFFFFF 0080FB00780070006800600058020050
01033DF0: FFFFFFFFFFFFFFFFFFFFFFFFFFFFFFFF FC0048004000380030020028FF002002
01033E00: FFFFFFFFFFFFFFFFFFFFFFFFFFFFFFFF 0018030010070008030010EF00180020
01033E10: FFFFFFFFFFFFFFFFFFFFFFFFFFFFFFFF 00280030004000500060007000100018
01033E20: FFFFFFFFFFFFFFFFFFFFFFFFFFFFFFFF 00280040005000680080009000A00900
01033E30: FFFFFFFFFFFFFFFFFFFFFFFFFFFFFFFF A8F600A0009800880070005800400030
01033E40: FFFFFFFFFFFFFFFFFFFFFFFFFFFFFFFF 002000100008120000020008020010F4
01033E50: FFFFFFFFFFFFFFFFFFFFFFFFFFFFFFFF 00180020002800300038004000480050
01033E60: FFFFFFFFFFFFFFFFFFFFFFFFFFFFFFFF 0058006000680070020078FF00800200
01033E70: FFFFFFFFFFFFFFFFFFFFFFFFFFFFFFFF 88FE009020900600980500A004009802
01033E80: FFFFFFFFFFFFFFFFFFFFFFFFFFFFFFFF 0090030088020080FF0078020070FF00
01033E90: FFFFFFFFFFFFFFFFFFFFFFFFFFFFFFFF 68020060FA0058005000480040003800
01033EA0: FFFFFFFFFFFFFFFFFFFFFFFFFFFFFFFF 30020028FF0020020018020010040008
01033EB0: FFFFFFFFFFFFFFFFFFFFFFFFFFFFFFFF 070000030008020010F0001800200028
01033EC0: FFFFFFFFFFFFFFFFFFFFFFFFFFFFFFFF 00380048005800080010002000300040
01033ED0: FFFFFFFFFFFFFFFFFFFFFFFFFFFFFFFF 005000680080009000A00600A80200A0
01033EE0: FFFFFFFFFFFFFFFFFFFFFFFFFFFFFFFF F6009800880070006000480038002000
01033EF0: FFFFFFFFFFFFFFFFFFFFFFFFFFFFFFFF 1800100008140000020008020010F700
01033F00: FFFFFFFFFFFFFFFFFFFFFFFFFFFFFFFF 18002000280030003800400048005000
01033F10: FFFFFFFFFFFFFFFFFFFFFFFFFFFFFFFF 58020060FF0068020070FF0078020080
01033F20: FFFFFFFFFFFFFFFFFFFFFFFFFFFFFFFF 03008806009005008803008002007802
01033F30: FFFFFFFFFFFFFFFFFFFFFFFFFFFFFFFF 0070020068FF0060020058FC00500048
01033F40: FFFFFFFFFFFFFFFFFFFFFFFFFFFFFFFF 00400038020030FF0028020020FF0018
01033F50: FFFFFFFFFFFFFFFFFFFFFFFFFFFFFFFF 0200100300080E0000020008EE001000
01033F60: FFFFFFFFFFFFFFFFFFFFFFFFFFFFFFFF 18002000280038004800080010001800
01033F70: FFFFFFFFFFFFFFFFFFFFFFFFFFFFFFFF 20003000400050006000780088009000
01033F80: FFFFFFFFFFFFFFFFFFFFFFFFFFFFFFFF 980300A0020098F60090008000680058
01033F90: FFFFFFFFFFFFFFFFFFFFFFFFFFFFFFFF 00480038002800180010000817000002
01033FA0: FFFFFFFFFFFFFFFFFFFFFFFFFFFFFFFF 0008020010FF0018020020FC00280030
01033FB0: FFFFFFFFFFFFFFFFFFFFFFFFFFFFFFFF 00380040020048FE0050005802006002
01033FC0: FFFFFFFFFFFFFFFFFFFFFFFFFFFFFFFF 00680300700900780300700300680200
01033FD0: FFFFFFFFFFFFFFFFFFFFFFFFFFFFFFFF 60020058FF0050020048FF0040020038
01033FE0: FFFFFFFFFFFFFFFFFFFFFFFFFFFFFFFF FE00300028020020020018FF00100300
01033FF0: FFFFFFFFFFFFFFFFFFFFFFFFFFFFFFFF 08130000020008EF0010001800280038
01034000: FFFFFFFFFFFFFFFFFFFFFFFFFFFFFFFF 00000008001000180020003000380048
01034010: FFFFFFFFFFFFFFFFFFFFFFFFFFFFFFFF 00580060007000780080020088020080
01034020: FFFFFFFFFFFFFFFFFFFFFFFFFFFFFFFF F7007000600050004000300028001800
01034030: FFFFFFFFFFFFFFFFFFFFFFFFFFFFFFFF 1000081A0000030008FF0010020018FF
01034040: FFFFFFFFFFFFFFFFFFFFFFFFFFFFFFFF 0020020028FE00300038020040020048
01034050: FFFFFFFFFFFFFFFFFFFFFFFFFFFFFFFF FF00500300580B006004005802005002
01034060: FFFFFFFFFFFFFFFFFFFFFFFFFFFFFFFF 0048020040FF0038020030FF00280200
01034070: FFFFFFFFFFFFFFFFFFFFFFFFFFFFFFFF 20FF0018020010030008170000020008
01034080: FFFFFFFFFFFFFFFFFFFFFFFFFFFFFFFF FD001000180028020000F60008001000
01034090: FFFFFFFFFFFFFFFFFFFFFFFFFFFFFFFF 18002000280038004000500058006004
010340A0: FFFFFFFFFFFFFFFFFFFFFFFFFFFFFFFF 0068F800600058005000400030002800
010340B0: FFFFFFFFFFFFFFFFFFFFFFFFFFFFFFFF 1800100200081C0000030008020010FF
010340C0: FFFFFFFFFFFFFFFFFFFFFFFFFFFFFFFF 0018020020020028FF00300200380200
010340D0: FFFFFFFFFFFFFFFFFFFFFFFFFFFFFFFF 40030048090050040048020040030038
010340E0: FFFFFFFFFFFFFFFFFFFFFFFFFFFFFFFF FF003002002802002002001802001002
010340F0: FFFFFFFFFFFFFFFFFFFFFFFFFFFFFFFF 00081B0000020008FE00100018030000
01034100: FFFFFFFFFFFFFFFFFFFFFFFFFFFFFFFF 020008FB001000180020003000380200
01034110: FFFFFFFFFFFFFFFFFFFFFFFFFFFFFFFF 40FF0048020050FF0048020040FA0030
01034120: FFFFFFFFFFFFFFFFFFFFFFFFFFFFFFFF 00280020001800100008210000030008
01034130: FFFFFFFFFFFFFFFFFFFFFFFFFFFFFFFF 02001002001803002002002803003005
01034140: FFFFFFFFFFFFFFFFFFFFFFFFFFFFFFFF 0038FF00400500380300300200280300
01034150: FFFFFFFFFFFFFFFFFFFFFFFFFFFFFFFF 20020018030010020008200000FE0008
01034160: FFFFFFFFFFFFFFFFFFFFFFFFFFFFFFFF 0010040000020008FE00100018020020
01034170: FFFFFFFFFFFFFFFFFFFFFFFFFFFFFFFF FF0028020030FF0038030030FC002800
01034180: FFFFFFFFFFFFFFFFFFFFFFFFFFFFFFFF 20001800100200082500000300080400
01034190: FFFFFFFFFFFFFFFFFFFFFFFFFFFFFFFF 10030018060020030028060020030018
010341A0: FFFFFFFFFFFFFFFFFFFFFFFFFFFFFFFF 030010040008240000FF000805000002
010341B0: FFFFFFFFFFFFFFFFFFFFFFFFFFFFFFFF 0008020010020018060020020018FF00
010341C0: FFFFFFFFFFFFFFFFFFFFFFFFFFFFFFFF 100200082900000500080400100A0018
010341D0: FFFFFFFFFFFFFFFFFFFFFFFFFFFFFFFF 0600100400082F000003000808001003
010341E0: FFFFFFFFFFFFFFFFFFFFFFFFFFFFFFFF 00082F00001200083700000900087F00
010341F0: FFFFFFFFFFFFFFFFFFFFFFFFFFFFFFFF 007F00007F00007F00007F00007F0000
01034200: FFFFFFFFFFFFFFFFFFFFFFFFFFFFFFFF 7F00007F00007F00007F00007F000025
01034210: FFFFFFFFFFFFFFFFFFFFFFFFFFFFFFFF 0000F9E4202000821041088210000020
01034220: FFFFFFFFFFFFFFFFFFFFFFFFFFFFFFFF 00020000FC6108452961084108020000
01034230: FFFFFFFFFFFFFFFFFFFFFFFFFFFFFFFF FD210800002108050000FA2000000041
01034240: FFFFFFFFFFFFFFFFFFFFFFFFFFFFFFFF 08610862108210670000F44D6B10848E
01034250: FFFFFFFFFFFFFFFFFFFFFFFFFFFFFFFF 73CF7BEF7BAE7300008631B2942421F3
01034260: FFFFFFFFFFFFFFFFFFFFFFFFFFFFFFFF 9C8E7302EB5AF8E841C3183084A73900
01034270: FFFFFFFFFFFFFFFFFFFFFFFFFFFFFFFF 002842718C4D6B02494AFA0421E42092
01034280: FFFFFFFFFFFFFFFFFFFFFFFFFFFFFFFF 94AA522C632000660000E3284238C60C
01034290: FFFFFFFFFFFFFFFFFFFFFFFFFFFFFFFF 63F39C108434A5242128429AD6E3182C
010342A0: FFFFFFFFFFFFFFFFFFFFFFFFFFFFFFFF 6308426D6BCF7B694AE420718CE73945
010342B0: FFFFFFFFFFFFFFFFFFFFFFFFFFFFFFFF 29CB5AD7BDEF7B694A0842EB5A8631AE
010342C0: FFFFFFFFFFFFFFFFFFFFFFFFFFFFFFFF 73CB5A6D6B670000F341088631A21045
010342D0: FFFFFFFFFFFFFFFFFFFFFFFFFFFFFFFF 29A3186529084204212421E420284220
010342E0: FFFFFFFFFFFFFFFFFFFFFFFFFFFFFFFF 006529020000F2C3188210C318494A45
010342F0: FFFFFFFFFFFFFFFFFFFFFFFFFFFFFFFF 29242165290C638210494AC739042186
01034300: FFFFFFFFFFFF 31E841670000



;------------------------- end -------------------------

