;S45iv4
;Изменение заставки на выключение телефона
;Change the switch off screen
;(c) SPC3
;(r) ACiD[mrp], Cluni and b@iLLi 
;Version: 
;PatchID: 10689
;Details: https://patches.kibab.com/patches/details.php5?id=10689
/*
Понравилась заставка на выключение. Советую всем
*/

; #######################################################################
; ### This file is made by ©SiemensPictureChange 2.0 - Build 0.9.2.9 ###
; ### programmed ©2003 by ACiD[mrp], Cluni and b@iLLi                 ###
; ###                                                                 ###
; ### GSM Development Crew - www.gsm-dev.com                          ###
; ### GSM Multifund, Handyhacking - http://www.gsm-multifund.de/board ###
; ###                                                                 ###
; ### Date: 28.7.2003  -  Time: 22:57:34                             ###
; ### Patch for: SIEMENS S45i v4                                      ###
; #######################################################################


; ##### Picture 130 #####

; Picture Data
0CFA04: FFFFFFFFFFFFFFFFFFFFFFFFFFFFE07F 00000000000000000000000007000000
0CFA14: FFBFFFFFFEDFFFB7FFFFFF8F1FFFFFFF 00000000000000000007320008007800
0CFA24: FFFFB5FFED7EFFFF87E7FFFFFFFFFFFF 000000000000074A0240004400000000
0CFA34: FFFFFBFFF701F3FFFFFFFDFFF77FFDEF 00000007232B6B1C44CAB00000000000
0CFA44: FFF700F3FFFFFFBFEFFFFBFFFFBFFF00 0712AA4AA4452AA80000000000074AAA
0CFA54: 71FFFFDBFFFFFFFFFFFFFFFF0039FFFF 4AA445252800000000000732992A9C78
0CFA64: FFFEFFFFBFFFFFFFFF0019F7FF7FFFDF C5282480000000070000000400000000
0CFA74: FFF7FFFFFFFF8009DFDFFFFFFFFFFFFF 00000000070000001800000000000000
0CFA84: FFFFFB800D7FFFF7FFFFFFFFFFFEFFFF 000700000000000000000000000007FF
0CFA94: C00DFDFFFFFFBFFFEFFFFFFFFFC00DFF FFFFFFFFFFFFFFFFFFFFFFFF00000000
0CFAA4: FFFFFFFDFFFF7EFBFFFDF00DFFDFFFFF 00000000000000000700000000000000
0CFAB4: FFFFFFFBFFFFFFB80FFFFFFFFDFFFF7F 00000000000700000000000000000000
0CFAC4: FFFFEFFFFE07FFFFFBBFFFEFFFFFFFFF 00000700000000000000000000000007
0CFAD4: FFFFE3F7FDFFFFFEDFFFB7FFFFFF7FF3 00000000000000000000000007000000
0CFAE4: FFFEFFFFFFFFFFFFFFFFFFFBF1DFDFFF 00000000000000000007000000000000
0CFAF4: FFEFFFFBFBFF7FFFFFD8FFFFFFFFFFFF 00000000000007000000000000000000
0CFB04: FFFFEFFFFBFFFCFF7FFFDFFFF7FFFFFF 00000007000000000000000000000000
0CFB14: DF7FFFFE4FFFFFDFFFF7FFFFFFFFFFFD 07000000000000000000000000070000
0CFB24: BF60FFFEFFFFFFFFFFF7EFFFFFFF301D 00000000000000000000070000000000
0CFB34: FFBFFDEFFF7FFFFFF01FDE0F07FFFBFF 00000000000000070000000000000000
0CFB44: FEFFFFFFFFE78FFC07E1FFFBFFFEFFFF 00000000070000000000000000000000
0CFB54: FEBF83E7F803F1FFFFFFFFFFFFFBFF81 00070000000000000000000000000700
0CFB64: F7F001F8F7FFFEBFFFAFFFFF80F3F000 00000000000000000000000700000000
0CFB74: FC6FFFFFFFFFFFFFFF0073F0007E3FFF 00000000000000000700000000000000
0CFB84: FFFFFFFFFFFF803800003E7FFE03FF7F 00000000000700000000000000000000
0CFB94: FEFFFFC01800001F3FFC00FFFFFDBFFF 00000700000000000000000000000007
0CFBA4: C019F0001F3FF83E7FFFBFFF7FE01170 00000000000000000000000007000000
0CFBB4: 000F3FF01F7FF7FFFEFFF003F0000707 00000000000000000007000000000000
0CFBC4: F00FBFFDBFFFFFF807F800070000079F 00000000000007000000000000000000
0CFBD4: CFDBEFFFFE1FF800072000039FFFFFDF 00000007000000000000000000000000
0CFBE4: EFFFFFF8000703C001CFFFFFEFFFFFFF 07000000000000000000000000070000
0CFBF4: BC00033C0001CFFFFFF7FFFFBDFE0003 00000000000000000000070000000000
0CFC04: 3FE000CFFFFFFFFFFFFFFF00005FF000 00000000000000070000000000000000
0CFC14: CFFFFEFEFFFFFFFF8001FFF800CFFFFF 00000000070000000000000000000000
0CFC24: FBFFFFBFFFC000FFFC009FFFFFFFEFFF 00070000000000000000000000000700
0CFC34: FFFFE01C7FFE001FFBFFFFFFBFDFF6FF 00000000000000000000000700000000
0CFC44: FE7FFE003FFEFFFFFFFFFFFDAFDF3FFF 00000000000000000700000000000000
0CFC54: 007FFFFFFFFFFFFFFFFF7F1FFFC1FFFF 00000000000700000000000000000000
0CFC64: FFFFFFFFEFFFBDFF80F7FFDFFFFFF7FF 00000700000000000000000000000007
0CFC74: FFFF7FFFF71C3FFFFFEFFFF7FFFFFFFF 00000000000000000000000007000000
0CFC84: FFFF0F1FFF7FFFFFFFF7FFF7FFFFFE03 00000000000000000007000000000000
0CFC94: 9FFFFFFFF9EFFF6FFEFFFFFE01CFFFFF 00000000000007000000000000000000
0CFCA4: F7FBFFFFFFFFFFFFFE00CFFFFFFFFFFF 00000007000000000000000000000000
0CFCB4: FF7FFFFFFFDE00EFFBFFFEFFFBFFFFFD 07000000000000000000000000070000
0CFCC4: FFFFFE006F7FFFFFFFFFFFFFFFEFDF7E 00000000000000000000070000000000
0CFCD4: 002FFFFFFFFFFFFFF7FFFF7FFE000FFF 00000000000000070000000000000000
0CFCE4: FFFFFFFFFFFFEFFFFFFD000FFFFFFF7F 00000000070000000000000000000000
0CFCF4: FFDFBDFFFFFFFF801FFFFBFFFFE7FFFF 00070000000000000000000000000700
0CFD04: FFF6FFFFC03FFFFBFFFFFFFFFFFFFFFF 00000000000000000000000700000000
0CFD14: FFF0FFFFFFFFFFFFFFFFFF7F7FEFFF6B 00000000000000000700000000000000
0CFD24: F7FFFFFEFFFFFFFFFFFDFFFFFFDFDFFF 00000000000700000000000000000000
0CFD34: F7FFFFF6FFFFFFFBFFEF7FFFEFBFEFDF 00000700000000000000000000000007
0CFD44: FEFFFFFFFFDFFFFDFFFFFFF7FFFFFFFF 00000000000000000000000007000000
0CFD54: FEFFFFFFFFFFEFBFFDFFF9FFEFFFFDFF 00000000000000000007000000000000
0CFD64: FFFFDDFFFFFFFFFFDFFFFFFFBFFFFFFF 00000000000007000000000000000000
0CFD74: FFBFFFFFFFDFFFFFFFFFFFFFFFEFFFFB 00000007000000000000000000000000
0CFD84: FFFFFFFFFFFFFFFFF7FBFFFEFFFFFFFF 07000000000000000000000000070000
0CFD94: F5FFFF7FFFFFFFFFFFFDFFFFFFFFFFFF 00000000000000000000070000000000
0CFDA4: FBF7DFDFFFDFFF7FEFFFFFFFFFFFDFFF 00000000000000070000000000000000
0CFDB4: FFFFFFDF7FFFEFFFDFFBFFFFFF7FFFFF 00000000070000000000000000000000
0CFDC4: FFFFFFFFFF7F7FFFFFFFFFFB7FFFFFFF 00070000000000000000000000000700
0CFDD4: FFFFFFFFFDBFFFFBDFFFFFFF7FFEFFFF 00000000000000000000000700000000
0CFDE4: FFFFFFFFFFFFFFFBFFFFFFF6FFFFDFDF 00000000000000000700000000000000
0CFDF4: FBEEBFFFFFFFFFFFFFFFFFFFFF7FDFDF 00000000000700000000000000000000
0CFE04: BFDFFFFFFF7F7FBFFFFFFFFFFFFFFFFF 00000700000000000000000000000007

; ##### Picture 131 #####

; Picture Data
0D0000: FFFFFFFFFFFFFFFFFFFFFFFFFFFFFFFF 00000000000000000000000007000000
0D0010: FFBFFFFFFEDFFFB7FFFFFFFBFFFFFFFF 00000000000000000007320008007800
0D0020: FFFFB5FFED7EFFFFBFFFFFFFFFFFFFFF 000000000000074A0240004400007FFF
0D0030: FFFFFBFFF7FFFFFFFFFFFDFFF77FFDEF FFFFFFF7232B6B1C44CAB04000000000
0D0040: FFF7FFFFFFFFFFBFEFFFFBFFFFBFFFFF 1712AA4AA4452AA84000000000174AAA
0D0050: FFFFFFDBFFFFFFFFFFFFFFFFFDBFFFFF 4AA445252840000000001732992A9C78
0D0060: FFFEFFFFBFFFFFFFFFFF6BF7FF7FFFDF C528400000000017000000040000007F
0D0070: FFF7FFFFFFFFFFFFDFDFFFFFFFFFFFFF FFFFFFFFF70000001800000000000000
0D0080: FFFFFBFFEF7FFFF7FFFFFFFFFFFEFFFF 000700000000000000000000000007FF
0D0090: DFFFFDFFFFFFBFFFEFFFFFFFFFFFFFFF FFFFFFFFFFFFFFFFFFFFFFFF00000000
0D00A0: FFFFFFFDFFFF7EFBFFFDFFFFFFDFFFFF 00000000000000000700000000000000
0D00B0: FFFFFFFBFFFFFFBFFFFFFFFFFDFFFF7F 00000000000738CC6200000480000000
0D00C0: FFFFEFFFFFFFFFFFFBBFFFEFFFFFFFFF 000007452C6200000900000000000007
0D00D0: FFFFFFF7FDFFFFFEDFFFB7FFFFFF7FFF 408AA218E0CD800000000000074C4AA2
0D00E0: FFFEFFFFFFFFFFFFFFFFFFFBF7DFDFFF 252D2900000000000007452922252129
0D00F0: FFEFFFFBFBFF7FFFFFDFFFFFFFFFFFFF 000000000000073CC92398E0C92AAAAA
0D0100: FFFFEFFFFBFFE01F7FFFDFFFF7FFFFFF AA800007000000002000000000000000
0D0110: DF7FFFCFCFFFFFDFFFF7FFFFFFFFFFFD 0700000000C000000000000000070000
0D0120: 83E7FFFEFFFFFFFFFFF7EFFFFF80F7FD 00000000000000000000070000000000
0D0130: FFBFFDEFFF7FFFFFFFDF00737FFFFBFF 00000000000000070000000000000000
0D0140: FEFFFFFFFFFFFF003BF5FFFBFFFEFFFF 00000000070000000000000000000000
0D0150: FEBFBFFF001BFFFFFFFFFFFFFFFBFFBF 00070000000000000000000000000700
0D0160: FF001BFFF7FFFEBFFFAFFFFFFFFF801F 00000000000000000000000700000000
0D0170: 7FEFFFFFFFFFFFFFFF7FFB800FFFBFFF 00000000000000000700000000000000
0D0180: FFFFFFFFFFFFF7FFC007FEFFFDFFFF7F 00000000000700000000000000000000
0D0190: FEFFFFF7FFE003FFFFFFFE07FFFDBFFF 00000700000000000000000000000007
0D01A0: FFFFFFF1FFFFFFFCF3FFBFFF7FFFFD7F 00000000000000000000000007000000
0D01B0: F8FFFFFFF3F9F7FFFEFFFFFFFFFC7007 00000000000000000007000000000000
0D01C0: FFE07DFDBFFFFFFFFFFFFE3FE3FFC03E 00000000000007000000000000000000
0D01D0: CFDBEFFFFBFFFEFB1FF1FFC01EFFFFDF 00000007000000000000000000000000
0D01E0: EFFFFFF7FE07F8EBC00EFFFFEFFFFFFF 07000000000000000000000000070000
0D01F0: BFFC007C7FC006FFFFF7FFFFBDFFFC00 00000000000000000000070000000000
0D0200: 3E780006FFFFFFFFFFFFFFF8001F0000 00000000000000070000000000000000
0D0210: 06FFFEFEFFFFFFFFF8000F03C001FFFF 00000000070000000000000000000000
0D0220: FBFFFFBF9FF800071FC001FFFFFFEFFF 00070000000000000000000000000700
0D0230: FC67F000077FC003FBFFFFFFBFD9F9E0 00000000000000000000000700000000
0D0240: 00037FE00FFEFFFFFFFFF81D8000037F 00000000000000000700000000000000
0D0250: F01FFFFFFFFFFFF00C0000027FFFFFFF 00000000000700000000000000000000
0D0260: FFFFFFFFF00C380001F7DFDFFFFFF7FF 00000700000000000000000000000007
0D0270: FFF005F80000FFFFFFEFFFF7FFFFF004 00000000000000000000000007000000
0D0280: FC00007FFF7FFFFFFFF7FFF801FE0006 00000000000000000007000000000000
0D0290: 3FFFFFFFF9EFFF6FFC03FF001F107FFF 00000000000007000000000000000000
0D02A0: F7FBFFFFFFFE0FFF80FF8F9FFFFFFFFF 00000007000000000000000000000000
0D02B0: FF7FFFFFFFFFDF87DBFFFEFFFBFFFFFD 07000000000000000000000000070000
0D02C0: FFFFFFFF01DFFFFFFFFFFFFFFFEFDF7F 00000000000000000000070000000000
0D02D0: 7F006FFFFFFFFFFFF7FFFF7FFFFE002F 00000000000000070000000000000000
0D02E0: FFFFFFFFFFFFEFFFFFFDFE000FFFFF7F 00000000070000000000000000000000
0D02F0: FFDFBDFFFFFFFFFE001FFBFFFFE7FFFF 00070000000000000000000000000700
0D0300: FFF6FFFFFE001FFBFFFFFFFFFFFFFFFF 00000000000000000000000700000000
0D0310: FFFD003FFFFFFFFFFFFFFF7F7FEFFF00 00000000000000000700000000000000
0D0320: 77FFFFFEFFFFFFFFFFFDFFFF80DFDFFF 00000000000700000000000000000000
0D0330: F7FFFFF6FFFFFFFBFFFFFFFFEFBFEFDF 00000700000000000000000000000007
0D0340: FEFFFFFFFFDFFFFDFFFFFFF7FFFFFFFF 00000000000000000000000007000000
0D0350: FEFFFFFFFFFFEFBFFDFFF9FFEFFFFDFF 00000000000000000007000000000000
0D0360: FFFFDDFFFFFFFFFFDFFFFFFFBFFFFFFF 00000000000007000000000000000000
0D0370: FFBFFFFFFFDFFFFFFFFFFFFFFFEFFFFB 00000007000000000000000000000000
0D0380: FFFFFFFFFFFFFFFFF7FBFFFEFFFFFFFF 07000000000000000000000000070000
0D0390: F5FFFF7FFFFFFFFFFFFDFFFFFFFFFFFF 00000000000000000000070000000000
0D03A0: FBF7DFDFFFDFFF7FEFFFFFFFFFFFDFFF 00000000000000070000000000000000
0D03B0: FFFFFFDF7FFFEFFFDFFBFFFFFF7FFFFF 00000000070000000000000000000000
0D03C0: FFFFFFFFFF7F7FFFFFFFFFFB7FFFFFFF 00070000000000000000000000000700
0D03D0: FFFFFFFFFDBFFFFBDFFFFFFF7FFEFFFF 00000000000000000000000700000000
0D03E0: FFFFFFFFFFFFFFFBFFFFFFF6FFFFDFDF 00000000000000000700000000000000
0D03F0: FBEEBFFFFFFFFFFFFFFFFFFFFF7FDFDF 00000000000700000000000000000000
0D0400: BFDFFFFFFF7F7FBFFFFFFFFFFFFFFFFF 00000700000000000000000000000007

; ##### Picture 132 #####

; Picture Data
0D0410: FFFFFFFFFFFFFFFFFFFFFFFFFFFFFFFF 00000000000000000000000007000000
0D0420: FFBFFFFFFEDFFFB7FFFFFFFBFFFFFFFF 00000000000000000007320008007800
0D0430: FFFFB5FFED7EFFFFBFFFFFFFFFFFFFFF 000000000000074A0240004400007FFF
0D0440: FFFFFBFFF7FFFFFFFFFFFDFFF77FFDEF FFFFFFF7232B6B1C44CAB07C00000000
0D0450: FFF7FFFFFFFFFFBFEFFFFBFFFFBFFFFF 1712AA4AA4452AA87C00000000174AAA
0D0460: FFFFFFDBFFFFFFFFFFFFFFFFFDBFFFFF 4AA44525287C000000001732992A9C78
0D0470: FFFEFFFFBFFFFFFFFFFF6BF7FF7FFFDF C5287C0000000017000000040000007F
0D0480: FFF7FFFFFFFFFFFFDFDFFFFFFFFFFFFF FFFFFFFFF70000001800000000000000
0D0490: FFFFFBFFEF7FFFF7FFFFFFFFFFFEFFFF 000700000000000000000000000007FF
0D04A0: DFFFFDFFFFFFBFFFEFFFFFFFFFFFFFFF FFFFFFFFFFFFFFFFFFFFFFFF00000000
0D04B0: FFFFFFFDFFFF7EFBFFFDFFFFFFDFFFFF 00000000000000000700000000000000
0D04C0: FFFFFFFBFFFFFFBFFFFFFFFFFDFFFF7F 00000000000738CC6200000480000000
0D04D0: FFFFEFFFFFFFFFFFFBBFFFEFFFFFFFFF 0CE4B7452C6200000900000000091517
0D04E0: FFFFFFF7FDFFFFFEDFFFB7FFFFFF7FFF 408AA218E0CD800000000916174C4AA2
0D04F0: FFFEFFFFFFFFFFFFFFFFFFFBF7DFDFFF 252D2900000000091617452922252129
0D0500: FFEFFFFBFBFF7FFFFFDFFFFFFFFFFFFF 000000000915173CC92398E0C92AAAAA
0D0510: FFFFEFFFFBFFFFFF7FFFDFFFF7FFFFFF AA88E497000000002000000000000C00
0D0520: DF7FFFFFFFFFFFDFFFF7FFFFFFFFFFFD 3700000000C000000000000000070000
0D0530: BFFFFFFEFFFFFFFFFFF7EFFFFFFFFFFD 00000000000000000000070000000000
0D0540: FFBFFDEFFF7FFFFFFFDFDFFB7FFFFBFF 00000000000000070000000000000000
0D0550: FEE3FFFFFFFFFFFF7FF5FFFBFFFE81FF 00000000070000000000000000000000
0D0560: FEBFBFFFFFFFFFFFFFFFFF1DFFFBFFBF 00070000000000000000000000000700
0D0570: FFFFFFFFF7FFFEBF2DAFFFFFFFFFFFBF 00000000000000000000000700000000
0D0580: 7FEFFFFFFE45FFFFFF7FFBFFFFFFBFFF 00000000000000000700000000000000
0D0590: FFFC01FFFFFFF7FFFFFFFEFFFDFFFC03 00000000000700000000000000000000
0D05A0: FEFFFFF7FFFFFFFFFFFFFFF803FDBFFF 00000700000000000000000000000007
0D05B0: FFFFFFFFFFFFFFFFF803BFFF7FFFFD7F 00000000000000000000000007000000
0D05C0: FFFFFFFFDFF007FFFEFFFFFFFFF7EFFF 00000000000000000007000000000000
0D05D0: FFFFF805BFFFFFFFFFFFFF75FFFFFFF8 00000000000007000000000000000000
0D05E0: 0FDBEFFFFBFFFEFBFFFDFFFFB01FFFDF 00000007000000000000000000000000
0D05F0: EFFFFFF7FFFFFF6BF7603FFFEFFFFFFF 07000000000000000000000000070000
0D0600: BFFFFFFBFFDEC87FFFF7FFFFBDFFFFFF 00000000000000000000070000000000
0D0610: E0EF7D9DFFFFFFFFFFFFFFFFFFDCFF83 00000000000000070000000000000000
0D0620: 3FFFFEFEFFFFFFFFFFFFBEFE067FFFFF 00000000070000000000000000000000
0D0630: FBFFFFBFFFFFFF63FCF0DFFFFFFFEFFF 00070000000000000000000000000700
0D0640: FFFFFFFF01F9F1FFFBFFFFFFBFDFF6FF 00000000000000000000000700000000
0D0650: FE01F3FBFFFEFFFFFFFFFFFDAFDE00EE 00000000000000000700000000000000
0D0660: 3BFFFFFFFFFFFFFFFFFF7C00781BFFFF 00000000000700000000000000000000
0D0670: FFFFFFFFEFFFBDFC03B01F8FFFFFF7FF 00000700000000000000000000000007
0D0680: FFFF7FFFF407800727EFFFF7FFFFFFFF 00000000000000000000000007000000
0D0690: FFFC070003F7FFFFFFF7FFF7FFFFFE0F 00000000000000000007000000000000
0D06A0: 000137FFF9EFFF6FFEFFFFFFFE000007 00000000000007000000000000000000
0D06B0: F7FBFFFFFFFFFFFFFFFE000807FFFFFF 00000007000000000000000000000000
0D06C0: FF7FFFFFFFDFDE00180FFEFFFBFFFFFD 07000000000000000000000000070000
0D06D0: FFFFFFFE00301FFFFFFFFFFFFFEFDF7F 00000000000000000000070000000000
0D06E0: 7E00703FFFFFFFFFF7FFFF7FFFFE00F0 00000000000000070000000000000000
0D06F0: 3FFFFFFFFFFFEFFFFFFDFC01F07FFF7F 00000000070000000000000000000000
0D0700: FFDFBDFFFFFFFFF803F0FBFFFFE7FFFF 00070000000000000000000000000700
0D0710: FFF6FFFFF107F9FBFFFFFFFFFFFFFFFF 00000000000000000000000700000000
0D0720: FFE1FFFFFFFFFFFFFFFFFF7F7FF007FB 00000000000000000700000000000000
0D0730: F7FFFFFEFFFFFFFFFFFDE7DFFFDFDFFF 00000000000700000000000000000000
0D0740: F7FFFFF6FFFFFFDC1FEF7FFFEFBFEFDF 00000700000000000000000000000007
0D0750: FEFFFFFFF01FFFFDFFFFFFF7FFFFFFFF 00000000000000000000000007000000
0D0760: FEB01FFFFFFFEFBFFDFFF9FFEFFFE03F 00000000000000000007000000000000
0D0770: FFFFDDFFFFFFFFFFDFFFFFE03FFFFFFF 00000000000007000000000000000000
0D0780: FFBFFFFFFFDFFFFFE07FFFFFFFEFFFFB 00000007000000000000000000000000
0D0790: FFFFFFFFFFE0FFFFF7FBFFFEFFFFFFFF 07000000000000000000000000070000
0D07A0: F5FFE1FFFFFFFFFFFFFDFFFFFFFFFFF3 00000000000000000000070000000000
0D07B0: FBF7DFDFFFDFFF7FEFFFFFFFFFFFDFFF 00000000000000070000000000000000
0D07C0: FFFFFFDF7FFFEFFFDFFBFFFFFF7FFFFF 00000000070000000000000000000000
0D07D0: FFFFFFFFFF7F7FFFFFFFFFFB7FFFFFFF 00070000000000000000000000000700
0D07E0: FFFFFFFFFDBFFFFBDFFFFFFF7FFEFFFF 00000000000000000000000700000000
0D07F0: FFFFFFFFFFFFFFFBFFFFFFF6FFFFDFDF 00000000000000000700000000000000
0D0800: FBEEBFFFFFFFFFFFFFFFFFFFFF7FDFDF 00000000000700000000000000000000
0D0810: BFDFFFFFFF7F7FBFFFFFFFFFFFFFFFFF 00000700000000000000000000000007

; ##### Picture 133 #####

; Picture Data
0D0820: FFFFFDB6FEAFFFFFFFFFFFFFFFFFFFDE 00000000000000000000000007000000
0D0830: AB1B67FFFEDFFFB7FFFFFFFBF56DBF99 00000000000000000007320008007800
0D0840: FFFFB5FFED7EFFFFB6FFA4D9CF7FFFFF 000000000000074A0240004400007FFF
0D0850: FFFFFBFFF7FFED7F5EE3FDFFF77FFDEF FFFFFFF7232B6B1C44CAB07F00000000
0D0860: FFF7FFBBD2AF9BBFEFFFFBFFFFBFFFFF 1712AA4AA4452AA87F00000000174AAA
0D0870: FEED75D4FFFFFFFFFFFFFFFFFDBF6B9F 4AA44525287F000000001732992A9C78
0D0880: EBFEFFFFBFFFFFFFFFFF7BD4EA38FFDF C5287F0000000017000000040000007F
0D0890: FFF7FFFFFFFFFFFEFB55E7DFFFFFFFFF FFFFFFFFF70000001800000000000000
0D08A0: FFFFFBFFEF7F57F47FFFFFFFFFFEFFFF 000700000000000000000000000007FF
0D08B0: DFFFB5787B7FBFFFEFFFFFFFFFFFFFFF FFFFFFFFFFFFFFFFFFFFFFFF00000000
0D08C0: 9F5AB7FDFFFF7EFBFFFDFFFFFD55ED5F 00000000000000000700000000000000
0D08D0: FFFFFFFBFFFFFFBFFFD7F6B77DFFFF7F 00000000000738CC6200000480000000
0D08E0: FFFFEFFFFFFFFF5BB89FFFEFFFFFFFFF 0CE4B7452C6200000900000000091517
0D08F0: FFFFFFE7E9FEDFFEDFFFB7FFFFFF7FFF 408AA218E0CD800000000916174C4AA2
0D0900: FEBE2F2FFFFFFFFFFFFFFFFBF7DFD5DA 252D2900000000091617452922252129
0D0910: DBEFFFFBFBFF7FFFFFDFEFFD6F57FFFF 000000000915173CC92398E0C92AAAAA
0D0920: FFFFEFFFFBFFFFFF76B59FFFF7FFFFFF AA88E497000000002000000000000C00
0D0930: DF7FFFFFFDDFDF6FFFF7FFFFFFFFFFFD 3700000000C000000000000000070000
0D0940: BFFF756AD5FFFFFFFFF7EFFFFFFFFFFD 00000000000000000000070000000000
0D0950: AF6BFDEFFF7FFFFFFFDFDFFB7FF7AFFF 00000000000000077900000000400196
0D0960: FEFFFFFFFFFFFFFF7FD4DB73FFFEFFFF 30000000074400000002000256300000
0D0970: FEBFBFFFFFFFFFB5ED3FFFFFFFFBFFBF 0007453333311B58E115500000000745
0D0980: FFFFFFFFF6B3BEBFFFAFFFFFFFFFFFBF 444AAAA2552095500000000745144AAA
0D0990: 6FEBDBDFF1FFF7FFFF7FFBFFFFFF3D7C 225522549000000007796332A99954E1
0D09A0: EFF1FFFF7FFFF7FFFFFFFFFFB5DFE17F 9492AA80000700000000000020000000
0D09B0: 4AFFFFF7FFFFFFFFF6DA67C1FF7DBFFF 000007000000000000C0000000000007
0D09C0: FFFFFFFFFFBF5EB7C1FF3FFF7FFFFD7F 00000000000000000000000007000000
0D09D0: FFFFFDEB5BC1F6FFFEFFFFFFFFF7EFFF 00000000000000000007000000000000
0D09E0: BEA5C1FDBFFFFFFFFFFFFF75FFCAAAC1 00000000000007000000000000000000
0D09F0: F5DBEFFFFBFFFEFBFFFAE6AB81D7FFDF 00000007000000000000000000000000
0D0A00: EFFFFFF7FFFFEFF295427FFFEFFFFFFF 07000000000000000000000000070000
0D0A10: BFFFFFFF5F63C395FFF7FFFFBDFFFFFF 00000000000000000000070000000000
0D0A20: FFF294C2DFFFFFFFFFFFFFFFFFDFBDC6 00000000000000070000000000000000
0D0A30: D6BFFEFEFFFFFFFFFFFFFBF5121ABFFF 00000000070000000000000000000000
0D0A40: FBFFFFBFFFFFFFFF5A42816F5FFFEFFF 00070000000000000000000000000700
0D0A50: FFFFFFFFB5AF511DBBFFFFFFBFDFF6FF 00000000000000000000000700000000
0D0A60: FFFEA109049FFFFFFFFFFFFDAFDFFD5D 00000000000000000700000000000000
0D0A70: C0152FFFFFFFFFFFFFFF7F7FE220444D 00000000000700000000000000000000
0D0A80: 7FFFFFFFEFFFBDFFE72913EF2FBFF7FF 00000700000000000000000000000007
0D0A90: FFFF7FFFF7FBA907FE9FFFF7FFFFFFFF 00000000000000000000000007000000
0D0AA0: FFFFFAD48EF8B7FFFFF7FFF7FFFDFAD5 00000000000000000007000000000000
0D0AB0: 23CCF96BDBEFFF6FFEFFFFBF56979801 00000000000007000000000000000000
0D0AC0: 36EBFFFFFFFFFFF2D56A97D80092B5FF 00000007000000000000000000000000
0D0AD0: FF7FFFFFFFFFA94FF0005DEFFBFFFFFD 07000000000000000000000000070000
0D0AE0: FFFFDDF74C000166BFFFFFFFFFEFDF6F 00000000000000000000070000000000
0D0AF0: BDBC2001BFDFFFFFF7FFFF7FFFEED000 00000000000000070000000000000000
0D0B00: 61F7F7FFFFFFEFFFFFFEFF500022BFFF 00000000070000000000000000000000
0D0B10: FFDFBDFFFFFFFFF5E04016DEFFE7FFFF 00070000000000000000000000000700
0D0B20: FFF6FFFFBE90402177FFFFFFFFFFFFFF 00000000000000000000000700000000
0D0B30: FFEEC00075BFFFFFFFFFFF7F7FEFFF40 00000000000000000700000000000000
0D0B40: 203A57FEFFFFFFFFFFFDFFF5A8B0077D 00000000000700000000000000000000
0D0B50: F7FFFFF6FFFFFFFBFE563803A7BFEFDF 00000700000000000000000000000007
0D0B60: FEFFFFFFFFDF7BD808FB7FF7FFFFFFFF 00000000000000000000000007000000
0D0B70: FEFFF4AEF445A5BFFDFFF9FFEFFFFDFA 00000000000000000007000000000000
0D0B80: FFFFA8DFFFFFFFFFDFFFFFFFBEFFCFE4 00000000000007000000000000000000
0D0B90: 7FBFFFFFFFDFFFFFFFFFFF9FF3AFFFFB 00000007000000000000000000000000
0D0BA0: FFFFFFFFFFFFFFFF87EDD7FEFFFFFFFF 07000000000000000000000000070000
0D0BB0: F5FFFF7FFF2F7E6BFFFDFFFFFFFFFFFF 00000000000000000000070000000000
0D0BC0: FBF70FF3FBDFFF7FEFFFFFFFFFFFDF0F 00000000000000070000000000000000
0D0BD0: FD7BFFDF7FFFEFFFDFFBFFFE0FBFBDFF 00000000070000000000000000000000
0D0BE0: FFFFFFFFFF7F7FFFFE0FF66A7FFFFFFF 00070000000000000000000000000700
0D0BF0: FFFFFFFFFDBE1FFBDF7FFFFF7FFEFFFF 00000000000000000000000700000000
0D0C00: FFFFFE1FFEAF5FFBFFFFFFF6FFFFDFDE 00000000000000000700000000000000
0D0C10: 1BEE5BAFFFFFFFFFFFFFFFFFFF1FDFAD 00000000000700000000000000000000
0D0C20: 7ADFFFFFFF7F7FBFFFFFBFFFAF9FFFFF 00000700000000000000000000000007

; ##### Picture 134 #####

; Picture Data
0D0C30: FFFFFDB66D57FFABFD7EFFFFFF77FEAE 00000000000000000000000007000000
0D0C40: 5B9EA97FDCDC3FB6FAB7FEEBFD3C5BCD 00000000000000000007320008007800
0D0C50: FFFFB1FFEF7F7FEFBDE92F2A62BFFAFF 000000000000074A0240004400007FFF
0D0C60: FFFFFB7FF5C9BFA51E2BFDD5F7FFFDEB FFFFFFF7232B6B1C44CAB07FF8000000
0D0C70: FFD3FFF5CDAB89EFEFFF79FDFBBFFFFD 1712AA4AA4452AA87FF8000000174AAA
0D0C80: DF2ED7B15FFCFFFFF77FF76F7CBBF726 4AA44525287FF80000001732992A9C78
0D0C90: D5FAFBFF3FF9FFF7FE3F7CB5B76D7ED7 C5287FF800000017000000040000007F
0D0CA0: FFF7FFFFFFBDDDCFDEED5475FFFFFFFE FFFFFFFFF70000001800000000000000
0D0CB0: FFFFFBFFE675E5D5BFFAFFFFFFFE8FFE 000700000000000000000000000007FF
0D0CC0: DDFE98F9E4BFBFFFEFEFFFFFFF9FEFFD FFFFFFFFFFFFFFFFFFFFFFFF00000000
0D0CD0: BC9ED7FEFEFF6EFBFFFDFEF5CD55D216 00000000000000000700000000000000
0D0CE0: 7DFFFFCBFFD76FBBE7F7EEEDBBFF7F7F 00000000000738CC6200000480000000
0D0CF0: FFF9FFFFFFF86A877458FFCFFFFFFB77 0CE4B7452C6200000900000000091517
0D0D00: FBFFFEF7DDBE1FDEFFFFB7E7CFFF7FF4 408AA218E0CD800000000916174C4AA2
0D0D10: DEB275DB3FFFFFFFF55FF7FBF5D74DB5 252D2900000000091617452922252129
0D0D20: 2967FFFBFBDA3FFFFFCFCFF4BBAB6FFF 000000000915173CC92398E0C92AAAAA
0D0D30: FFFFEDEFFBFFFE757CDD2E7FF7FFFEBD AA88E497000000002000000000000C00
0D0D40: DF7FFFFFF6DAE897F9F7FDFE5E7FFFFD 3700000000C000000000000000070000
0D0D50: BFFDC6BEC9BEFFDFFFEFE7FFFFFF755A 00000000000000000000070000000000
0D0D60: D94B2AEFF7F7F977DFDFDFF61B36BCCB 00000000000000077900000000400196
0D0D70: 7EF7FFEFFFFFFDFF7D54CC87EFFAEDFF 30000CE4B74400000002000256300009
0D0D80: EABF3DFFFFFFAF7FE36DFE7FFD337FBF 1517453333311B58E115500009161745
0D0D90: FFFFFC7E5639EBFD7B5F3DFFF7FFFFBF 444AAAA2552095500009161745144AAA
0D0DA0: 76538AEAFB3B37AFDF7FFBFFFF66B7F9 225522549000091517796332A99954E1
0D0DB0: E74DF7B935FFF7FFFFFFF6EDB69C63FF 9492AA88E49700000000000020000000
0D0DC0: 6AFBDFF7FFFFFFF7B29A5A7D7DA2BEBF 0C0037000000000000C0000000000007
0D0DD0: FFFFFFFFF6FCFBEF85FFBFF6FFBF9D7F 00000000000000000000000007000000
0D0DE0: FFF572F41573C61AFFEF7BF7FFF7EBCD 00000000000000000007000000000000
0D0DF0: F2CAFD3DB9FDF7FF5CEFFF753ADA7A6E 00000000000007000000000000000000
0D0E00: 6E7F7F6FFBFFFEFBFF7AD19A4E65B6FC 00000007000000000000000000000000
0D0E10: 6FFFFFF7FFFFAD0C0ABEA553ACFFFFFF 07000000000000000000000000070000
0D0E20: BFFFFFF9DB358CD77BF7FFFFBDF9FFFF 00000000000000000000070000000000
0D0E30: F09ADC4DF44FFFFF7FFFFFF7FFDE2A51 00000000000000070000000000000000
0D0E40: AC3E12FEDFFBFFFFB7FFFFE89D5C826F 00000000070000000000000000000000
0D0E50: FBFFFFBFFFFFFFFFB99061F77FFFEFEE 00070000000000000000000000000700
0D0E60: 65FFFFFFBFAF942429FFFFFFBFDFF6FF 00000000000000000000000700000000
0D0E70: FFFFB8AF22FEBFEF7FFFFFFDAFDFFFF6 00000000000000000700000000000000
0D0E80: 420B7FFBFDEFFFFFFFFF7F7F22E103EF 00000000000700000000000000000000
0D0E90: DFDDF7F96FFFBDFFFB6ED423BCFFF7FF 00000700000000000000000000000007
0D0EA0: FE7AFFFFF7FFE9A013EB7FEE7F677FCD 00000000000000000000000007000000
0D0EB0: F57FFFF2D48762FBEFF7DEFF5E7F3F7F 00000000000000000007000000000000
0D0EC0: FF04016BF8EBDFB5FBDFF7FEFDBE4090 00000000000007000000000000000000
0D0ED0: B7FFF97F6FFB3FEFFD5FFEA4007FFFFF 00000007000000000000000000000000
0D0EE0: FF7FEFF4FFDF6BDF32806FFFFB7FB0FD 07000000000000000000000000070000
0D0EF0: 9BFFFF79FC704477FFFFBFF7AF2FDD7E 00000000000000000000070000000000
0D0F00: 7DDB600F3FFFFFCF63EFFF7FFBFD79E4 00000000000000070000000000000000
0D0F10: 006776FFFF7FBFFFFFFDFE76E103B77B 00000000070000000000000000000000
0D0F20: FFDF7B7FFFFFFFFF6A81993FCDE7FFAD 00070000000000000000000000000700
0D0F30: FFF6FFFFFFF6A9596BF7FFFFBFFFEFFF 00000000000000000000000700000000
0D0F40: FB7E97AB66B5F5FFFFFFFEFF7FEBFF4F 00000000000000000700000000000000
0D0F50: C5FDE3B4FFFFFFFFFFFDBFF7EF0D56F5 00000000000700000000000000000000
0D0F60: 727FFFF7F6FFFEF7F7EF3BDFE39FBF9F 00000700000000000000000000000007
0D0F70: EDFFFFFFFFF7DE38F1BAFE777FFFFFFF 00000000000000000000000007000000
0D0F80: 7EBFA7FA49D8E8BFDDDFD3FFEFD77D7E 00000000000000000007000000000000
0D0F90: FF1DCF757FFDFFFFDFFA7FDE7EAE8BED 00000000000007000000000000000000
0D0FA0: B79FEBF7E7DFFE4FFF7D6F2DE4CF6FC3 00000007000000000000000000000000
0D0FB0: FFFFFFBF75FFEB7F96827CBEFFBF1FFF 07000000000000000000000000070000
0D0FC0: FEFCFF7EDFDDE35F65F9FFFFFFF77FFD 00000000000000000000070000000000
0D0FD0: 7DF7E5D1355EFB1FEFFFF5FBFBF39FDD 00000000000000070000000000000000
0D0FE0: FBF7B31D5FFFF66BCFE3EF7F0535FB7D 00000000070000000000000000000000
0D0FF0: FBFFFEFFAEEF1B6F7FD7EDD93BFCEFFE 00070000000000000000000000000700
0D1000: FF7E7FBFCCBE4FFA53F9FF777EFEFFFF 00000000000000000000000700000000
0D1010: BDFAFFFF9D5B7DEBF77FB0FEFCFEF75F 00000000000000000700000000000000
0D1020: 59E23BB6777FFBCFFFFAFBECFD7D3B0D 00000000000700000000000000000000
0D1030: BFDEBFFFAFBF7BDFB7FFF51FBFABFAFF 00000700000000000000000000000007

; ##### Picture 135 #####

; Picture Data
0D1040: 797F5D552A97BF6DB6F42F5EBF7EAEFA 00000000000000000000000007000000
0D1050: 348D57ABC53CE57F7FFF7B93CDC515A5 00000000000000000007320008007800
0D1060: 5AADF5DCBFAFF7FBBEDB759A8177B205 000000000000074A0240004400007FFF
0D1070: 6B27DFB7FFF7ED14CAA9FA59359BFDEB FFFFFFF7232B6B1C44CAB07FFFC00000
0D1080: AFB23EFF263D56FF4EDCAEB7A7BF5FFE 1712AA4AA4452AA87FFFC00000174AAA
0D1090: B5D9E1A81FF0231BE8FFFFEFEDBCE687 4AA44525287FFFC000001732992A9C78
0D10A0: C7AA6CAEF434DFD77AFEE9B170017F8E C5287FFFC0000017000000040000007F
0D10B0: 8FFFDB1CF7FF7FBBCD8D5A8BAD4913CE FFFFFFFFF70000001800000000000000
0D10C0: 65376BA8EA6B28F4BE52137277BDFFBF 000700000000000000000000000007FF
0D10D0: 4FDCC5545294F7F7520FB6D7DBA4F73D FFFFFFFFFFFFFFFFFFFFFFFF00000000
0D10E0: 75C6A1B911DCBF47E7DEFF6EF78B081D 00000000000000000700000000000000
0D10F0: 2A23BE967A2F5FBFFD78C47335C5611D 00000000000738CC6200000480000000
0D1100: 6DA88F7E9F967ED5415DE199AF67CBF7 0CE4B7452C6200000900000000091517
0D1110: EDFCF1B7523000EEA6FD67FFA74BB5FF 408AA218E0CD800000000916174C4AA2
0D1120: 6BE8BF4E15236FB94D9F7BF256925D62 252D2900000000091617452922252129
0D1130: 217151D3DF7D6F7FFFD75EB6252BFA4E 000000000915173CC92398E0C92AAAAA
0D1140: 3CB9578FFB7B77D573949DD7A59960DF AA88E497000000002000000000000C00
0D1150: 8F6D3CD1F29AA90D7D0FE454C6EFFFF7 3700000000C000000000000000070000
0D1160: B7D76D11B13D8907AF86AFBBDD66F355 00000000000000000000070000000000
0D1170: E445FAA35315F7EFFEFEDBA56027E3D1 00000000000000077900000000400196
0D1180: 4A9FE6BC277FEBFFD9F7CD5CBB619C67 30000CE4B74400000002000256300009
0D1190: 46379DF5E1DBA6954350067FA17197BF 1517453333311B58E115500009161745
0D11A0: 37FE5F7AD0E13F84C2164ADF5FFFFCF7 444AAAA2552095500009161745144AAA
0D11B0: 71295D21027A71B76F8DFB7FB7DAAB01 225522549000091517796332A99954E1
0D11C0: 984683CE0CB7FDEBCFDDD6D468B0A78D 9492AA88E49700000000000020000000
0D11D0: F2D2DFF5F5CAF672534416072E0514C7 0C0037000000000000C0000000000007
0D11E0: DBEEF287BA26495081C0A4766FFF4D7F 00000000000000000000000007000000
0D11F0: FAED40240010227B459777F607F081FA 000000000000000000074AA800000000
0D1200: B18B0009A5754FB0E16DDD52AB816900 0000000000000750A000000000000000
0D1210: 6D100CCFD97FD6EB98FA24556872790A 0000000762AB1C733191991800000000
0D1220: AF4F77F2DB23260008021E42C7AFE76D 0762AAA44A4A2A22A0000000000752AA
0D1230: EFAAEC12B29420C469121FBE2CED0AB8 A44A4A208A0800000000074AAA9C7231
0D1240: 4E54011402A84377F4D9D57ADDD8A04A 9B31B2AAAA8000070000044000000000
0D1250: 0044C4BE97DFEF64F8D7A2A492019181 00000000070000184000000000000000
0D1260: 1B27FD2A73360C64480010501094673B 00070000000000000000000000000700
0D1270: 6BEEF22CB3D9308988CE9B679FD70EEA 00000000000000000000000700000000
0D1280: EAF4610002C804EDDF6B3463AF0F8184 00000000000000000700000000000000
0D1290: 004048024AB7EF67CBEF659A00520200 00000000000700000000000000000000
0D12A0: 77361F27BFED99E3292000002000E027 00000700000000000000000000000007
0D12B0: 6A7D7E26AD4501800202166677FF4EF4 00000000000000000000000007000000
0D12C0: 2A72D0D4280108432D97E76FFFFDFD46 00000000000000000007000000000000
0D12D0: 5280208480EBB7FA03E7F2ABDA80A000 00000000000007000000000000000000
0D12E0: 0480CE9797EB6F168DDA400000000841 00000007000000000000000000000000
0D12F0: BF7ECADADB33408C100000A5A2076DE9 07000000000000000000000000070000
0D1300: 29B32806800000049487378387748BDE 00000000000000000000070000000000
0D1310: 50B004020080C0979494AA8E65040100 00000000000000070000000000000000
0D1320: 0080090F4F3E8A116208500040000080 00000000070000000000000000000000
0D1330: 90579CEFFDD5A1001000000424A75FD2 00070000000000000000000000000700
0D1340: AD12628A9090000000961927FBF56AA6 00000000000000000000000700000000
0D1350: 684008120000914567F65B5DFE8A5A02 00000000000000000700000000000000
0D1360: 0000044650B733DED3AB0041A0000042 00000000000700000000000000000000
0D1370: 28F92FD6B6FCEF1E70088008012949D7 00000700000000000000000000000007
0D1380: 5CF33DB753094400004095653F73D736 00000000000000000000000007000000
0D1390: E9C88A482002828425479FBFFAFA16B1 00000000000000000007000000000000
0D13A0: 00008A212903FFF5D1395AEC08521009 00000000000007000000000000000000
0D13B0: 1495397F792C9F6643B1490001560643 00000007000000000000000000000000
0D13C0: 0FC2ED5FC56A9710080A4460C75F7FDE 07000000000000000000000000070000
0D13D0: 8A72BB62020084020858E76B37D79CE6 00000000000000000000070000000000
0D13E0: 872148037B056117ED6E9F5F6BA42024 00000000000000070000000000000000
0D13F0: 016C510767B951E8839B76020200034C 00000000070000000000000000000000
0D1400: 10BFF5A27E4CC0112118A101215D3F24 00070000000000000000000000000700
0D1410: C37CFF37B888020084ACE9877B7EB3F9 00000000000000000000000700000000
0D1420: F19A548010D245256FDF9DFFA9B36000 00000000000000000700000000000000
0D1430: C486092A15DF3F7E7F17F8248A2A8905 00000000000700000000000000000000
0D1440: 5289F7F2BF9EC1AA9C03B046458CF40F 00000700000000000000000000000007

; ##### Picture 136 #####

; Picture Data
0D1450: EF6EFFCF06840003BEB27A2D5FFDBC7D 00000000000000000000000007000000
0D1460: 46F37004E315A99C800F979F7FD7597F 00000000000000000007320008007800
0D1470: C1082E6749F3E7FFF3BED2A080E4A29D 000000000000074A0240004400007FFF
0D1480: 66FCA397BDEF23FDBF4E10022FB94D36 FFFFFFF7232B6B1C44CAB07FFFFE0000
0D1490: D76656BA7DE2A55221139275487FFDF7 1712AA4AA4452AA87FFFFE0000174AAA
0D14A0: 5ED6456BE94538B97D8D275377D776D4 4AA44525287FFFFE00001732992A9C78
0D14B0: 9D55411924DF8FF73C51F2BBB9BD3C0C C5287FFFFE000017000000040000007F
0D14C0: 404484C087F2B7DD5D39332102272C86 FFFFFFFFF70000001800000000000000
0D14D0: ABDFCD667357C665C8A15607F78417FE 000700000000000000000000000007FF
0D14E0: D3E572A5EBD02097E63429EFFB97DAF7 FFFFFFFFFFFFFFFFFFFFFFFF00000000
0D14F0: DF4DAA409565415147F5E19BCC9B61D0 00000000000000000700000000000000
0D1500: 027F21548A1F37FE4F6AD8A612408014 00000000000738CC6200000480000000
0D1510: 4A2EB7FEFCF6F1017D20083A2187C257 0CE4B7452C6200000900000000091517
0D1520: BDF697DAEB80080283CE08223FBBCFCF 408AA218E0CD800000000916174C4AA2
0D1530: D75C4B824509B184DBBFF5DAF3729340 252D2900000000091617452922252129
0D1540: 30020C015401376ED2831A22884000C0 000000000915173CC92398E0C92AAAAA
0D1550: AC52A377CF5FEA650064800024721511 AA88E497000000002000000000000C00
0D1560: CFF2377890FA91890000804083FFE00D 3700000000C000000000000000070000
0D1570: DD132B83240025100D4D6F72D7EB987A 00000000000000000000070000000000
0D1580: 225020326900394777FACB2326000A00 00000000000000077900000000400196
0D1590: 020147ADFF6DAEA8EC00301004844800 30000CE4B74400000002000256300009
0D15A0: 1BBF5BAF0AE80E45002010200261FF59 1517453333311B58E115500009161745
0D15B0: D17E5D8C9080000080A115C7CF4670D7 444AAAA2552095500009161745144AAA
0D15C0: A0A41000800813272F7A713488644801 225522549000091517796332A99954E1
0D15D0: 0010801443FF6BEEF22C12D0A0000205 9492AA88E49700000000000020000000
0D15E0: 1B06A7E74EE9C2E400001080004DDF2F 0C0037000000000000C0000000000007
0D15F0: 3463A7470140000020490AB59F65C3DE 00000000000000000000000007000000
0D1600: 690A021000000020393FBFEC91673500 000000000000000000074AA800000000
0D1610: 000002004207A7F47E22A94101000000 000000000CE4B750A000000000000000
0D1620: 046475C74EEA2A10C000002000022512 0009151762AB1C733191991800000916
0D1630: 1F6F9FFB7C044040000000A3A4D70365 1762AAA44A4A2A22A0000009161752AA
0D1640: D0834300080001408A8537A36B120291 A44A4A208A0800000915174AAA9C7231
0D1650: 000000000040A95F4ADA9B3280040000 9B31B2AAAA88E4970000044000000000
0D1660: 0015220207E901202800800000400003 00000C00370000184000000000000000
0D1670: 361F843488D412000000000080012784 00070000000000000000000000000700
0D1680: C8A611000000000000014C2FC9111008 00000000000000000000000700000000
0D1690: 0040000002202422274AF44580000000 00000000000000000700000000000000
0D16A0: 00100110488FAD20D002800000000000 00000000000700000000000000000000
0D16B0: 05264FB52602A040080000001000A28F 00000700000000000000000000000007
0D16C0: 4941F410120000000002100237DA4A21 00000000000000000000000007000000
0D16D0: 00000000000000A02A0FBA3CED0A4000 00000000000000000007000000000000
0D16E0: 0000020000508F8B31A5010104000000 00000000000007000000000000000000
0D16F0: 100104775614E0C85000000000002105 00000007000000000000000000000000
0D1700: 273E6A52060100000000050379178539 07000000000000000000000000070000
0D1710: 4AF8881080000080297EA78C9F5282A1 00000000000000000000070000000000
0D1720: 0000000042430F9FCC5B456014081000 00000000000000070000000000000000
0D1730: 0000024A67C78B721B62000001101050 00000000070000000000000000000000
0D1740: 850783D78CF48002000004890113177C 00070000000000000000000000000700
0D1750: 83F74B2401000100412345FF30A88199 00000000000000000000000700000000
0D1760: 14801240040808BFD7A2D64DC0000000 00000000000000000700000000000000
0D1770: 0000415475DF83FC7B3B31000000082C 00000000000700000000000000000000
0D1780: 89800FFCF3B19108480000840024686F 00000700000000000000000000000007
0D1790: 0D9B9AB36000A0004208155A973A6517 00000000000000000000000007000000
0D17A0: B40002089221F50D943FBE86C2A80C00 00000000000000000007000000000000
0D17B0: 3400098CF20F77E6CC960004A8000048 00000000000007000000000000000000
0D17C0: 0728E9B7B9FEF965400200081409AC23 00000007000000000000000000000000
0D17D0: D72CB18704A00800400A40D3DAAF9BE5 07000000000000000000000000070000
0D17E0: 8C3A064A080120FABC2EB77FF3EA00A0 00000000000000000000070000000000
0D17F0: 154AA8288566828FE373A4A1024A6008 00000000000000070000000000000000
0D1800: 11A1692CEFFC6E6CCC310508202E1692 00000000070000000000000000000000
0D1810: A3E74EE94C010282240085A86D1DAFA3 00070000000000000000000000000700
0D1820: EAE54C10C5848C6F875BB9C7BAFD1852 00000000000000000000000700000000
0D1830: 02CE2420A1E9A683CFFC17E6A2298320 00000000000000000700000000000000
0D1840: AC92007D5EFFD47368A4A55120230960 00000000000700000000000000000000
0D1850: 867F57B50CD29159167360D6B4BF9347 00000700000000000000000000000007

; ##### Picture 137 #####

; Picture Data
0D1860: 3F914804220002000140440487CC8252 00000000000000000000000007000000
0D1870: E914A2C01004300010878014A340060C 00000000000000000007320008007800
0D1880: 0000200D2A4A2F511A0048A0A0348000 000000000000074A0240004400007FFF
0D1890: 00008107A01C89594822080424010128 FFFFFFF7232B6B1C44CAB07FFFFFFF00
0D18A0: 073BC9A492808000000124148117AC05 1712AA4AA4452AA87FFFFFFF00174AAA
0D18B0: 170018000108800242200724C48985D0 4AA44525287FFFFFFF001732992A9C78
0D18C0: 56202000880204E72D2862B008001100 C5287FFFFFFF0017000000040000007F
0D18D0: 85482620074052C82028D00000098210 FFFFFFFFF70000001800000000000000
0D18E0: 40B7C081009F50804010002081000779 000700000000000000000000000007FF
0D18F0: 399685000A28080004080247948D4050 FFFFFFFFFFFFFFFFFFFFFFFF00000000
0D1900: B4221100000035A02F091018A0820340 00000000000000000700000000000000
0D1910: 0090010101076421B5000400000000C8 00000000000738CC6200000480000000
0D1920: 002057F34800D4809052081004041007 0CE4B7452C6200000900000000091517
0D1930: 8BB081440010804000000200272A64E0 408AA218E0CD800000000916174C4AA2
0D1940: 18620000000301105407385824012090 252D2900000000091617452922252129
0D1950: 120000805002878C8A11801008800000 000000000915173CC92398E0C92AAAAA
0D1960: 0402012F66A614244004000000002120 AA88E497000000002000000000000C00
0D1970: 070A11001608800000205200000F4041 3700000000C000000000000000070000
0D1980: 2240C040A00202004002E76C20300080 00000000000000000000070000000000
0D1990: 100400000041000F1194204008800000 00000000000000077900000000400196
0D19A0: 00221420175287880000000000000000 30000CE4B74400000002000256300009
0D19B0: 8057CC01560826200240000000000F38 1517453333311B58E115500009161745
0D19C0: 0001000000000000000041470CA4E884 444AAAA2552095500009161745144AAA
0D19D0: 08801000000A000C1701820208010000 225522549000091517796332A99954E1
0D19E0: 0000400020479A602022000800000100 9492AA88E49700000000000020000000
0D19F0: 00022F02914010010100100000400007 0C0037000000000000C0000000000007
0D1A00: 12100704400020000000020007501008 00000000000000000000000007000000
0D1A10: 01200000000000004107021840001010 000000000000000000074AA800000000
0D1A20: 000000000010EF82681C000814000040 000000000CE4B750A000000000000000
0D1A30: 00420027B00222308100000400400032 0009151762AB1C733191991800000916
0D1A40: 074C0080800000000000000084074150 1762AAA44A4A2A22A0000009161752AA
0D1A50: 2118000000000010000247A0A2000048 A44A4A208A0800000915174AAA9C7231
0D1A60: 00000000000001A70909082200000000 9B31B2AAAA88E4970000044000000000
0D1A70: 00001008274020080400000000000081 00000C00370000184000000000000000
0D1A80: 408710A4A00000000000000000003780 00070000000000000000000000000700
0D1A90: 4000000000000000000001075042C480 00000000000000000000000748000440
0D1AA0: 04000000000020200782100000800100 40000000000000000750000440500000
0D1AB0: 00000000008700000808000000000000 00000000000761362466580000000000
0D1AC0: 000807E0040404000000000000000007 00000762A55451500000000000000007
0D1AD0: 0102000000000000002000040F202000 5225445550000000000000000749A534
0D1AE0: 00800000000000010107100111000400 534AAAAAAAAAAA800007000000000000
0D1AF0: 00000000000007092000000000000000 00000000000007000000000000000000
0D1B00: 00400087480000880000000000000010 00000007000000000000000000000000
0D1B10: 27005008000000000000000400870200 07000000000000000000000000070000
0D1B20: A000000000000000200907AA0E124108 00000000000000000000070000000000
0D1B30: 00000000000200070080000000410000 00000000000000070000000000000000
0D1B40: 00200040178102280000000000000000 00000000070000000000000000000000
0D1B50: 00470808040080000000000000100721 00070000000000000000000000000700
0D1B60: 040200000000000000000B2700204080 00000000000000000000000700000000
0D1B70: 00000000000000808712061108240000 00000000000000000700000000000000
0D1B80: 00000000000FA1A04080000000000000 00000000000700000000000000000000
0D1B90: 10004740912004008000000800000407 00000700000000000000000000000007
0D1BA0: 02008142880080000090000027082800 00000000000000000000000007000000
0D1BB0: 02000001020000801157008483500000 00000000000000000007000000000000
0D1BC0: 0000000415040720D310080020000000 00000000000007000000000000000000
0D1BD0: 00000007112494244000000000020100 00000007000000000000000000000000
0D1BE0: 0F810260A40000000000800456270010 07000000000000000000000000070000
0D1BF0: 00800100000008200041072680800000 00000000000000000000070000000000
0D1C00: 00400000210020977832258010000000 00000000000000070000000000000000
0D1C10: 000048900F0A02340880000202000102 00000000070000000000000000000000
0D1C20: 4AE74108400000080000080C28900724 00070000000000000000000000000700
0D1C30: 41610202000000020284C92F13AC0880 00000000000000000000000700000000
0D1C40: 20040000004856200728042108001080 00000000000000000700000000000000
0D1C50: 0001029109272809882000000024080A 00000000000700000000000000000000
0D1C60: 08800F43A00000000002000145D00547 00000700000000000000000000000007

; ##### Picture 138 #####

; Picture Data
0D1C70: 00000000000000000000000007000000 00000000000000000000000007000000
0D1C80: 00000000000000000007000000000000 00000000000000000007320008007800
0D1C90: 00000000000007000000000000000000 000000000000074A0240004400007FFF
0D1CA0: 00000007000000000000000000000000 FFFFFFF7232B6B1C44CAB07FFFFFFFFE
0D1CB0: 07000000000000000000000000070000 1712AA4AA4452AA87FFFFFFFFE174AAA
0D1CC0: 00000000000000000000070000000000 4AA44525287FFFFFFFFE1732992A9C78
0D1CD0: 00000000000000070000000000000000 C5287FFFFFFFFE17000000040000007F
0D1CE0: 00000000070000000000000000000000 FFFFFFFFF70000001800000000000000
0D1CF0: 00070000000000000000000000000700 000700000000000000000000000007FF
0D1D00: 00000000000000000000000700000000 FFFFFFFFFFFFFFFFFFFFFFFF00000000
0D1D10: 00000000000000000700000000000000 00000000000000000700000000000000
0D1D20: 00000000000700000000000000000000 00000000000738CC6200000480000000
0D1D30: 00000700000000000000000000000007 0CE4B7452C6200000900000000091517
0D1D40: 00000000000000000000000007000000 408AA218E0CD800000000916174C4AA2
0D1D50: 00000000000000000007000000000000 252D2900000000091617452922252129
0D1D60: 00000000000007000000000000000000 000000000915173CC92398E0C92AAAAA
0D1D70: 00000007000000000000000000000000 AA88E497000000002000000000000C00
0D1D80: 07000000000000000000000000070000 3700000000C000000000000000070000
0D1D90: 00000000000000000000070000000000 00000000000000000000070000000000
0D1DA0: 00000000000000070000000000000000 00000000000000077900000000400196
0D1DB0: 00000000070000000000000000000000 30000CE4B74400000002000256300009
0D1DC0: 00070000000000000000000000000700 1517453333311B58E115500009161745
0D1DD0: 00000000000000000000000700000000 444AAAA2552095500009161745144AAA
0D1DE0: 00000000000000000700000000000000 225522549000091517796332A99954E1
0D1DF0: 00000000000700000000000000000000 9492AA88E49700000000000020000000
0D1E00: 00000700000000000000000000000007 0C0037000000000000C0000000000007
0D1E10: 00000000000000000000000007000000 00000000000000000000000007000000
0D1E20: 00000000000000000007000000000000 000000000000000000074AA800000000
0D1E30: 00000000000007000000000000000000 000000000CE4B750A000000000000000
0D1E40: 00000007000000000000000000000000 0009151762AB1C733191991800000916
0D1E50: 07000000000000000000000000070000 1762AAA44A4A2A22A0000009161752AA
0D1E60: 00000000000000000000070000000000 A44A4A208A0800000915174AAA9C7231
0D1E70: 00000000000000070000000000000000 9B31B2AAAA88E4970000044000000000
0D1E80: 00000000070000000000000000000000 00000C00370000184000000000000000
0D1E90: 00070000000000000000000000000700 00070000000000000000000000000700
0D1EA0: 00000000000000000000000700000000 00000000000000000000000748000440
0D1EB0: 00000000000000000700000000000000 4000000000000CE4B750000440500000
0D1EC0: 00000000000700000000000000000000 00000009151761362466580000000000
0D1ED0: 00000700000000000000000000000007 09161762A55451500000000000091617
0D1EE0: 00000000000000000000000007000000 5225445550000000000009151749A534
0D1EF0: 00000000000000000007000000000000 534AAAAAAAAAAA88E497000000000000
0D1F00: 00000000000007000000000000000000 000000000C0037000000000000000000
0D1F10: 00000007000000000000000000000000 00000007000000000000000000000000
0D1F20: 07000000000000000000000000070000 07000000000000000000000000070000
0D1F30: 00000000000000000000070000000000 00000000000000000000070000000000
0D1F40: 00000000000000070000000000000000 00000000000000070000000000000000
0D1F50: 00000000070000000000000000000000 00000000070000000000000000000000
0D1F60: 00070000000000000000000000000700 00070000000000000000000000000700
0D1F70: 00000000000000000000000700000000 00000000000000000000000700000000
0D1F80: 00000000000000000700000000000000 00000000000000000700000000000000
0D1F90: 00000000000700000000000000000000 00000000000700000000000000000000
0D1FA0: 00000700000000000000000000000007 00000700000000000000000000000007
0D1FB0: 00000000000000000000000007000000 00000000000000000000000007000000
0D1FC0: 00000000000000000007000000000000 00000000000000000007000000000000
0D1FD0: 00000000000007000000000000000000 00000000000007000000000000000000
0D1FE0: 00000007000000000000000000000000 00000007000000000000000000000000
0D1FF0: 07000000000000000000000000070000 07000000000000000000000000070000
0D2000: 00000000000000000000070000000000 00000000000000000000070000000000
0D2010: 00000000000000070000000000000000 00000000000000070000000000000000
0D2020: 00000000070000000000000000000000 00000000070000000000000000000000
0D2030: 00070000000000000000000000000700 00070000000000000000000000000700
0D2040: 00000000000000000000000700000000 00000000000000000000000700000000
0D2050: 00000000000000000700000000000000 00000000000000000700000000000000
0D2060: 00000000000700000000000000000000 00000000000700000000000000000000
0D2070: 00000700000000000000000000000007 00000700000000000000000000000007

; ##### Picture 139 #####

; Picture Data
0D2080: 00000000000000000000000007000000 00000000000000000000000007000000
0D2090: 00000000000000000007000000000000 00000000000000000007320008007800
0D20A0: 00000000000007000000000000000000 000000000000074A0240004400007FFF
0D20B0: 00000007000000000000000000000000 FFFFFFF7232B6B1C44CAB07FFFFFFFFF
0D20C0: 07000000000000000000000000070000 F712AA4AA4452AA87FFFFFFFFFF74AAA
0D20D0: 00000000000000000000070000000000 4AA44525287FFFFFFFFFF732992A9C78
0D20E0: 00000000000000070000000000000000 C5287FFFFFFFFFF7000000040000007F
0D20F0: 00000000070000000000000000000000 FFFFFFFFF70000001800000000000000
0D2100: 00070000000000000000000000000700 000700000000000000000000000007FF
0D2110: 00000000000000000000000700000000 FFFFFFFFFFFFFFFFFFFFFFFF00000000
0D2120: 00000000000000000700000000000000 00000000000000000700000000000000
0D2130: 00000000000700000000000000000000 00000000000738CC6200000480000000
0D2140: 00000700000000000000000000000007 0CE4B7452C6200000900000000091517
0D2150: 00000000000000000000000007000000 408AA218E0CD800000000916174C4AA2
0D2160: 00000000000000000007000000000000 252D2900000000091617452922252129
0D2170: 00000000000007000000000000000000 000000000915173CC92398E0C92AAAAA
0D2180: 00000007000000000000000000000000 AA88E497000000002000000000000C00
0D2190: 07000000000000000000000000070000 3700000000C000000000000000070000
0D21A0: 00000000000000000000070000000000 00000000000000000000070000000000
0D21B0: 00000000000000070000000000000000 00000000000000077900000000400196
0D21C0: 00000000070000000000000000000000 30000CE4B74400000002000256300009
0D21D0: 00070000000000000000000000000700 1517453333311B58E115500009161745
0D21E0: 00000000000000000000000700000000 444AAAA2552095500009161745144AAA
0D21F0: 00000000000000000700000000000000 225522549000091517796332A99954E1
0D2200: 00000000000700000000000000000000 9492AA88E49700000000000020000000
0D2210: 00000700000000000000000000000007 0C0037000000000000C0000000000007
0D2220: 00000000000000000000000007000000 00000000000000000000000007000000
0D2230: 00000000000000000007000000000002 000000000000000000074AA800000000
0D2240: 00000000000007000000000002000000 000000000CE4B750A000000000000000
0D2250: 00000007114510B6903032D99660632D 0009151762AB1C733191991800000916
0D2260: 87114510DA904A4B6A5A9094B6871555 1762AAA44A4A2A22A0000009161752AA
0D2270: 509290424A4A528084A4871555509297 A44A4A208A0800000915174AAA9C7231
0D2280: 32724B926084A4870A28A092500A424A 9B31B2AAAA88E4970000044000000000
0D2290: 121094A4870A28A492204A4A4A529494 00000C00370000184000000000000000
0D22A0: A4870A28A49220323249926463248700 00070000000000000000000000000700
0D22B0: 000000C0000000000000000700000000 00000000000000000000000748000440
0D22C0: 00000000000000000700000000000000 4000000000000CE4B750000440500000
0D22D0: 00000000000700000000000000000000 00000009151761362466580000000000
0D22E0: 00000700000000000000000000000007 09161762A55451500000000000091617
0D22F0: 00000000000000000000000007000000 5225445550000000000009151749A534
0D2300: 00000000000000000007000000000000 534AAAAAAAAAAA88E497000000000000
0D2310: 00000000000007000000000000000000 000000000C0037000000000000000000
0D2320: 00000007000000000000000000000000 00000007000000000000000000000000
0D2330: 07000000000000000000000000070000 07000000000000000000000000070000
0D2340: 00000000000000000000070000000000 00000000000000000000070000000000
0D2350: 00000000000000070000000000000000 00000000000000070000000000000000
0D2360: 00000000070000000000000000000000 00000000070000000000000000000000
0D2370: 00070000000000000000000000000700 00070000000000000000000000000700
0D2380: 00000000000000000000000700000000 00000000000000000000000700000000
0D2390: 00000000000000000700000000000000 00000000000000000700000000000000
0D23A0: 00000000000700000000000000000000 00000000000732000800000000100000
0D23B0: 00000700000000000000000000000007 0000074A020800000000104000000007
0D23C0: 00000000000000000000000007000000 232B399560CCF392640000000712AA4A
0D23D0: 00000000000000000007000000000000 555112AA554A000000074AAA4A4A5112
0D23E0: 00000000000007000000000000000000 AA5448000000073299398A50CCAB9326
0D23F0: 00000007000000000000000000000000 80000007000000000000020000000000
0D2400: 07000000000000000000000000070000 07000000000000020000000000070000
0D2410: 00000000000000000000070000000000 00000000000000000000070000000000
0D2420: 00000000000000070000000000000000 00000000000000070000000000000000
0D2430: 00000000070000000000000000000000 00000000070000000000000000000000
0D2440: 00070000000000000000000000000700 00070000000000000000000000000700
0D2450: 00000000000000000000000700000000 00000000000000000000000700000000
0D2460: 00000000000000000700000000000000 00000000000000000700000000000000
0D2470: 00000000000700000000000000000000 00000000000700000000000000000000
0D2480: 00000700000000000000000000000007 00000700000000000000000000000007


;------------------------- end -------------------------

